:020000040800F2
:1000000070EB002489040008B1780008CD6F000867
:1000100049780008310F0008D5940008000000005E
:10002000000000000000000000000000C9030008FC
:10003000851700080000000025040008417C000826
:10004000A3040008A3040008A3040008A3040008F4
:10005000A3040008A3040008A3040008A3040008E4
:10006000A3040008A3040008A3040008AD100008BE
:10007000B9100008C5100008D1100008DD100008F4
:10008000E9100008F5100008A30400088D17000807
:1000900099170008A3040008A3040008A30400089B
:1000A000A3040008B17D0008A3040008A30400080D
:1000B000A3040008A3040008A3040008A304000884
:1000C000A3040008A3040008A3040008A304000874
:1000D000A304000891920008A3040008B992000844
:1000E000A3040008A304000800000000A304000803
:1000F000A3040008A3040008A304000801110008D9
:10010000A3040008A3040008A3040008A304000833
:1001100031830008A3040008A3040008A304000816
:100120000D1100081911000825110008A30400088A
:10013000A3040008A3040008A3040008A304000803
:1001400000000000000000000000000000000000AF
:10015000A3040008A3040008A3040008A3040008E3
:10016000A3040008A3040008A3040008A3040008D3
:10017000A3040008A3040008A30400080000000072
:10018000A3040008A3040008598300088183000821
:10019000A3040008A3040008A3040008A3040008A3
:1001A000A3040008A3040008A30400080000000042
:1001B000A3040008A3040008A3040008A304000883
:1001C000A3040008A30400080000000000000000D1
:1001D0000000000000000000A30400080000000070
:1001E000000000000000000000000000000000000F
:1001F0000000000000000000A3040008A3040008A1
:10020000A3040008A304000800000000A3040008E1
:10021000A3040008A3040008A3040008A304000822
:10022000A304000800000000A30400080000000070
:10023000A3040008A304000800000000A3040008B1
:10024000A3040008A3040008A3040008A3040008F2
:10025000A3040008A3040008A3040008A3040008E2
:10026000A3040008A3040008A3040008A3040008D2
:10027000A3040008A3040008A30400080000000071
:10028000A3040008A3040008A3040008A3040008B2
:1002900000000000A3040008A30400080000000000
:1002A00000000000A3040008A3040008A304000841
:1002B000A3040008A3040008A3040008A51700086D
:1002C000A3040008A3040008A304000800F002F837
:1002D00000F06AF80AA090E8000C82448344AAF176
:1002E0000107DA4501D100F05FF8AFF2090EBAE874
:1002F0000F0013F0010F18BFFB1A43F0010318475A
:10030000442B0100642B01000A444FF0000C10F84C
:10031000013B13F0070408BF10F8014B1D1108BF83
:1003200010F8015B641E05D010F8016B641E01F823
:10033000016BF9D113F0080F1EBF10F8014BAD1C73
:100340000C1B09D16D1E58BF01F801CBFAD505E091
:1003500014F8016B01F8016B6D1EF9D59142D6D3EB
:10036000704700000023002400250026103A28BF13
:1003700078C1FBD8520728BF30C148BF0B60704717
:10038000642900F02D82002070471FB511F000FD98
:100390009DE8030000F0C4FB00F08CFB1FBD10B50E
:1003A000002000F074FC10BD00F0CBFC1146FFF7FC
:1003B000ECFF0FF0EFFE00F0E9FC03B4FFF7EFFFF6
:1003C00003BC00F04DFD00002C4B19680868B0E834
:1003D000F04F80F30988BFF36F8F4FF0000080F378
:1003E000118870470000000008480068006880F32A
:1003F00008884FF0000080F3148862B661B6BFF33E
:100400004F8FBFF36F8F00DF00BF00BF08ED00E02C
:10041000DFF80C00016841F470010160704700BF13
:1004200088ED00E0EFF30980BFF36F8F134B1A687C
:100430001EF0100F08BF20ED108A20E9F04F106069
:1004400009B44FF0500080F31188BFF34F8FBFF312
:100450006F8F10F0F5FE4FF0000080F3118809BC9B
:1004600019680868B0E8F04F1EF0100F08BFB0EC34
:10047000108A80F30988BFF36F8F70476C000024E7
:10048000EFF305807047000009488047094800479E
:10049000FEE7FEE7FEE7FEE7FEE7FEE7FEE7FEE734
:1004A000FEE7FEE704480549054A064B7047000091
:1004B000F17C0008CD02000870D7002470EB002406
:1004C00070E7002470E700249FED1A1AF5EE000A89
:1004D00040EE010ABDEEE00AF5EEC00A10EE100A89
:1004E000F1EE10FA38BF401E00EE100A1349F7EE85
:1004F000001AB8EEC00A30EEC00ADFED0F0A20EE97
:10050000200AFCEEC00A10EE900AC0F3080000EECC
:10051000900A01EB8000F8EE600A90ED011A70EE8F
:10052000600A90ED000A71EEE01A21EE800A00EEFA
:10053000810A704783F9223E0000004430230108FD
:10054000DFED190AB5EEC00A60EE200ABDEEE01A32
:1005500011EE100AF1EE10FA38BF401E00EE100A3C
:100560001349F7EE001AB8EEC00A30EEC00ADFED0C
:100570000F0A60EE200ABCEEE00A10EE100AC0F38B
:10058000080000EE100A01EB8000B8EE400A90ED82
:10059000011A70EEC00A90ED000A71EEE01A21EE29
:1005A000800A00EE810A704783F9223E0000004471
:1005B0003023010870B5064600F08EFA056806F192
:1005C0000B0020F00704B4429CBF002070BD2B46F6
:1005D0006A68BAB11068A04210D304F108018842D9
:1005E0003CBF5068586007D35168101941601168CA
:1005F000091B016058601460101D70BD13465268DD
:10060000002AE7D12146284600F076FA0028DED1FC
:1006100070BD70B50446051F00F05EFA0068002C3E
:1006200014BF446870BD002C18BFAC423CBF2046CC
:100630006468F8D301680A18AA4218BF456003D15C
:100640002A6805461144016028684119A1421CBF6F
:100650006C6070BD6168696021680844286070BD85
:1006600053EA020C00F069802DE9F04B4FF00006D0
:10067000002B1FBFB3FA83F503FA05F424FA05F63D
:100680005E4012BF1643B2FA82F502FA05F4C5F1D4
:1006900020051EBF22FA05FC44EA0C04203556EA68
:1006A000044C4FEA144418BF641C4FF000084FF08C
:1006B0000009904271EB030C39D3002919BFB1FA3C
:1006C00081F701FA07F6B0FA80F700FA07F6C7F1EA
:1006D00020071EBF20FA07FC46EA0C062037B6FBAF
:1006E000F4FCA7EB0507103F07F01F0BCBF120062A
:1006F0000CFA0BFB2CFA06F644BFB3460026202F5B
:10070000A4BF5E464FF0000B5BEA060C08BF4FF03B
:10071000010B19EB0B09ABFB027C48EB0608C01B75
:1007200006FB02CC0BFB03CC71EB0C01C1E70B46C3
:10073000024641464846BDE8F08B13B54FF0000035
:100740004FF00001AFF30080BDE81C40704700008F
:100750000FB41CB5074B06AA7B4469460090059868
:1007600000F07DFA0020694600F08CFA1CBC5DF8B0
:1007700014FB0000290500002DE9F0410E46044657
:10078000002020622046E168884730B3252805D044
:10079000D4E901219047206A401CF2E7E168204635
:1007A00000278847050018D0A5F14100192802D874
:1007B00020354FF400673246294620462760FFF770
:1007C000DFFD40B1012804D0F61D26F007060836EB
:1007D000D8E7361DD6E72846DAE7206ABDE8F0817B
:1007E0002DE9F0410646002410687529314616A50A
:1007F00010D0AFF30080002802DA404213A507E0D2
:1008000031688A0701D512A502E0490704D511A570
:10081000012401E0AFF3008000210A2206F1240741
:1008200009E0B0FBF2FCB0FBF2F302FB1C0030303D
:1008300078541846491C0028F3D123462A463046EE
:10084000BDE8F04100F0ADB9000000002D0000004F
:100850002B000000200000002DE9F041074615465E
:100860000E461020FFF7A6FE04000AD06760C4E918
:10087000026500F039F90168216004600020BDE8DC
:10088000F0810120FBE740EA010310B59B070FD17F
:10089000042A0DD310C808C9121F9C42F8D020BAF0
:1008A00019BA884201D9012010BD4FF0FF3010BDA8
:1008B0001AB1D30703D0521C07E0002010BD10F876
:1008C000013B11F8014B1B1B07D110F8013B11F83C
:1008D000014B1B1B01D1921EF1D1184610BD10B562
:1008E000431C02E010F8011B71B18107FAD14FF0EF
:1008F000013202C88C1A8C4314EAC211F9D0C01A12
:100900000A0603D0C01E10BDC01A10BD0A0401D0D3
:10091000801E10BD0902FCD0401E10BD032A40F20B
:10092000308010F0030C00F0158011F8013BBCF191
:10093000020F624498BF11F801CB00F8013B38BFA9
:1009400011F8013BA2F1040298BF00F801CB38BFB7
:1009500000F8013B11F0030300F02580083AC0F0D5
:10096000088051F8043B083A51F804CBA0E808107D
:10097000F5E7121D5CBF51F8043B40F8043BAFF3B0
:100980000080D20724BF11F8013B11F801CB48BF0A
:1009900011F8012B24BF00F8013B00F801CB48BF40
:1009A00000F8012B704710B5203AC0F00B80B1E879
:1009B0001850203AA0E81850B1E81850A0E8185094
:1009C000BFF4F5AF5FEA027C24BFB1E81850A0E89D
:1009D000185044BF18C918C0BDE810405FEA827CB7
:1009E00024BF51F8043B40F8043B08BF7047D207CE
:1009F00028BF31F8023B48BF11F8012B28BF20F86F
:100A0000023B48BF00F8012B704702F0FF0343EAA6
:100A1000032242EA024200F002B84FF00002042929
:100A2000C0F0128010F0030C00F01B80CCF1040C1D
:100A3000BCF1020F18BF00F8012BA8BF20F8022B51
:100A4000A1EB0C0100F00DB85FEAC17C24BF00F8F7
:100A5000012B00F8012B48BF00F8012B70474FF025
:100A6000000200B5134694469646203922BFA0E8FE
:100A70000C50A0E80C50B1F12001BFF4F7AF09070A
:100A800028BFA0E80C5048BF0CC05DF804EB8900FB
:100A900028BF40F8042B08BF704748BF20F8022B3E
:100AA00011F0804F18BF00F8012B70477047704756
:100AB0007047000070B5064C7C44064D7D4403E051
:100AC000206820448047241DAC42F9D170BD00004D
:100AD000A8230100C42301000048704718D7002450
:100AE0000048704744D700240048704748D7002486
:100AF000704770477047704738B504460A46002073
:100B00006946AFF30080002808BF38BD024600994F
:100B1000204600F0E7F8012038BD012000F0FCB8C5
:100B2000F8B5AFF30080054600200C46102000BF4A
:100B30000646A819A0420DD9324669460020AFF3F7
:100B40000080070008BF00F0E7F80098A04218BF37
:100B50000546C419FFF7C0FF05600746F01D20F0E9
:100B600007004619284600F00AF8B44208BFF8BD4D
:100B7000A21B31463868BDE8F84000F0B3B8002148
:100B80000160C0E9011070471020704710B500F0F7
:100B9000A5F8006810BD10B5044600F09FF8046089
:100BA00010BD2DE9F0470D4699469246044600F1E6
:100BB00024080168880604D5E06921F0100121604D
:100BC00000E00120A84201DD471B00E00027A169E9
:100BD0007A1902EB0900081AA0612078C00602D435
:100BE0002046AFF30080002608E0D4E901211AF87E
:100BF00006009047206A401C761C20624E45F4DBBC
:100C00002078C0060AD52046AFF3008006E0D4E97C
:100C1000012130209047206A401C2062381EA7F135
:100C20000107F4DC07E0D4E9012118F8050090473A
:100C3000206A401C2062281EA5F10105F3DC204635
:100C4000AFF300802078000602D50220BDE8F087CF
:100C50000120FBE701694A1C02610878704700B572
:100C60008FB0CDE901310021059105497944CDE9E5
:100C7000031011466846FFF77FFD0FB000BD00006E
:100C8000E5FFFFFF0A6802F8010B0A6070472DE9D3
:100C9000F0410646FFF728FF8046454613E016B1AF
:100CA000E068B0420ED120682860D4E90101D8F88C
:100CB000007088472046FFF7ACFCD8F80000B84227
:100CC000EBD100E025462C68002CE8D1BDE8F0818E
:100CD00000F029B80048704710D70024004870473A
:100CE00010D70024034640688C46002818BF88426D
:100CF0003CBF03464068F8D318681844884207D0C0
:100D00000CF1030020F00700001D411A521A0146A1
:100D1000081D0A60FFF77DBC10B500F051F8BDE872
:100D2000104000F047B810B500F075F8016919B12E
:100D300000220261884701E08068804700F02FF8B8
:100D400070477546FFF7C6FFAE4605006946534635
:100D500020F00700854618B020B5FFF7A3FBBDE8DB
:100D600020404FF000064FF000074FF000084FF012
:100D7000000B21F00701AC46ACE8C009ACE8C009A3
:100D8000ACE8C009ACE8C0098D46704710B5044610
:100D9000AFF300802046BDE81040FFF70EBB10B552
:100DA000002000F080F8FFF7FAFABDE810400120BB
:100DB00000F056B8002801D000F052B8704700008B
:100DC00010B5012805D0002103A000F053F8012040
:100DD00010BD09A1F8E7000053494752544D454D55
:100DE0003A204F7574206F662068656170206D65CC
:100DF0006D6F7279000000003A2048656170206DC7
:100E0000656D6F727920636F7272757074656400BE
:100E100010B5FFF7C4FF70B500F028F80468054668
:100E2000A4B92020FFF7C6FB040011D00949002017
:100E30002C60C4E900010849A16020732061606151
:100E40000649A06109B100F035F8E061204670BDA7
:100E5000FFF7A5FF00000000110E000800000000D1
:100E600001491820ABBEFEE726000200004870478B
:100E70004CD7002470B505460C460A2000E06D1CD6
:100E800000F036F835B128780028F8D102E0641C6B
:100E900000F02EF814B120780028F8D1BDE8704099
:100EA0000A2000F025B810B500F02AF8BDE810407F
:100EB000FFF780BF10B58820FFF77CFB002801D02A
:100EC0000021017010BD802902D808B1017809B154
:100ED00000207047012100F8081B704718B100F18D
:100EE0000802914201D00020704700210170704734
:100EF00008B569468DF800000320ABBE08BD0000B0
:100F000010B5002102A0FFF7B5FF012010BD0000C1
:100F1000534947414252543A2041626E6F726D61AB
:100F20006C207465726D696E6174696F6E0000008B
:100F3000FEE70000094C4FF0FF36094D32460849E4
:100F4000206810F0FBFB0028F8D0064869680CF018
:100F500063FD054801210AF021F8EFE73C00002479
:100F6000F4000024E45E002488850024094C4FF03E
:100F7000FF36094D32460849206810F0DFFB002893
:100F8000F8D0064869680CF077FE054802210AF09F
:100F900005F8EFE740000024FC000024E45E002494
:100FA00088850024094C4FF0FF36094D3246084928
:100FB000206810F0C3FB0028F8D0064869680CF0E0
:100FC0003DFF0548032109F0E9FFEFE74400002455
:100FD00004010024E45E0024888500241CB5204818
:100FE0000BF0DEFF1E4C1F4E1F4F204D1C480CF017
:100FF000FDF91B480CF0B2FA94F8FA0428B318482B
:101000000CF068FC16480CF05FF87C34B4F93C0036
:10101000B4F92810CDE9001012483146B4F9143063
:1010200034F97C290C380DF0E7FC002328681A46B7
:10103000394610F071FA10F0CBFC014608480DF06B
:101040001DFF01200FF03AF9D0E700200090019039
:1010500003460246034831460C380DF0CDFCE4E768
:10106000006000241C8800248489002438000024A7
:101070000B480DF095F90B4D0B4C09480DF0F8F9A4
:1010800007480DF0B9F906480DF058F9002320681B
:101090001A46294610F040FA01200FF00FF9ECE74C
:1010A000606500249489002438000024014801F080
:1010B00089B80000E4130024014801F083B800005F
:1010C0005C140024014801F07DB8000014110024D4
:1010D000014801F077B800008C110024014801F0AC
:1010E00071B8000004120024014801F06BB8000040
:1010F0007C120024014801F065B80000B80D0024FE
:10110000014801F05FB80000F4120024014801F02A
:1011100059B800006C130024014801F053B80000D6
:10112000D4140024014801F04DB800004C150024EF
:1011300010B52C4A016891423AD02A4A183291429D
:1011400036D0284A3032914232D0264A4832914233
:101150002ED0244A603291422AD0224A78329142DB
:1011600026D0204A9032914222D01E4AA832914283
:101170001ED01D4A91421BD01B4A1832914217D0F3
:10118000194A3032914213D0174A483291420FD057
:10119000154A603291420BD0134A7832914207D0FF
:1011A000114A9032914203D00F4AA832914214D191
:1011B000CAB2103A1823B2FBF3F20C4C02F0070348
:1011C000E35CC365032A04D96FF30901091D816536
:1011D00006E06FF30901816502E021F0FF018165FE
:1011E000806D10BD1000024010040240941F0108E1
:1011F00010B501680123224CCAB2A1421BD0204C79
:101200001434A14217D01E4C2834A14213D01C4CD8
:101210003C34A1420FD01A4C5034A1420BD0184C90
:101220006434A14207D0164C7834A14203D0144C48
:101230008C34A1420FD1083A1421B2FBF1F1114ACA
:1012400002EB810202660F4A8032426601F01F0102
:101250008B40836610BD103A1824B2FBF4F20A4C9E
:101260002144A82900D80832084901EB820101660F
:1012700006498031416602F01F018B40836610BD34
:101280000854025800580258F0FBFDBF0008024005
:101290000279521E072A31D8194B016899421BD096
:1012A000174B1433994217D0154B2833994213D05A
:1012B000134B3C3399420FD0114B503399420BD012
:1012C0000F4B6433994207D00D4B7833994203D0CA
:1012D0000B4B8C33994207D10A4901EB8201C1665D
:1012E00008494031016706E0074901EB8201C16608
:1012F0000549403101670121914041677047000075
:10130000085402580059025800090240014610B51D
:1013100000208B694FF0C0748A6A002B0ED0B3F5A1
:10132000005F1AD062B3012A2AD0022A28D0032AE9
:1013300003D1C96AC90100D5012010BD1AB1012A23
:1013400006D0022AF9D1C96AC901F6D5012010BD1B
:10135000C96AA142FBD1012010BD52B1012A0AD0B5
:10136000022A06D0032AF7D1C96AA142F4D101208A
:1013700010BD012010BDC96AC901FBD5012010BDF7
:10138000012010BD2DE9F04F856D8A4E894FDFF8A1
:1013900024C2A836DFF81C82DFF818920CF1180C72
:1013A000DFF810A208F13008DFF808B209F14809A7
:1013B00004680AF1600A0BF1780BBC426DD06445F9
:1013C0006BD0444569D04C4567D0544565D05C45E9
:1013D00063D0DFF8E0E10EF1900E74455DD0B442C9
:1013E0005BD0DFF8D4E1744557D0DFF8CCE10EF1E3
:1013F000180E744551D0DFF8C0E10EF1300E74457F
:101400004BD0DFF8B4E10EF1480E744545D0DFF85B
:10141000A8E10EF1600E74453FD0DFF89CE10EF1BB
:10142000780E744539D0DFF890E10EF1900E7445D6
:1014300033D0DFF884E10EF1A80E74452DD0DFF82B
:101440007CE1744529D0DFF874E10EF1140E744587
:1014500023D0DFF868E10EF1280E74451DD0DFF8C7
:101460005CE10EF13C0E744517D0DFF850E10EF14F
:10147000500E744511D0DFF844E10EF1640E74454E
:101480000BD0DFF838E10EF1780E744505D0DFF8A7
:101490002CE10EF18C0E744509D1D0E919E4CEF897
:1014A0000440C46E1CB1D0E91CE4CEF804400468CA
:1014B000BC422ED064452CD044452AD04C4528D07F
:1014C000544526D05C4524D03A4F9037BC4220D0BA
:1014D000B4421ED0384EB4421BD0374E1836B442F8
:1014E00017D0354E3036B44213D0334E4836B4425E
:1014F0000FD0314E6036B4420BD02F4E7836B44206
:1015000007D02D4E9036B44203D02B4EA836B442AD
:101510001BD190F85C4004F01F063F24B440AC603F
:101520000468256825F48025256004686360836865
:10153000402B05D0036899600068C260BDE8F08F59
:1015400003689A600068C160F8E71C4EB4421BD083
:101550001A4E1436B44217D0184E2836B44213D05F
:10156000164E3C36B4420FD0144E5036B4420BD017
:10157000124E6436B44207D0104E7836B44203D0CF
:101580000E4E8C36B442D9D190F85C4004F01F0660
:101590000124B4406C60046863608368402B04D00D
:1015A000036899600068C260C8E703689A600068D1
:1015B000C160C3E710000240100402400854025802
:1015C0000F4E4FF0FF370F4D0F4C3A46291D306834
:1015D00010F0B4F80028F8D06868D4F81811401C4E
:1015E0000FF0D8FBD4F8180108F02EFFD4F818013A
:1015F00009F086F80548092109F0D0FCE5E700006C
:10160000500000241C010024E45E0024888500248E
:1016100000B52DED028B81B00D494968009101683C
:10162000009A511A00EE101A0A49F8EE400A91ED9C
:10163000000AB8EE400A80EE808A0099016008F046
:1016400023FA01B0B0EE480ABDEC028B00BD0000E9
:10165000001000E0580A002410B500F043F80C48D0
:101660009FED0C1A90ED000A8188C08800EE901A58
:10167000B8EE400AF8EE600A00EE810A00EE900A29
:101680009FED051AF8EE600A00EE810A10BD000019
:10169000880A00246F12833ABD3786350D490A68DF
:1016A00042F080720A600C4900224A600B6843F0E5
:1016B00001030B6009494843094908604FF47A73F4
:1016C000B0FBF3F34B60054BB0FBF3F08860CA60EE
:1016D00070470000FCED00E0001000E040420F0009
:1016E000580A00242DE9F84F24484068009008F07B
:1016F000CBF9DFF88C904FF0FF334FF0000A0098E1
:101700005146D9F80C20E2FB030104460D46C9E915
:101710000E01D9F800B00023204629465A46FEF7AC
:101720009FFFC9E9060106460F463046A0FB0B2184
:1017300007FB0B1106FB0A13A01A65EB0301074612
:101740008846C9E9080109F1300426600023D9F868
:101750000450384641462A46FEF782FF82B2A280F4
:101760006A43B81A68EB0A01C9E90A01D9F80820E6
:101770000023FEF775FFE080BDE8F88F001000E061
:10178000580A0024704772B6FEE70000014801F0D5
:10179000F1BD0000F40A0024014801F0EBBD000097
:1017A000940B0024014801F0E5BD0000340C002436
:1017B00030B5426B036853F8844F4FF6FC718C438D
:1017C00044EA82041C60036853F8844F058F24F4B4
:1017D0007F0444EA05441C60836B1A44036853F891
:1017E000884F8C4344EA82041C60036853F8884F96
:1017F000858F24F4FE0444EA05441C60C36B02EBAD
:101800004302036853F8A04F8C4344EA82041C60EF
:10181000036853F8A04FB0F8405024F4FE0444EAA3
:1018200005441C60D0E9103403FB0422036853F81C
:10183000B04F8C4344EA82041C60036853F8B04FF5
:10184000B0F8485024F4FE0444EA05441C60D0E992
:10185000123403FB0422036853F8AC4F8C4344EA70
:1018600082041C60D0E9143403FB0422036853F89B
:10187000F04F8C4344EA82041C60036853F8F04F35
:10188000B0F8585024F47C1444EA05441C60836D7D
:1018900002EB4303026852F8C04F8C4344EA8301D1
:1018A0001160016851F8C02FB0F85C3022F47C124E
:1018B00042EA03420A60016851F8C02F90F8603094
:1018C00022F07C5242EA03620A60416B224A02EB38
:1018D0008101C166826B01EB82020267C36B02EB7E
:1018E000C3024267D0E91034634302EB830282678C
:1018F000D0E91234634302EB8302C267D0E91434A7
:10190000634302EB8302C0F88020836D02EBC302C5
:10191000C0F88420C46D836E5C4302EB8402C0F87F
:101920008820046E5C4302EB8402C0F890200B4BCD
:101930009A4208D99830416841F020014160032162
:101940000170012030BD002200E004C1D0F89030C9
:101950008B42FAD8002030BD00AC0040FCD30040E0
:10196000F0B5D1E901650C692C430D68002E1AD041
:1019700045F080452C4391F82070D1E90665354348
:101980004E6946EA076635438E8945EA0645D0F832
:101990008460806E584306EB80031C605D600833F2
:1019A00000200B4E0FE044EA8544E4E71418155C70
:1019B000E77845EA0765A77864783F0447EA042496
:1019C000254320C3001DCC68345D8442EED8F0BDB1
:1019D0009C1F01082DED028B88B05F4809F004FDC3
:1019E0005F4800275D4E00F17C0107915839069150
:1019F0000C3900F1300A00F13C0B9FED5A8ADFF8F8
:101A000058814830CDE90401574808F50065DFF8F2
:101A10005C9108F58054039009F0C0F84E480AF034
:101A200031FA4D480AF0C0FB3078401C40B23070AB
:101A3000022800DB377094F8BD0F00285AD04648C2
:101A40000AF0A0FF444809F0FDFF4948079990EDCE
:101A5000650A43480CF00EFF307810B3B4F99405D2
:101A60000022CDE90007B4F9943059463C480CF007
:101A7000C3FFB4F9E00CB4F9141CCDE90010B4F9BB
:101A8000483BB4F97C2A364806990CF0B5FF00971C
:101A900051460197B4F9783EB4F9AC2D30480CF0BA
:101AA000ABFFB8F9AC202E4805990CF073FF95ED0B
:101AB000A90AD5EDA80A2A48B1EE400A049930EEE9
:101AC000602AB0EE480AF0EE401AB0EE401AF0EE8E
:101AD000400A0CF0F1FEFFF7BFFD88ED190A002364
:101AE0000399D9F800001A460FF016FD01200EF0F8
:101AF000E5FB91E71A48002205990CF04BFF002303
:101B0000174806991A4600970CF058FF002314480E
:101B10001A46514600970CF051FF11480799B0EE54
:101B2000480A0CF0A7FE95EDA90A0D480499B1EEFC
:101B3000402AF0EE481AB0EE481AF0EE480AB0EE2D
:101B4000480A0CF0B9FE002305481A46594600978A
:101B500001970CF051FFBEE7C86500243C0100244A
:101B600010880024000000007C8900243800002434
:101B7000C8710024074809F097FA4FF496700EF0E8
:101B80009DFB044809F01EFA09F03CF902200EF012
:101B900095FBF6E7888500242DE9F84F044602F00E
:101BA0009DF800905CB194F83500022809D080209F
:101BB0006065002084F834000120BDE8F88F012022
:101BC000FBE7D14ED04FD0491836DFF83C83303791
:101BD000DFF83493DFF830A308F14808DFF828B3C2
:101BE00009F1600920680AF1780A0BF1900B88422C
:101BF0002ED0B0422CD0B8422AD0404528D04845FB
:101C000026D0504524D0584522D0BF4AA832904211
:101C10001ED0BE4A90421BD0BC4A1832904217D008
:101C2000BA4A3032904213D0B84A483290420FD06C
:101C3000B64A603290420BD0B44A7832904207D014
:101C4000B24A9032904203D0B04AA83290420AD1B0
:101C5000026822F01E0202602068426922F08002BF
:101C60004261256804E0026822F00E0202602568E5
:101C7000206888424DD0B0424BD0B84249D0404550
:101C800047D0484545D0504543D0584541D09E4A5D
:101C9000A83290423DD09D4A90423AD09B4A183299
:101CA000904236D0994A3032904232D0974A4832E8
:101CB00090422ED0954A603290422AD0934A783290
:101CC000904226D0914A9032904222D08F4AA83238
:101CD00090421ED08E4A90421BD08D4A14329042C0
:101CE00017D08B4A2832904213D0894A3C32904216
:101CF0000FD0874A503290420BD0854A64329042CE
:101D000007D0834A7832904203D0814A8C32904285
:101D100004D1206E026822F4807202607A49206841
:101D200088422ED0B0422CD0B8422AD0404528D08C
:101D3000484526D0504524D0584522D07249A83174
:101D400088421ED0714988421BD0704918318842A0
:101D500017D06E493031884213D06C4948318842DF
:101D60000FD06A49603188420BD068497831884287
:101D700007D066499031884203D06449A83188422F
:101D800004D1016821F00101016013E0016821F034
:101D9000010101600EE001F0A1FF0099401A052841
:101DA00008D9202034342062032060700020207085
:101DB000012002E72868C007EDD1534A01212068BD
:101DC00090422ED0B0422CD0B8422AD0404528D0E4
:101DD000484526D0504524D0584522D04A4BA833F8
:101DE00098421ED0494B98421BD0484B183398421A
:101DF00017D0464B3033984213D0444B4833984267
:101E00000FD0424B603398420BD0404B783398420E
:101E100007D03E4B9033984203D03C4BA8339842B6
:101E200008D1A06D94F85C3003F01F053F23AB4050
:101E3000836007E0A06D94F85C3003F01F0301FAA3
:101E400003F34360206890424DD0B0424BD0B8427B
:101E500049D0404547D0484545D0504543D05845E6
:101E600041D0294AA83290423DD0284A90423AD0E7
:101E7000264A1832904236D0244A3032904232D02C
:101E8000224A483290422ED0204A603290422AD0D4
:101E90001E4A7832904226D01C4A9032904222D07C
:101EA0001A4AA83290421ED0194A90421BD0184AB2
:101EB0001432904217D0164A2832904213D0144A56
:101EC0003C3290420FD0124A503290420BD0104A0E
:101ED0006432904207D00E4A7832904203D00C4AC6
:101EE0008C3290420BD1D4E919205060E06E30B1B1
:101EF000026822F480720260D4E91C2050603434FD
:101F000061700020207058E610000240100402406A
:101F1000085402582DE9F05F002808D090F83510D9
:101F2000022906D0802141650120BDE8F09F0120F3
:101F3000FBE7A14AA04BA04C18329F4D30339E4E78
:101F40004834DFF874B26035DFF870C27836DFF8F5
:101F50006C82DFF868920CF1300CDFF860A208F1B7
:101F60006008016809F17809944F0AF1900A59450F
:101F700031D091422FD099422DD0A1422BD0A942ED
:101F800029D0B14227D0DFF830E20EF1900E714532
:101F900021D0DFF824E20EF1A80E71451BD0DFF846
:101FA0001CE2AEF1180E714515D0B94213D0DFF81E
:101FB0000CE20EF1180E71450DD061450BD0DFF823
:101FC000FCE10EF1480E714505D0414503D049456D
:101FD00001D0514537D14FF0040E80F835E0594516
:101FE00027D0914225D0994223D0A14221D0A942A5
:101FF0001FD0B1421DD070489030814219D06E4838
:10200000A830814215D06D481838814211D0B942AC
:102010000FD06A48183081420BD0614509D067481B
:102020004830814205D0414503D0494501D0514552
:1020300004D1086820F001000860BAE0086820F0C8
:1020400001000860B5E0D1F800E02EF00E0EC1F8F6
:1020500000E00168DE46594531D091422FD09942C7
:102060002DD0A1422BD0A94229D0B14227D0DFF8F0
:1020700048B10BF1900B594521D0DFF83CB10BF181
:10208000A80B59451BD0DFF834B1ABF1180B5945FB
:1020900015D0B94213D0DFF824B10BF1180B594514
:1020A0000DD061450BD0DFF814B10BF1480B594549
:1020B00005D0414503D0494501D0514506D1D1F85D
:1020C00000B02BF0010BC1F800B005E0D1F800B072
:1020D0002BF0010BC1F800B001684FF0010B714506
:1020E00046D0914244D0994242D0A14240D0A94228
:1020F0003ED0B1423CD0304A9032914238D02E4A44
:10210000A832914234D02D4A183A914230D0B94287
:102110002ED02A4A183291422AD0614528D0274A27
:102120004832914224D0414522D0494520D05145E2
:102130001ED0234A91421BD0214A1432914217D01B
:102140001F4A2832914213D01D4A3C3291420FD08F
:102150001B4A503291420BD0194A6432914207D047
:10216000174A7832914203D0154A8C32914218D1E5
:10217000016E0A6822F480720A60816D90F85C201A
:1021800002F01F020BFA02F24A60D0E919215160F5
:10219000C16E31B10A6822F480720A60D0E91C2154
:1021A000516080F835B0002180F83410016D01B124
:1021B00088470020B9E600001000024028040240D1
:1021C000085402582DE9FF5F0446002001904FF4A7
:1021D0001651FD480068B0FBF1F00090A56D2E6827
:1021E0002968FA4FDFF8E4B3DFF8E083DFF8DC9327
:1021F0000BF1180BDFF8D4A308F13008206809F1BF
:1022000048090AF1600AB8423BD05A46904238D099
:10221000404536D0484534D0504532D0EB4A78322C
:1022200090422ED0E94A903290422AD0E74AA83212
:10223000904226D0E64A904223D0E54A1832904296
:102240001FD0E34B303398421BD0E14B48339842C8
:1022500017D0DFF87CC30CF1600C604511D0DFF8BB
:1022600070C30CF1780C60450BD0DFF864C30CF13F
:10227000900C604505D0DFF858E30EF1A80E7045CC
:102280007ED194F85C10082301F01F0103FA01F2DB
:1022900032424BD0B84232D0584530D040452ED093
:1022A00048452CD050452AD0C8497831884226D09C
:1022B000C6499031884222D0C449A83188421ED0F4
:1022C000C34988421BD0C2491831884217D0C0493F
:1022D0003031884213D0BE49483188420FD0BC49C2
:1022E000603188420BD0BA497831884207D0B8496A
:1022F0009031884203D0B649A831884203D10168A1
:1023000001F0040102E0016801F0080171B1016807
:1023100021F00401016094F85C0000F01F0003FA52
:1023200000F2AA60606D40F00100606594F85C0006
:10233000012100F01F008140314240D02068B842A6
:1023400034D0584532D0404530D048452ED0504545
:102350002CD09E4A7832904228D09C4A90329042AB
:1023600024D09A4AA832904220D0994A90421DD057
:10237000974A1832904219D0954A3032904200E084
:10238000D2E113D0924A483290420FD0904A603244
:1023900090420BD08E4A7832904207D08C4A9032CD
:1023A000904203D08A4AA83290427DD1406910F011
:1023B000800F04D0A960606D40F00200606594F861
:1023C0005C00042100F01F00814031423ED02068B3
:1023D000B84232D0584530D040452ED048452CD058
:1023E00050452AD0794A7832904226D0774A9032A6
:1023F000904222D0754AA83290421ED0744A904230
:102400001BD0734A1832904217D0714A3032904232
:1024100013D06F4A483290420FD06D4A60329042DA
:102420000BD06B4A7832904207D0694A9032904282
:1024300003D0674AA83290424ED1006810F0020FD4
:1024400004D0A960606D40F00400606594F85C0001
:10245000102100F01F008140314260D02068B84256
:1024600034D0584532D0404530D048452ED0504524
:102470002CD0564A7832904228D0544A903290421A
:1024800024D0524AA832904220D0514A90421DD0C6
:102490004F4A1832904219D04D4A3032904215D0EE
:1024A0004B4A4832904200E014E00FD0484A603274
:1024B00090420BD0464A7832904207D0444A90323C
:1024C000904203D0424AA832904207D1006800F0FF
:1024D000080006E0006872E70068B7E7006800F0EF
:1024E000040058B1A9602068016849030CD5006850
:1024F000000304D4216C09B1204688470FE0A16C89
:1025000069B1204688470AE00168C90503D401681B
:1025100021F008010160216C09B12046884794F838
:102520005C00202100F01F00814031427BD02068F8
:10253000B84232D0584530D040452ED048452CD0F6
:1025400050452AD0214A7832904226D01F4A9032F4
:10255000904222D01D4AA83290421ED01C4A90427E
:102560001BD01B4A1832904217D0194A3032904281
:1025700013D0174A483290420FD0154A6032904229
:102580000BD0134A7832904207D0114A90329042D1
:1025900003D00F4AA832904203D1006800F0100027
:1025A00002E0006800F00200E8B3A96094F835008A
:1025B000042812D02068016849033DD50068000353
:1025C00035D4616C79B305E064000024100002404A
:1025D00010040240204688473FE02068016821F04F
:1025E000160101602068416921F080014161206C81
:1025F00008B9A06C20B12068016821F008010160D1
:1026000094F85C0000F01F013F208840A860012082
:1026100084F83500002084F83400216D002974D03E
:1026200004B0204600E018E0BDE8F05F0847E16B29
:1026300099B12046884710E00168C90509D40168AE
:1026400021F010010160012084F83500002084F899
:102650003400E16B09B120468847606D002854D0F2
:10266000606DC00758D0042084F835002068B84257
:1026700031D058452FD040452DD048452BD050451E
:1026800029D0B749884226D0B5491831884222D08E
:10269000B349303188421ED0B24988421BD0B1497B
:1026A0001831884217D0AF493031884213D0AD4934
:1026B000483188420FD0AB49603188420BD0A949DC
:1026C0007831884207D0A7499031884203D0A54984
:1026D000A831884204D1016821F00101016003E0C2
:1026E000016821F00101016021680198009A401CF5
:1026F0000190904202D80868C007F6D10868C00768
:1027000004D0032084F8350003E087E0012084F83A
:102710003500002084F83400E16C00297ED004B03C
:102720002046BDE8F05F08478F4EB0421BD08E4E6A
:102730001436B04217D08C4E2836B04213D08A4E91
:102740003C36B0420FD0884E5036B0420BD0864E49
:102750006436B04207D0844E7836B04203D0824E01
:102760008C36B0425AD106684FF0040E94F85CB033
:102770000BF01F0B0EFA0BFE1EEA010FCDF80CE05A
:102780005ED05FEA467E5BD503986860300411D561
:10279000F00307D4A16C002940D004B02046BDE866
:1027A000F05F0847216C002938D004B02046BDE80E
:1027B000F05F0847B0063BD42068B8422DD0684986
:1027C0006039884229D0404527D0484525D050451A
:1027D00023D06349884220D06149183188421CD0F7
:1027E0005F493031884218D05E49884215D0904206
:1027F00013D05C49303188420FD098420DD05949EE
:102800006031884209D057497831884205D0604507
:1028100003D05449A831884206D100E07CE0016829
:1028200021F00801016003E0016821F0040101606A
:10283000216C002970D004B02046BDE8F05F084745
:102840004FF0020E0EFA0BFE1EEA010FCDF808E063
:1028500063D05FEA867E60D502986860300411D547
:10286000F00307D4616C002978D004B02046BDE89D
:10287000F05F0847E16B002970D004B02046BDE846
:10288000F05F0847B0063FD42068B8422DD03449E5
:102890006039884229D0404527D0484525D0504549
:1028A00023D02F49884220D02D49183188421CD08E
:1028B0002B493031884218D02A49884215D090429D
:1028C00013D02849303188420FD098420DD0254985
:1028D0006031884209D023497831884205D060456B
:1028E00003D02049A831884204D1016821F01401A5
:1028F000016003E0016821F00A010160012084F811
:102900003500002084F83400E16B002926D004B0A3
:102910002046BDE8F05F084720E0082202FA0BF2EB
:102920000A421BD0310719D5016821F00E01016060
:1029300094F85C0000F01F01012000FA01F16960C9
:10294000606584F83500002084F83400E16C0029CB
:1029500004D004B02046BDE8F05F0847BDE8FF9F03
:102960008800024010040240085402582DE9F05F2C
:10297000044601F0B3F90646002C7DD0F24F022246
:10298000DFF8C4830025DFF8C093DFF8BCA308F1AB
:102990003008DFF8B4B309F1480920680AF1600A89
:1029A0000BF1780BB84232D0E749183188422ED06B
:1029B00040452CD048452AD0504528D0584526D0EF
:1029C000E1499031884222D0DF49A83188421ED0A7
:1029D000DE4988421BD0DD491831884217D0DB49D7
:1029E0003031884213D0D949483188420FD0D74975
:1029F000603188420BD0D5497831884207D0D3491D
:102A00009031884203D0D149A83188427ED184F8E0
:102A1000352084F83450B84234D0CB49183188423C
:102A200030D040452ED048452CD050452AD058456E
:102A300028D0C5499031884224D0C349A831884262
:102A400020D0C24988421DD0C0491831884219D0CF
:102A5000BE493031884215D0BC494831884211D036
:102A6000BA49603188420DD0B8497831884209D0DE
:102A7000B6499031884200E009E003D0B349A8315B
:102A8000884207D1016821F00101016013E00120B3
:102A9000BDE8F09F016821F0010101600BE001F049
:102AA0001DF9801B052806D920206065032084F8C5
:102AB00035000120ECE720680068C007EFD12268EC
:102AC0001168A3480140D4E902031843D4E904364D
:102AD00033431843A3691843E3691843236A18432F
:102AE0000843616A042903D1D4E90B13194308434D
:102AF0006168A1F12903052B0DD9163B032B0AD9D7
:102B0000083B012B07D9083B032B00E02AE002D940
:102B10007439032901D840F480101060206840699E
:102B200020F00701606A40EA010604280DD1A06A7E
:102B30000643E06A48B12046FEF7E8FB28B1402092
:102B40006065012084F83500A2E7206846612046D0
:102B5000FEF7EEFA94F85C1001F01F023F2191405D
:102B6000816066E07B4988421BD07A4B14339842DF
:102B700017D0784B2833984213D0764B3C33984289
:102B80000FD0744B503398420BD0724B6433984241
:102B900007D0704B7833984203D06E4B8C339842F9
:102BA0007ED1884211D06B49143188420DD06949D9
:102BB0002831884209D067493C31884205D06549AF
:102BC0005031884201D06349643184F8352084F85B
:102BD0003450026860490A40A16840297ED08029AB
:102BE0007DD00021E36841EAD301236941EAD301A2
:102BF000636941EAD301A36941EAD301E36941EA88
:102C0000D301236A41EA131111430160514920683D
:102C1000494208441421B0FBF1F08000E0652046F1
:102C2000FEF786FA94F85C1001F01F020121914032
:102C300041602068B84256D043491831884252D08A
:102C4000404550D048454ED050454CD058454AD0CC
:102C50003D499031884246D03B49A831884242D014
:102C60003A4988423FD03949183188423BD03749E8
:102C70003031884237D035494831884233D03349E2
:102C8000603188422FD03149783188422BD02F498A
:102C90009031884227D02D49A831884223D000E0C6
:102CA0002DE02C4988421ED02A49143188421AD07E
:102CB00028492831884216D026493C31884212D012
:102CC0002449503188420ED02249643188420AD0CA
:102CD00020497831884206D01E4901E00AE00BE025
:102CE0008C31884229D12046FEF782FAA0688028DC
:102CF0000CD00CE0102175E74FF4804172E74020C2
:102D00006065032084F835000120C1E66560216E0E
:102D100020790860D4E9191048606068401E0728CF
:102D200008D82046FEF7B4FAE06E0560D4E91C101E
:102D3000486002E0E566256765676565012084F8FF
:102D400035000020A4E600001000024010040240FC
:102D50003F8010FE085402580F00FEFF2DE9F84F87
:102D6000044600200090002C15D094F8340001286F
:102D700013D0012084F8340094F835500020012D40
:102D80000DD04FF40061616584F83400012000909B
:102D90000098BDE8F88F0120FBE70220F9E7022543
:102DA00084F835506065A54DA44EA44F1835DFF862
:102DB0008CC23036DFF884824837DFF88092DFF843
:102DC0007CA208F16008DFF874B209F17809206884
:102DD0000AF1900A0BF1A80B60453BD0A84239D00C
:102DE000B04237D0B84235D0404533D0484531D0D5
:102DF00050452FD058452DD0DFF844C2604529D02A
:102E0000DFF83CC20CF1180C604523D0DFF830C26B
:102E10000CF1300C60451DD0DFF824C20CF1480CD9
:102E2000604517D0DFF818C20CF1600C604511D076
:102E3000DFF80CC20CF1780C60450BD0DFF800C253
:102E40000CF1900C604505D0DFF8F4C10CF1A80C32
:102E5000604506D1D0F800C02CF0010CC0F800C0CD
:102E600005E0D0F800C02CF0010CC0F800C02046EE
:102E7000FEF788FA7149206888422CD0A8422AD0EF
:102E8000B04228D0B84226D0404524D0484522D070
:102E9000504520D058451ED0694A90421BD0684A00
:102EA0001832904217D0664A3032904213D0644AAA
:102EB000483290420FD0624A603290420BD0604A52
:102EC0007832904207D05E4A9032904203D05C4AFA
:102ED000A83290420DD1026822F01E0242F0160282
:102EE0000260206C90B12068026842F00802026023
:102EF0000CE0026822F00E0242F00A020260206C2E
:102F000020B12068026842F0040202602068884212
:102F10004BD0A84249D0B04247D0B84245D04045F6
:102F200043D0484541D050453FD058453DD0444A14
:102F300090423AD0424A1832904236D0404A30321B
:102F4000904232D03E4A483290422ED03C4A6032C3
:102F500090422AD03A4A7832904226D0384A90326B
:102F6000904222D0364AA83290421ED0354A904232
:102F70001BD0344A1432904217D0324A2832904241
:102F800013D0304A3C3290420FD02E4A50329042F9
:102F90000BD02C4A6432904207D02A4A78329042B1
:102FA00003D0284A8C3290420DD1206E0268D203A1
:102FB00003D5026842F480720260E06E18B10268C4
:102FC00042F480720260206888422CD0A8422AD045
:102FD000B04228D0B84226D0404524D0484522D01F
:102FE000504520D058451ED0154988421BD0144961
:102FF0001831884217D012493031884213D0104915
:10300000483188420FD00E49603188420BD00C49BC
:103010007831884207D00A499031884203D0084964
:10302000A831884204D1016841F001010160AFE696
:10303000016841F001010160AAE6000010000240B1
:10304000100402400854025810B590F89830012B33
:1030500008D0022B06D050F89C1F41F002010160FD
:10306000012010BD03689C6D0C4204D1DC6D44F05E
:103070000104DC6505E09C6D31EA04041CD00324E6
:10308000DC658B0504D5036853F8E04F14431C60DE
:103090004B0504D5036853F8E44F14431C600068E3
:1030A000426D084B0B401A4342650748026842EAEA
:1030B00091710160002010BDDC6D44F00204DC65FC
:1030C000DFE70000FFFFCF3F14A8004070B50446C3
:1030D00094F89800022806D054F89C0F40F008009D
:1030E0002060012070BD2068D0F8C03013F07C5FF4
:1030F0000AD0D0F8C4309B020DD554F89C0F40F490
:1031000000702060012070BD54F89C0F40F020003A
:103110002060012070BDD0F8C400C0F304452046F3
:103120002B46FEF71DFC21680120A840C1F8D00005
:10313000C4F89400002070BD704710B590F8982036
:10314000012A08D0022A06D050F89C1F41F0020143
:103150000160012010BDCA680B688BB1072A0B699A
:1031600043EA42732BD00C7A4A6942EA8472496876
:10317000006F00EBC100036042604FF0000010BD23
:10318000072A10D00C7A4FEAC2624B6943EA847373
:103190000C8A42EA044243EA02034968C06E00EB2B
:1031A00081000360E9E70B8A4FF060548A6942EAC4
:1031B0000343CA6944EA022243EA0203EDE78A694B
:1031C000D5E7704770470000F0B5002490F898509C
:1031D000022D06D050F89C1F41F00801016001202B
:1031E000F0BD40290BD0412936D0056D8D4260D805
:1031F00050F89C1F41F0200101600120F0BD0568DE
:10320000D5F8A06016F4FE0F18D0D5F8A4607606A5
:103210001BD0D5F8A460F60105D5D5F8A06016F04E
:10322000004F00D50124D5F8A450C5F305252C4442
:10323000456C466F654306EB85063FE050F89C1FE2
:1032400041F0200101600120F0BD50F89C1F41F4C5
:10325000807101600120F0BD0568D5F8B06016F4FA
:10326000FE0F18D0D5F8B46076061BD0D5F8B46040
:10327000F60105D5D5F8B06016F0004F00D5012451
:10328000D5F8B450C5F305252C44C56C866F65434D
:1032900006EB850612E050F89C1F41F0200101600A
:1032A0000120F0BD50F89C1F41F4807101600120A5
:1032B000F0BD456DC66F4D4306EB8506356805F0DC
:1032C000804555602DB3356825F06045156035683B
:1032D00005F000559560356805F000451561B58825
:1032E000ADB2D5617568C5F30345D560756805F461
:1032F00080155561756805F4001595617568C5F30D
:103300000665156275680836ED0F55620025174F82
:1033100009E03568C5F38A451560D8E716F805C099
:1033200003F805C06D1CD2F80CC017F80CC0AC45F2
:10333000F4D8402909D041290BD0012220290CD2F0
:1033400000688A40C0F898200DE00068C0F8A840E6
:1033500009E00068C0F8B84005E0006801F01F010E
:103360008A40C0F89C200020F0BD00009C1F01088E
:10337000704700002DE9FE4F0446B64F38688007BD
:10338000391D096800EA817002902068016D01F41E
:103390007041D0F854A00AEA010A016D01F00F0152
:1033A000D0F854B00BEA010B016D01F0F001426D51
:1033B0000A400192016D01F07151D0F8548008EA81
:1033C0000108016D01F06071426D0A400092416D8B
:1033D000056D4FF00009CE43F10509D4E943C90555
:1033E00006D4B9150165C7F800902046FFF7C0FF65
:1033F000700510D4E84340050DD42068D0F8DC20D7
:10340000D0F8E41011404FF480620265C7F80090D4
:10341000204600F046FB029858B18F4902980840B8
:10342000216808650298800F386002992046FFF7EE
:1034300083FEBAF1000F0BD0216887480AEA00002A
:1034400008654FEA9A7038605146204600F02BFB21
:10345000BBF1000F0BD021687F480BEA0000086524
:103460004FEA9B7038605946204600F0D9FA01981F
:1034700058B1794901980840216808650198800F82
:1034800038600199204600F0EDFA30050BD4E8438E
:10349000000508D421684FF400600865C7F8009063
:1034A000204600F001FBB00510D4E84380050DD4A0
:1034B0002068D0F8D820D0F8E01011404FF4007206
:1034C0000265C7F80090204600F0ECFA30030BD4F8
:1034D000E843000308D421684FF400200865C7F8CA
:1034E0000090204600F09AFAF0030BD4E843C003A2
:1034F00008D421684FF480300865C7F80090204652
:1035000000F0CEFA70030BD4E843400308D42168DE
:103510004FF480200865C7F80090204600F0BFFAFD
:10352000B0030ED4E84380030BD421684FF400307D
:103530000865C7F80090D4F89C0040F08000C4F8FB
:103540009C00009858B144490098084021680865DB
:103550000098800F386000992046FFF733FEB8F1DD
:10356000000F0DD021683C4808EA000008654FEACA
:1035700098703860D4F89C0040EA0800C4F89C00B9
:103580003649206888425BD160688168890757D0D6
:10359000016A01F00F02416A1140026A02F0300232
:1035A000476A1740026A02F4C072D0F8248008EA21
:1035B0000208026A02F4FC42456A1540026A02F4FB
:1035C000F022466A1640D0F82490D0F820A019B115
:1035D0000162204600F060FA2FB160680762394648
:1035E000204600F05BFA6FEA090040060ED46FEA4D
:1035F0000A0040060AD46068C16B090CC26B02F075
:103600003F0240230362204600F047FAB8F1000F62
:1036100006D06068C0F820804146204600F03BFAA2
:1036200035B160680562D4F89C002843C4F89C005A
:1036300036B160680662D4F89C003043C4F89C0040
:10364000D4F89C00002802D02046FFF7BAFDBDE860
:10365000FE8F000010A80040FFFFCF3F00A00040F9
:103660002DE9F04393B004464C2295496846FDF796
:103670009AF96CB1934F2068B84202D100F580707E
:1036800060604FF4407994F89800002620B108E07B
:10369000012013B0BDE8F08384F89960204600F063
:1036A00013F92068816921F01001816100F016FB97
:1036B00005464FF003080DE000F010FB401B0A2800
:1036C00008D954F89C0F40F00100206004F8048CE5
:1036D0000120DEE7206880690007EDD42068816959
:1036E00041F00101816100F0F9FA05460DE000F0BA
:1036F000F5FA401B0A2808D954F89C0F40F0010045
:10370000206004F8048C0120C3E720688069C007AA
:10371000EDD02068816941F002018161207C01289F
:1037200039D02068816941F040018161607C0128C5
:1037300037D02068816921F480418161A07C012813
:1037400035D02068816941F48051816120688169A8
:10375000A26821F44071114381612068816921F0E0
:10376000A40181612068016921F010010161E06814
:10377000012822D030B302282BD02068816941F083
:10378000800181612068016941F010010161E068F8
:10379000032818D022E02068816921F0400181616E
:1037A000C4E72068816941F480418161C6E72068EF
:1037B000816921F480518161C8E72068816941F005
:1037C000040181610AE02068816941F02001816182
:1037D00004E02068816941F020018161207E401E63
:1037E0004106E069401E41EA0020216A491E084363
:1037F000A18A491E40EA01402168C861A068484585
:103800000FD1E16AA06A491E401E40EA0121206BE7
:10381000401E41EA0011A08C401E41EA0040216890
:10382000C860206E28B1206850F8C01F626E114336
:103830000160D4E91701C842694609D0206850F8F0
:10384000C82FA36E22F0070251F823301A430260FA
:10385000206C48B1206850F8BC2F636C22F007023E
:1038600051F823301A430260A06C50B1206850F820
:10387000BC2FE36C22F0700251F8233042EA0312AD
:103880000260206D50B1206850F8BC2F636D22F4A7
:10389000E06251F8231042EA012101602068B84239
:1038A00004D16068816821F00301816044F8946F5D
:1038B000A66001202071943C2046FDF779FFE8E6E0
:1038C000AC1F010800A000402DE9F04387B004467A
:1038D000142102A8FDF7C3F84A4B002622680227EC
:1038E000494C4FF0030CDFF818914FF009081968A4
:1038F0000C3C454D4548491C4A4529D119600129D0
:1039000007D1296841F480712960296801F4807128
:103910000191216841F002012160216801F002015A
:1039200001914FF44071029103970496CDF814C0B1
:10393000CDF8188002A900F0B9F800220521132063
:1039400000F06CFA132000F05BFA07B0BDE8F083DA
:10395000DFF8BC904A4526D11960012907D12968B2
:1039600041F480712960296801F480710191216816
:1039700041F002012160216801F002010191602102
:10398000029103970496CDF814C0CDF8188002A9CF
:1039900000F08CF800220521142000F03FFA1420DA
:1039A00000F02EFAD1E71B488242CED119600129DE
:1039B00007D1286840F480702860286800F480707F
:1039C0000190206840F008002060206800F00800A6
:1039D00001904FF44050029003970496CDF814C024
:1039E0000520069002A90C4800F060F8002205218D
:1039F0009F2000F013FA9F2000F002FAA5E70000D4
:103A000000A0004054000024EC4402580004025876
:103A100000A4004000D40040000C02587047000091
:103A20000A460C4B0168994203D101460A480AF044
:103A3000A3BE0A4B994204D10146074878300AF0E8
:103A40009BBE074B994204D101460348F0300AF06F
:103A500093BE704700A0004074D1002400A4004031
:103A600000D40040704790F89810012906D050F813
:103A70009C1F41F00401016001207047022180F881
:103A8000981001688A6922F001028A610021C0F859
:103A90009C10002070477047704770477047704710
:103AA0007047704770477047704700002DE9F84F26
:103AB0000022784D03264FF001080F274FF0B04C3D
:103AC000E1E008FA02F31C409A46002C7ED00B7904
:103AD00003F00303012B01D0022B1BD1D0F8089077
:103AE000530006FA03FB29EA0B09D1F80CB00BFAD4
:103AF00003FB4BEA090BC0F808B0436823EA0A034A
:103B000091F80490C9F3001909FA02F949EA030986
:103B1000C0F804900B79DB439B070ED0D0F80C90D3
:103B2000530006FA03FA29EA0A09D1F808A00AFAAA
:103B300003FA4AEA090AC0F80CA00B7903F0030360
:103B4000022B14D1D30800EB8303D3F820A04FEA53
:103B500042794FEAD96907FA09FB2AEA0B0AD1F838
:103B600010B00BFA09FB4BEA0A0BC3F820B0D0F8EF
:103B70000090530006FA03FA29EA0A0991F804A012
:103B80000AF0030A0AFA03FA4AEA090AC0F800A08E
:103B90004B6813F4403F75D03F4BD3F8009049F089
:103BA0000209C3F800901B6803F00203009322F09F
:103BB000030909F1B049D9F808B493074FEA137A19
:103BC00007FA0AF32BEA030B344B00E05AE0984261
:103BD00001D1002328E0324B984201D1012323E098
:103BE000304B984201D102231EE02F4B984201D165
:103BF000032319E02D4B984201D1042314E02C4BF0
:103C0000984201D105230FE02A4B984201D10623A7
:103C10000AE0294B984201D1072305E0274B98423F
:103C200001D1092300E00A2303FA0AF343EA0B0354
:103C3000C9F80834DCF80030A343D1F804905FEAF7
:103C4000C92900D52343CCF80030DCF80430A34365
:103C5000D1F804905FEA892900D52343CCF80430D9
:103C60006B68A343D1F804905FEA893900D52343F8
:103C70006B602B68A343D1F804905FEAC93900D583
:103C800023432B60521C0C6834FA02F37FF419AF03
:103C9000BDE8F88F80000058F44402580000025834
:103CA0000004025800080258000C02580010025884
:103CB0000014025800180258001C02580024025830
:103CC0000069084201D00120704700207047002A97
:103CD00001D08161704709048161704701488068A3
:103CE000704700005800002402488168027811449F
:103CF000816070475800002410B5032000F0AEF832
:103D000001F04AF90F490A68C2F303230E4AD35C53
:103D100003F01F03D840096801F00F01515C0B4A02
:103D200001F01F0120FA01F11160094908600F201C
:103D300000F010F808B1012010BD00F04FF800208D
:103D400010BD00001844025820200108680000241B
:103D50006400002410B58AB00446102C2DD2002235
:103D60002146192000F05AF8192000F049F81648A9
:103D700004601648016841F001010160006800F02C
:103D80000100009001A902A801F090F801F0F2F8FA
:103D900040000F49B0FBF1F1491E0F480D4A026087
:103DA00040F2E732C260416000210161816001F0B0
:103DB00017FD20B101200AB010BD0120FBE7064825
:103DC00001F0A2FDF7E700005C000024F044025877
:103DD00040420F0000000140C415002482B0074893
:103DE000016841F002010160006800F002000190EA
:103DF00000220F21901E02B000F010B8F4440258C7
:103E0000002809DB012100F01F02914040098000D9
:103E100000F1E020C0F8001170470000F0B40D463A
:103E20000D4B1B68C3F30223C3F10704042C00D914
:103E30000424191D072901D2002300E0DB1E0126FE
:103E400006FA04F1491E294099409E40761E16400C
:103E50003143F0BC0BF074B80CED00E000F007014A
:103E6000054A10684FF6FF03184040EA0120034955
:103E700008431060704700000CED00E00000FA05F8
:103E8000BFF34F8F05480168054A01F4E061114313
:103E90000160BFF34F8F00BFFDE700000CED00E0B5
:103EA0000400FA0570B514490A68D243520708D5D0
:103EB000096801F00701814201D0012070BD002096
:103EC00070BD0A6822F0070202430A60FFF706FF8E
:103ED0000446094D4FF47A76083D06E0FFF7FEFEF2
:103EE000001BB04201D9012070BD2868C043800486
:103EF000F4D4002070BD00000C48025810B501F049
:103F000005F805490968054AC1F30211515C01F041
:103F10001F01C84010BD00002044025820200108A5
:103F200010B569490A6802F003020968C1F3053156
:103F3000654B1B1D1B68C3F30013634C14342468CA
:103F4000C4F3CC0414FB03F300EE103AB8EE400ABD
:103F5000002971D09FED5D1A5B4BF7EE000A10331C
:103F6000F2B39FED5B2A012A7FD0022A7CD001EEBA
:103F7000901A1968F8EE611AC2EE212AC1F30801FD
:103F800001EE901AF8EE611A40EE011A31EEA00A25
:103F900022EE800A1968C1F3462101EE101AB8EE2C
:103FA000411A31EE201AC0EE011ABCEEE11A80ED82
:103FB000001A1968C1F3064101EE101AB8EE411A51
:103FC00031EE201AC0EE011ABCEEE11A80ED011AA2
:103FD0001968C1F3066101EE101AB8EE411A00E04B
:103FE00008E071EE200A80EE201ABCEEC10A80EDD6
:103FF000020A10BD344A283A1468A4061ED5126875
:10400000C2F3C104334AE24001EE902AF8EE612A7D
:1040100001EE901A1968F8EE611A82EEA12AC1F336
:10402000080101EE901AF8EE611A40EE011A31EE25
:10403000A00A22EE000AADE741E016E001EE901A78
:10404000DFED252A1968F8EE611A82EEA12AC1F384
:10405000080101EE901AF8EE611A40EE011A31EEF5
:10406000A00A22EE000A95E713E001EE901A196803
:10407000F8EE611AC2EE212AC1F3080101EE901A8E
:10408000F8EE611A40EE011A31EEA00A22EE800A23
:1040900080E701EE901ADFED112A1968F8EE611A37
:1040A00082EEA12AC1F3080101EE901AF8EE611A1E
:1040B00040EE011A31EEA00A22EE000A6AE7002162
:1040C00001604160816010BD284402580000003941
:1040D0000024744A0090D0030024744C20BCBE4BD2
:1040E00010B569490A6802F003020968C1F3055175
:1040F000654B1B1D1B68C3F30023634C1C342468F1
:10410000C4F3CC0414FB03F300EE103AB8EE400AFB
:10411000002971D09FED5D1A5B4BF7EE000A183352
:10412000F2B39FED5B2A012A7FD0022A7CD001EEF8
:10413000901A1968F8EE611AC2EE212AC1F308013B
:1041400001EE901AF8EE611A40EE011A31EEA00A63
:1041500022EE800A1968C1F3462101EE101AB8EE6A
:10416000411A31EE201AC0EE011ABCEEE11A80EDC0
:10417000001A1968C1F3064101EE101AB8EE411A8F
:1041800031EE201AC0EE011ABCEEE11A80ED011AE0
:104190001968C1F3066101EE101AB8EE411A00E089
:1041A00008E071EE200A80EE201ABCEEC10A80ED14
:1041B000020A10BD344A283A1468A4061ED51268B3
:1041C000C2F3C104334AE24001EE902AF8EE612ABC
:1041D00001EE901A1968F8EE611A82EEA12AC1F375
:1041E000080101EE901AF8EE611A40EE011A31EE64
:1041F000A00A22EE000AADE741E016E001EE901AB7
:10420000DFED252A1968F8EE611A82EEA12AC1F3C2
:10421000080101EE901AF8EE611A40EE011A31EE33
:10422000A00A22EE000A95E713E001EE901A196841
:10423000F8EE611AC2EE212AC1F3080101EE901ACC
:10424000F8EE611A40EE011A31EEA00A22EE800A61
:1042500080E701EE901ADFED112A1968F8EE611A75
:1042600082EEA12AC1F3080101EE901AF8EE611A5C
:1042700040EE011A31EEA00A22EE000A6AE70021A0
:1042800001604160816010BD28440258000000397F
:104290000024744A0090D0030024744C20BCBE4B10
:1042A0002DE9FC5F044600250026F94F2068DFF861
:1042B000E493C043010104F10800019004F12800D7
:1042C00000900DD4606EB8B1B0F5801F19D0B0F574
:1042D000001F1CD0B0F5401F00D00125EDB12E46C7
:1042E0002088C043C00535D4A06D05282FD2DFE853
:1042F00000F01D22282F2F00386840F4003038606D
:10430000ECE70198022103F0F9FA0546E6E7009888
:10431000022103F085FB0546E0E7D9F80000616E55
:1043200020F440100843C9F80000D9E7386840F489
:10433000003038600CE00198002103F0DFFA0546F8
:1043400006E00098002103F06BFB054600E0012524
:10435000A5B12E462088DFF84083C04340051FD416
:10436000D4F8A400B0F5C00F18D010DC50B3B0F5ED
:10437000001F2CD0B0F5800F0FD12EE0D9F800002F
:10438000A16D20F007000843C9F80000E2E7B0F58E
:10439000000F03D0B0F5200F00D001251DB32E462D
:1043A0002088C043000531D4D4F8A800B0F1407F84
:1043B0002AD022DCF0B3B0F1807F4BD0B0F1007F87
:1043C00021D14DE0386840F400303860E6E70198CC
:1043D000002103F093FA0546E0E70098002103F07E
:1043E0001FFB0546DAE7D8F80000D4F8A41020F443
:1043F00060000843C8F80000D2E7B0F1806F03D036
:10440000B0F1A06F00D0012585B32E462068C043CF
:1044100080010AD4E06C30B1102832D0202836D088
:10442000302800D001258DB32E462088C043C0041B
:1044300046D400E009E0E06DB0F5005F5CD036DC0A
:10444000A0B3B0F5805F38D150E0386840F4003058
:104450003860D9E70198002103F050FA0546D3E708
:104460000098002103F0DCFA0546CDE7FFE7D8F815
:104470000000D4F8A81020F0E0600843C8F800005D
:10448000C4E7386840F400303860CCE705E00198B4
:10449000022103F033FA0546C5E77E48001F016894
:1044A000E26C21F0300111430160BEE719E0B0F584
:1044B000405F03D0B0F5804F00D0012515B32E46E4
:1044C0002088C04380042FD4206EB0F5403F29D00F
:1044D00021DC38B3B0F5803F38D0B0F5003F20D1B3
:1044E0003AE0386840F400303860E7E7019800218E
:1044F00003F004FA0546E1E70098002103F090FA82
:104500000546DBE7D9F80000E16D20F4E040084300
:10451000C9F80000D4E7B0F5802F03D0B0F5A02F84
:1045200000D00125F5B12E462088C04340042BD48D
:10453000D4F8AC00B0F1405F24D01CDC10B3B0F173
:10454000805F4FD0B0F1005F1BD152E00198012194
:1045500003F0D4F90546E5E70098012103F060FA7D
:104560000546DFE7D9F80000216E20F4E02008437B
:10457000C9F80000D8E7B0F1804F03D0B0F1A04FE8
:1045800000D00125A5B32E462088C04300040AD4DC
:10459000E06E30B1B0F1805F3DD0B0F1005F3FD050
:1045A0000125B5B32E462068C043C0010AD4A06CD3
:1045B00030B1012843D0022846D0032800D001257D
:1045C00045B32E462068C04340025AD4DFF8CCB031
:1045D000DBF8000040F48070CBF80000FFF77EFBB2
:1045E000824648E00198012103F088F90546C9E7B1
:1045F00005E00098012103F013FA0546C2E7D8F858
:104600000000D4F8AC1020F0E0400843C8F80000E7
:10461000BAE70BE01EE0386840F400303860C0E7CD
:104620000198012103F06AF90546BAE7D9F80000BC
:10463000E16E20F040500843C9F80000B3E7386845
:1046400040F400303860BBE70198022103F056F9CE
:104650000546B5E70F48001F0168A26C21F0030171
:1046600011430160AEE7FFF739FBA0EB0A006428B5
:1046700001D9032503E0DBF80000C005F3D58DB1B7
:104680002E462078DFF818A0C043C00763D073E03F
:104690002C440258504402585844025800480258CA
:1046A00054440258DFF850B4DBF80000B4F8B010FE
:1046B00000F4407001F44071884211D0DBF8000032
:1046C00020F44070DBF8001041F48031CBF800108A
:1046D000DBF8001021F48031CBF80010CBF800009B
:1046E000D4F8B000B0F5807F11D1FFF7F7FA824619
:1046F00009E0FFF7F3FAA0EB0A0141F288308142AA
:1047000001D9032503E0DBF800008007F1D50DB1E6
:104710002E46B6E7D4F8B000C0F3012103290FD02C
:10472000F5486038016821F47C510160DBF8000035
:10473000B4F8B010C1F30B010843CBF80000A0E7B8
:10474000ED4960390A68ED4B22F47C52184042EA88
:1047500010100860EAE7A06F18280BD005DC48B1FC
:10476000082815D0102804D118E0202802D02828C5
:1047700000D00125C5B12E462078C04380072BD438
:10478000606F062825D2DFE800F025181E252525B4
:104790000198012103F0B2F80546EBE700980121EA
:1047A00003F03EF90546E5E7DAF80000A16F20F0D6
:1047B00038000843CAF80000DEE70198012103F041
:1047C0009DF8054606E00098012103F029F9054609
:1047D00000E001256DB12E462078C043400720D46B
:1047E000D4F89000062819D2DFE800F0190C12194D
:1047F0001919DAF80000616F20F007000843CAF8C1
:104800000000E9E70198012103F078F8054606E089
:104810000098012103F004F9054600E0012595B157
:104820002E462078C043800620D4D4F88C00B0F106
:10483000405F19D011DCB8B1B0F1805F28D0B0F181
:10484000005F10D12AE0D8F80000D4F8901020F0D2
:1048500007000843C8F80000E3E7B0F1804F03D039
:10486000B0F1A04F00D00125F5B12E462078C0430D
:1048700040062CD4D4F89800B0F5406F25D01DDC4C
:1048800018B3B0F5806F34D0B0F5006F1CD136E0AE
:104890000198002103F032F80546E5E7009802216F
:1048A00003F0BEF80546DFE7DAF80000D4F88C1014
:1048B00020F0E0400843CAF80000D7E7B0F5805F79
:1048C00003D0B0F5A05F00D00125F5B12E462078C9
:1048D000C04300062CD4D4F89C00B0F5C04F25D0BE
:1048E0001DDC18B3B0F5005F2CD0B0F5804F1CD1A3
:1048F0002EE00198002103F001F80546E5E7009855
:10490000022103F08DF80546DFE7D8F80000D4F85F
:10491000981020F4E0500843C8F80000D7E7B0F53D
:10492000004F03D0B0F5204F00D00125B5B12E4681
:104930002078C04300072AD4D4F88000B0F5805F07
:1049400016D01BE00198002102F0D8FF0546EDE7E4
:104950000098022103F064F80546E7E7D8F8000064
:10496000D4F89C1020F460400843C8F80000DFE74A
:104970000098022103F054F800B10126DAF8000093
:10498000D4F8801020F440500843CAF80000207882
:10499000C043C00613D4D4F89400B0F5807F05D18D
:1049A0000098022103F03CF800B10126D8F800007D
:1049B000D4F8941020F440700843C8F80000206830
:1049C000C04300030BD4D4F8A000E8B3B0F5803F97
:1049D0007DD0B0F5003F00D00125B5B32E4620684C
:1049E000C04340030DD4D4F88400B0F5801F70D0CC
:1049F000B0F5001F6ED0B0F5401F00D001252DB3DB
:104A00002E462068C043C00307D4206DF0B3B0F534
:104A1000803F75D00125D5B32E462068C043800065
:104A200005D40098022102F0FBFF00B101262068A6
:104A3000C043800311D4E06F68B1B0F5807F76D0B9
:104A4000B0F5007F07D002E05BE066E07BE0B0F508
:104A5000407F00D00125DDB32E462068C043C00250
:104A600007D4D9F80000216F20F000400843C9F8AE
:104A700000002068C043800207D4D9F80000A16E6E
:104A800020F080700843C9F8000001E065E06FE0A5
:104A90002068C04340000AD417486038016821F4F8
:104AA000004101600168D4F8B4201143016020681E
:104AB000C04307D4104824380168626D21F040518A
:104AC000114301602068C04300020DD403E01EE0E2
:104AD0005BE02DE031E0DAF80000D4F8881020F433
:104AE00040000843CAF8000020790025C04300F0C8
:104AF0000100284352D057E070440258FFFCFF0FDA
:104B000030E00198002102F0F9FE054665E70098C3
:104B1000022102F085FF05465FE7D8F80000D4F8CF
:104B2000A01020F440300843C8F8000057E727E001
:104B3000386840F40030386061E70098012102F0E5
:104B40006FFF05465BE7DAF80000D4F8841020F424
:104B500040100843CAF8000053E7386840F40030BA
:104B6000386058E70198022102F0C8FE054652E776
:104B70002E480168226D21F48031114301604CE719
:104B8000386840F40030386065E7DAF80000E16F1B
:104B900020F440700843CAF800005EE70198002145
:104BA00002F0ACFE00B106462079C04300F00200DE
:104BB000284305D10198012102F0A0FE00B106466C
:104BC0002079C04300F00400284305D10198022158
:104BD00002F094FE00B106462079C04300F00800C0
:104BE000284305D10098002102F01AFF00B10646C3
:104BF0002079C04300F01000284305D1009801211E
:104C000002F00EFF00B106462079C04300F02000FC
:104C1000054305D10098022102F002FF00B10646CB
:104C200016B10120BDE8FC9F0020FBE74C44025870
:104C30002DE9F05F04460D46002C17D0DFF84C82BA
:104C4000D8F8000000F00F00A84211D2D8F80000F8
:104C500020F00F002843C8F80000D8F8000000F04A
:104C60000F00A84204D00120BDE8F09F0120FBE71F
:104C70002078874E40070AD52069316801F070011D
:104C8000884204D9316821F07001014331602078F5
:104C9000804F00070AD56069396801F070018842C9
:104CA00004D9396821F07001014339602078C006C9
:104CB0000AD5A069396801F4E061884204D93968ED
:104CC00021F4E061014339602078DFF8CC9180065F
:104CD0000DD5E069D9F8001001F07001884206D9BD
:104CE000D9F8001021F070010143C9F800102078B4
:104CF00080070AD5E068316801F00F01884204D9C5
:104D0000316821F00F01014331602078C00743D0A2
:104D10003068A16820F47060084330605C496068C6
:104D20001839022808D003280BD001280ED00968B2
:104D3000490710D4012097E7096889030BD40120A3
:104D400092E70968890106D401208DE70968C90541
:104D500001D4012088E7DFF838A1AAF1080ADAF8BF
:104D6000001021F007010143CAF80010FEF7B6FF5A
:104D7000834609E0FEF7B2FFA0EB0B0141F2883059
:104D8000814201D903206FE7DAF80000616800F082
:104D90003800B0EBC10FEDD1207880070AD5E0686C
:104DA000316801F00F01884204D2316821F00F010F
:104DB00001433160D8F8000000F00F00A8420ED97E
:104DC000D8F8000020F00F002843C8F80000D8F8F9
:104DD000000000F00F00A84201D0012044E7207835
:104DE00040070AD52069316801F07001884204D279
:104DF000316821F0700101433160207800070AD545
:104E00006069396801F07001884204D2396821F084
:104E10007001014339602078C0060AD5A06939685D
:104E200001F4E061884204D2396821F4E061014371
:104E30003960207880060DD5E069D9F8001001F0BE
:104E40007001884206D2D9F8001021F070010143A8
:104E5000C9F8001000F0A0F83168C1F303220F492F
:104E60008A5C02F01F02D040326802F00F02895CB7
:104E70000B4A01F01F0120FA01F111600949086095
:104E800009480068BDE8F05FFEF764BF00200052EB
:104E9000184402581C44025820440258202001089B
:104EA00068000024640000245C0000243F220260AB
:104EB000144A126802F007024260124A083213686C
:104EC00003F470638360136803F00F03C360126818
:104ED00002F0700202610B4A0C32136803F0700397
:104EE0004361126802F4E0628261064A103212687D
:104EF00002F07002C2610448006800F00F00086010
:104F000070470000104402580020005200B500F025
:104F100043F80B490A68C2F303230A4AD35C03F03F
:104F20001F03D840096801F00F01515C064A01F0E7
:104F30001F0120FA01F11160044A1060084600BD0B
:104F4000184402582020010868000024640000244E
:104F500000B5FFF7DBFF05490968054AC1F30211F7
:104F6000515C01F01F01C84000BD00001C44025804
:104F70002020010800B5FFF7C9FF05490968054A67
:104F8000C1F30221515C01F01F01C84000BD0000C7
:104F90001C4402582020010830B564480068654C64
:104FA00010F03801624808D0021108290DD01029EC
:104FB0000DD018290DD0104630BD21688906FBD5CB
:104FC0002168C1F3C101C84030BD104630BD5A4808
:104FD00030BD564918310A6802F003020968C1F36E
:104FE0000511524B1C331B6803F001034F4D243550
:104FF0002D68C5F3CC0515FB03F300EE103AB8EEAF
:10500000400A002977D0DFED4D0A484BB7EE001A71
:1050100020333AB39FED4A2A012A58D0022A6CD095
:1050200001EE901A1868F8EE611AC2EE212AC0F358
:10503000080001EE900AF8EE611A40EE201A31EEF7
:10504000810A22EE800A1868C0F34620401C00EE58
:10505000900AF8EE600A80EE201ABCEEC10A10EE4B
:10506000100A30BD226892061BD52268C2F3C10225
:10507000D04001EE900A1868F8EE612A01EE901A0D
:10508000F8EE611A82EEA12AC0F3080001EE900A40
:10509000F8EE611A40EE201A31EE810A22EE000A83
:1050A000D1E701EE901ADFED272A1868F8EE611AB1
:1050B00082EEA12AC0F3080001EE900AF8EE611A10
:1050C00040EE201A31EE810A22EE000ABBE701EE23
:1050D000901A1868F8EE611AC2EE212AC0F308008F
:1050E00001EE900AF8EE611A40EE201A31EE810AC4
:1050F00022EE800AA7E716E0FFE701EE901ADFED47
:10510000122A1868F8EE611A82EEA12AC0F308008C
:1051100001EE900AF8EE611A40EE201A31EE810A93
:1051200022EE000A8FE7002030BD00001044025834
:105130000090D0030044025840787D0100000039FF
:105140000024744A0024744C20BCBE4B2DE9F05F4F
:105150000446002C10D02078DFF8F883FE4EFF4D77
:10516000C0075DD0D8F8000000F038003168102882
:105170001FD0182803D006E00120BDE8F09F01F001
:105180000300022815D06068B0F5803F18D0E0B168
:10519000B0F5A02F22D0286820F48030286028683D
:1051A00020F480202860606860B3FEF797FD074612
:1051B00024E02868800333D5606810BB0120DCE759
:1051C000286840F480302860EDE7286820F48030BB
:1051D0002860286820F480202860E4E7286840F4EC
:1051E00080202860286840F480302860DBE7FEF7E4
:1051F00075FDC01B642801D90320BEE72868800321
:10520000F5D50DE0FEF76AFD074606E0FEF766FD00
:10521000C01B642801D90320AFE728688003F5D4B8
:105220002078800764D5D8F8000000F03800316895
:10523000DFF8289309F1040970B1182801D1880713
:105240000AD0E068A0B3296821F019010143296060
:10525000FEF744FD07462CE02868400701D5E068CA
:1052600048B12868E16820F0190008432860FEF77B
:1052700035FD074608E001207FE7FEF72FFDC01B44
:10528000022801D9032078E728684007F5D5D9F826
:105290000000217C20F0FE4040EA0160C9F80000D7
:1052A00026E0FEF71BFDC01B022802D9032064E79D
:1052B0000CE028684007F4D5D9F80000217C20F0E4
:1052C000FE4040EA0160C9F8000011E0286820F0C3
:1052D00001002860FEF702FD074606E0FEF7FEFC2F
:1052E000C01B022801D9032047E728684007F5D4EE
:1052F0002078C00655D5D8F8000000F03800316895
:10530000DFF850920828A9F104090FD0182803D11A
:1053100001F00300012809D0E06978B3286840F063
:1053200080002860FEF7DAFC074619E02868C0050F
:1053300004D5E069802801D001201EE7D9F80000DB
:1053400094F8201020F07C5040EA0160C9F8000079
:1053500027E0FEF7C3FCC01B022801D903200CE79D
:105360002868C005F5D5D9F8000094F8201020F081
:105370007C5040EA0160C9F8000012E0FFE72868AD
:1053800020F080002860FEF7A9FC074606E0FEF743
:10539000A5FCC01B022801D90320EEE62868C00541
:1053A000F5D42078000730D5DFF8AC91606909F1B9
:1053B0004C09A8B1D9F8000040F00100C9F800007C
:1053C000FEF78CFC074606E0FEF788FCC01B0228AF
:1053D00001D90320D1E6D9F800008007F4D514E004
:1053E000D9F8000020F00100C9F80000FEF776FCB3
:1053F000074606E0FEF772FCC01B022801D9032015
:10540000BBE6D9F800008007F4D42078800626D5C2
:10541000A06990B1286840F480502860FEF75EFCD7
:10542000074606E0FEF75AFCC01B022801D90320FC
:10543000A3E628688004F5D511E0286820F48050A0
:105440002860FEF74BFC074606E0FEF747FCC01B52
:10545000022801D9032090E628688004F5D420783A
:1054600040075DD53E4F386840F480703860FEF7E5
:1054700035FC814607E0FEF731FCA0EB090064280B
:1054800001D9032079E63868C005F4D5324FA06809
:105490004837012812D0B0B105281DD0386820F057
:1054A00001003860386820F004003860A06841F2DC
:1054B000883930B3FEF712FC82461EE0386840F0AF
:1054C00001003860F2E7386820F001003860386881
:1054D00020F004003860E9E7386840F004003860E4
:1054E000386840F001003860E0E7FEF7F7FBA0EB1A
:1054F0000A00484501D903203FE638688007F4D503
:105500000EE0FEF7EBFB824607E0FEF7E7FBA0EBC1
:105510000A00484501D903202FE638688007F4D4F3
:10552000616AB1B1D8F800004FF6F87BDFF828A027
:105530000AF1080AC0F3C20003280AF10409AAF11B
:1055400004087CD0022911D0286820F080702860DF
:1055500008E0E5E01044025828440258004402588C
:1055600000480258FEF7BAFB044689E0286820F09C
:1055700080702860FEF7B2FB074606E0FEF7AEFB40
:10558000C01B022801D90320F7E528688001F5D463
:10559000306840F2F3318843E16A40EA0110A16AC1
:1055A00008433060208E4FF6FF72616B401E491E2B
:1055B000C0F3080002EA41210843218F4FF4FE02A4
:1055C000491E02EA0141084394F83C10491E1202A8
:1055D00002EA01610843CAF80000D8F8000020F090
:1055E0000100C8F80000D9F80000A16C20EA0B0007
:1055F00040EAC100C9F80000D8F80000216C20F092
:105600000C000843C8F80000D8F80000616C20F0D6
:1056100002000843C8F80000D8F8000040F48030C9
:10562000C8F80000D8F8000040F40030C8F80000C6
:10563000D8F8000040F48020C8F8000000E023E023
:10564000D8F8000040F00100C8F80000286840F0D9
:1056500080702860FEF742FB044606E0FEF73EFB42
:10566000001B022801D9032087E528688001F5D5B1
:1056700056E0FEF733FB001B022801D903207CE52E
:1056800028688001F5D44BE03268DAF8000001297F
:1056900021D0A36A02F0030199421CD1E16AC2F34E
:1056A0000512914217D1216BC0F30802491E8A42AC
:1056B00011D1616BC0F34622491E91420BD1A16BFF
:1056C000C0F30642491E914205D1E16BC0F306606A
:1056D000491E814201D001204FE5D9F80000C0F3F6
:1056E000CC00A16C81421BD0D8F8000020F0010052
:1056F000C8F80000FEF7F2FA0546FEF7EFFAA842F6
:10570000FBD0D9F80000A16C20EA0B0040EAC100F0
:10571000C9F80000D8F8000040F00100C8F8000007
:1057200000202AE57047704770470000F0B590F8F8
:105730003C20012A40D0012680F83C60022280F8FB
:105740003D2003685A689C681C4FDFF874C0BB4258
:1057500001D0634503D122F470054A682A4322F040
:1057600070050A682A435A600268BA4219D0B2F139
:10577000804F16D0134B9A4213D0134B9A4210D03D
:10578000124B9A420DD062450BD0114B9A4208D071
:10579000104B9A4205D0104B9A4202D00F4B9A42BE
:1057A00004D124F080038968194391603C3046702D
:1057B000002101700020F0BD0220F0BD000001407A
:1057C000000401400004004000080040000C0040BC
:1057D000001800400040014000E0004000E40040AC
:1057E00010B50446002C03D094F83D0010B107E03A
:1057F000012010BD002084F83C00204600F018F87D
:10580000022084F83D002068211D02F0D7FA012013
:105810003D34E0726070A070E07020716071A07122
:10582000E07120726072A0722070002010BD000034
:1058300070B586B00646142101A8FBF710F9306850
:105840002B49B0F1804F3DD02A4A904243D108689D
:1058500040F002000860086800F002000090244850
:105860000838016841F004010160006800F004009C
:10587000009080200190022002900025039504955D
:10588000059001A91C48FEF711F91D4C1B4820602A
:10589000172060604020A060E560000120614000AA
:1058A00060618000A061E5614FF440302062656274
:1058B0002046FDF75BF808B1FBF765FF7462A6634D
:1058C00006B070BD086840F001000860086800F08C
:1058D00001000090F4E70B4A9042F1D1086840F0D3
:1058E00004000860086800F004000090E8E7000089
:1058F000E84402580004004000080258A00002409A
:10590000B80D00240008004090F83D10012901D096
:1059100001207047022180F83D100168CA6842F0FA
:105920000102CA600068184988421AD0B0F1804F5D
:1059300017D01649884214D01549884211D015490C
:1059400088420ED0144988420BD01449884208D0AE
:105950001349884205D01349884202D0124988422F
:105960000CD18168114A114006290BD0B1F5803F56
:1059700008D0016841F00101016003E0016841F0D5
:105980000101016000207047000001400004004058
:1059900000080040000C00400004014000180040D6
:1059A0000040014000E0004000E40040070001002A
:1059B00070B50446002594F83C00012815D0012656
:1059C00084F83C60022084F83D0020688268394BEE
:1059D0001A4022F47F4282600868702802462ED066
:1059E00010DC10F00F0F03D022E04FF0020070BD6A
:1059F0004FEA201007281BD2DFE800F0575757570F
:105A00004D394300B0F1101F4FD009DCB0F5805F75
:105A10000FD0B0F5005F1ED0B0F5801F08D144E074
:105A2000A0F58010203840D010283ED020283CD04F
:105A300001253C34667000202070284670BDCB687C
:105A40002068D1E9012102F0ACFA2068816841F0B8
:105A500077018160EDE7CB682068D1E9012102F090
:105A6000A0FA2068816841F480418160E1E7CA685A
:105A70004968206802F038FC2068502102F09CFA46
:105A8000D7E7CA684968206802F03FFC20686021B7
:105A900002F092FACDE7CA684968206802F024FC57
:105AA0002068402102F088FAC3E72068114602F01E
:105AB00083FABEE788FFCEFF704770472DE9F041BB
:105AC00004462068C66805694FF00007A90714D589
:105AD000B10712D5F91E0161012020772068806985
