:020000040800F2
:10000000907300243D040008896F00089967000878
:10001000356F0008610C0008A58C00080000000086
:100020000000000000000000000000007D03000848
:10003000C512000800000000D9030008257300085D
:100040005704000857040008570400085704000824
:100050005704000857040008570400085704000814
:10006000570400085704000857040008C90C00088A
:10007000D90C0008E90C0008F90C0008090D00086B
:1000800057040008570400085704000857040008E4
:1000900057040008570400085704000857040008D4
:1000A00057040008D17400085704000857040008DA
:1000B00057040008570400085704000857040008B4
:1000C00057040008570400085704000857040008A4
:1000D000570400084D8C0008798C0008570400086C
:1000E00057040008570400080000000057040008E7
:1000F0005704000857040008570400085704000874
:100100005704000857040008570400085704000863
:10011000C9790008D9790008570400085704000875
:100120005704000857040008570400085704000843
:100130005704000857040008570400085704000833
:1001400000000000000000000000000000000000AF
:100150005704000857040008570400085704000813
:100160005704000857040008570400085704000803
:100170005704000857040008570400080000000056
:1001800057040008570400085704000857040008E3
:1001900057040008570400085704000857040008D3
:1001A0005704000857040008570400080000000026
:1001B00057040008570400085704000857040008B3
:1001C0005704000857040008000000000000000069
:1001D00000000000000000005704000800000000BC
:1001E000000000000000000000000000000000000F
:1001F0000000000000000000570400085704000839
:1002000057040008570400080000000057040008C5
:100210005704000857040008570400085704000852
:100220005704000800000000570400080000000008
:100230005704000857040008000000005704000895
:100240005704000857040008570400085704000822
:100250005704000857040008570400085704000812
:100260005704000857040008570400085704000802
:100270005704000857040008570400080000000055
:1002800057040008570400085704000857040008E2
:100290000000000057040008570400080000000098
:1002A0000000000057040008570400085704000825
:1002B00057040008570400085704000857040008B2
:1002C00057040008570400085704000800F002F81B
:1002D00000F045F80AA090E8000C82448344AAF19B
:1002E0000107DA4501D100F03AF8AFF2090EBAE899
:1002F0000F0013F0010F18BFFB1A43F0010318475A
:1003000070E3000090E30000103A24BF78C878C181
:10031000FAD8520724BF30C830C144BF04680C600B
:10032000704700000023002400250026103A28BF53
:1003300078C1FBD8520728BF30C148BF0B60704757
:100340001FB50DF0B3FA9DE8030000F0D9FA00F0F4
:1003500093FA1FBD10B5002000F02FFB10BD00F078
:1003600079FB1146FFF7ECFF0BF0FCF900F097FB6F
:1003700003B4FFF7EFFF03BC00F0D6FB2C4B19686A
:100380000868B0E8F04F80F30988BFF36F8F4FF033
:10039000000080F3118870470000000008480068E2
:1003A000006880F308884FF0000080F3148862B67C
:1003B00061B6BFF34F8FBFF36F8F00DF00BF00BF89
:1003C00008ED00E0DFF80C00016841F47001016005
:1003D000704700BF88ED00E0EFF30980BFF36F8F37
:1003E000134B1A681EF0100F08BF20ED108A20E989
:1003F000F04F106009B44FF0500080F31188BFF344
:100400004F8FBFF36F8F0CF01FFB4FF0000080F396
:10041000118809BC19680868B0E8F04F1EF0100F89
:1004200008BFB0EC108A80F30988BFF36F8F704764
:100430005C000024EFF30580704700000948804706
:1004400009480047FEE7FEE7FEE7FEE7FEE7FEE7B6
:10045000FEE7FEE7FEE7FEE704480549054A064BCE
:1004600070470000F1730008CD020008905F00247F
:1004700090730024906F0024906F00249FED1A1A4F
:10048000F5EE000A40EE010ABDEEE00AF5EEC00A04
:1004900010EE100AF1EE10FA38BF401E00EE100AFE
:1004A0001349F7EE001AB8EEC00A30EEC00ADFEDCD
:1004B0000F0A20EE200AFCEEC00A10EE900AC0F3EC
:1004C000080000EE900A01EB8000F8EE600A90ED63
:1004D000011A70EE600A90ED000A71EEE01A21EE4A
:1004E000800A00EE810A704783F9223E0000004432
:1004F000B8DD0008DFED190AB5EEC00A60EE200A8B
:10050000BDEEE01A11EE100AF1EE10FA38BF401EEF
:1005100000EE100A1349F7EE001AB8EEC00A30EEEA
:10052000C00ADFED0F0A60EE200ABCEEE00A10EE12
:10053000100AC0F3080000EE100A01EB8000B8EECC
:10054000400A90ED011A70EEC00A90ED000A71EEBB
:10055000E01A21EE800A00EE810A704783F9223EFC
:1005600000000044B8DD000870B5064600F0A8F9A8
:10057000056806F10B0020F00704B4429CBF002080
:1005800070BD2B466A68BAB11068A04210D304F15E
:10059000080188423CBF5068586007D35168101961
:1005A00041601168091B016058601460101D70BD26
:1005B00013465268002AE7D12146284600F08CF9FC
:1005C0000028DED170BD53EA020C00F069802DE9ED
:1005D000F04B4FF00006002B1FBFB3FA83F503FA70
:1005E00005F424FA05F65E4012BF1643B2FA82F50E
:1005F00002FA05F4C5F120051EBF22FA05FC44EA03
:100600000C04203556EA044C4FEA144418BF641C0D
:100610004FF000084FF00009904271EB030C39D302
:10062000002919BFB1FA81F701FA07F6B0FA80F78D
:1006300000FA07F6C7F120071EBF20FA07FC46EABA
:100640000C062037B6FBF4FCA7EB0507103F07F0BC
:100650001F0BCBF120060CFA0BFB2CFA06F644BF5D
:10066000B3460026202FA4BF5E464FF0000B5BEA86
:10067000060C08BF4FF0010B19EB0B09ABFB027C1A
:1006800048EB0608C01B06FB02CC0BFB03CC71EB4E
:100690000C01C1E70B46024641464846BDE8F08BD7
:1006A00013B54FF000004FF00001AFF30080BDE83C
:1006B0001C4070472DE9F041074615460E461020B4
:1006C000FFF752FF04000AD06760C4E9026500F03A
:1006D000FBF80168216004600020BDE8F081012082
:1006E000FBE7032A40F2308010F0030C00F0158085
:1006F00011F8013BBCF1020F624498BF11F801CB25
:1007000000F8013B38BF11F8013BA2F1040298BF89
:1007100000F801CB38BF00F8013B11F0030300F0F3
:100720002580083AC0F0088051F8043B083A51F897
:1007300004CBA0E80810F5E7121D5CBF51F8043B9C
:1007400040F8043BAFF30080D20724BF11F8013B0F
:1007500011F801CB48BF11F8012B24BF00F8013B71
:1007600000F801CB48BF00F8012B704710B5203AC4
:10077000C0F00B80B1E81850203AA0E81850B1E85A
:100780001850A0E81850BFF4F5AF5FEA027C24BF10
:10079000B1E81850A0E8185044BF18C918C0BDE807
:1007A00010405FEA827C24BF51F8043B40F8043BD0
:1007B00008BF7047D20728BF31F8023B48BF11F885
:1007C000012B28BF20F8023B48BF00F8012B7047DF
:1007D00002F0FF0343EA032242EA024200F002B8B9
:1007E0004FF000020429C0F0128010F0030C00F05A
:1007F0001B80CCF1040CBCF1020F18BF00F8012BD8
:10080000A8BF20F8022BA1EB0C0100F00DB85FEAA5
:10081000C17C24BF00F8012B00F8012B48BF00F871
:10082000012B70474FF0000200B5134694469646E0
:10083000203922BFA0E80C50A0E80C50B1F12001F3
:10084000BFF4F7AF090728BFA0E80C5048BF0CC0A1
:100850005DF804EB890028BF40F8042B08BF7047FF
:1008600048BF20F8022B11F0804F18BF00F8012B71
:10087000704770477047704770B5064C7C44064D12
:100880007D4403E0206820448047241DAC42F9D118
:1008900070BD000010DE000024DE00002DE9F041F4
:1008A00017460E46054633B107FB0354E41B2046AA
:1008B000B047A542FAD1A5F10800BDE8F0810000DB
:1008C00000487047345F002400487047645F00248C
:1008D000704770477047704738B504460A46002095
:1008E0006946AFF30080002808BF38BD0246009972
:1008F000204600F08BF8012038BD012000F0A0B8A0
:10090000F8B5AFF30080054600200C46102000BF6C
:100910000646A819A0420DD9324669460020AFF319
:100920000080070008BF00F08BF80098A04218BFB5
:100930000546C419FFF7C4FF05600746F01D20F007
:1009400007004619284600F00AF8B44208BFF8BD6F
:10095000A21B31463868BDE8F84000F057B80021C6
:100960000160C0E9011070471020704770B504465F
:10097000051FFFF7A5FF0068002C14BF446870BD79
:10098000002C18BFAC423CBF20466468F8D3016815
:100990000A18AA4218BF456003D12A6805461144C7
:1009A000016028684119A1421CBF6C6070BD61687C
:1009B000696021680844286070BD2DE9F041064651
:1009C000FFF782FF8046454613E016B1E068B0426B
:1009D0000ED120682860D4E90101D8F8007088475A
:1009E0002046FFF7C3FFD8F80000B842EBD100E083
:1009F00025462C68002CE8D1BDE8F08100487047FE
:100A00002C5F002400487047605F00240346406864
:100A10008C46002818BF88423CBF03464068F8D384
:100A200018681844884207D00CF1030020F0070032
:100A3000001D411A521A0146081D0A60FFF796BFB1
:100A400010B500F03BF8BDE8104000F031B800F000
:100A50005DB870477546FFF7D1FFAE4605006946A1
:100A6000534620F00700854618B020B5FFF7F4FC88
:100A7000BDE820404FF000064FF000074FF000089F
:100A80004FF0000B21F00701AC46ACE8C009ACE820
:100A9000C009ACE8C009ACE8C0098D46704710B584
:100AA0000446AFF300802046BDE81040FFF760BC6D
:100AB000002801D000F038B87047000010B50128B8
:100AC00005D0002103A000F040F8012010BD09A1CD
:100AD000F8E7000053494752544D454D3A204F75B1
:100AE00074206F662068656170206D656D6F727926
:100AF000000000003A2048656170206D656D6F72DE
:100B00007920636F727275707465640010B500F0BF
:100B100038F8016919B100220261884701E0806854
:100B2000804700F007F8000001491820ABBEFEE73F
:100B30002600020010B5002000F054F8FFF70AFC70
:100B4000BDE810400120FFF7EFBF70B505460C4629
:100B50000A2000E06D1C00F039F835B12878002833
:100B6000F8D102E0641C00F031F814B120780028BC
:100B7000F8D1BDE870400A2000F028B810B5FFF7A2
:100B8000D9FF70B500F02AF804680546A4B9202002
:100B9000FFF7EAFC040011D0094900202C60C4E9E9
:100BA00000010849A1602073206160610649A061CD
:100BB00009B100F01EF8E061204670BDFFF7BAFFF2
:100BC000000000007D0B00080000000008B5694629
:100BD0008DF800000320ABBE08BD00000048704740
:100BE000685F002410B500F023F8BDE81040FFF75F
:100BF0005FBF10B58820FFF7B7FC002801D00021A7
:100C0000017010BD802902D808B1017809B1002017
:100C10007047012100F8081B704718B100F1080265
:100C2000914201D000207047002101707047000000
:100C300010B5002102A0FFF788FF012010BD0000C1
:100C4000534947414252543A2041626E6F726D617E
:100C50006C207465726D696E6174696F6E0000005E
:100C600000BFFEE700BF01200AF098FDFBE700BFD0
:100C700001200AF093FDFBE700BF00231A46044958
:100C8000044800680CF0E0F801200AF087FDF4E762
:100C90005C5A00243000002400BF084809F0F0FC32
:100CA000064809F0D7FC00231A46054905480068A4
:100CB0000CF0CAF802200AF071FDEEE76856002435
:100CC0006C5A00243000002410B5024800F04CFF9C
:100CD00010BD0000A004002410B5024800F044FF3D
:100CE00010BD00001805002410B5024800F03CFFBC
:100CF00010BD00009005002410B5024800F034FF3C
:100D000010BD0000B003002410B5024800F02CFF15
:100D100010BD0000280400240146374A08689042AC
:100D200049D0354A18320868904244D0324A3032AD
:100D3000086890423FD0304A4832086890423AD022
:100D40002D4A60320868904235D02B4A78320868C4
:100D5000904230D0284A9032086890422BD0264AE0
:100D6000A8320868904226D0244A0868904222D0CF
:100D7000224A1832086890421DD0204A3032086852
:100D8000904218D01D4A48320868904213D01B4A3E
:100D90006032086890420ED0184A78320868904253
:100DA00009D0164A90320868904204D0134AA832FB
:100DB0000868904201D1012000E00020B0B10A781B
:100DC000103A1823B2FBF3F000F007020C4B9A5CC8
:100DD000CA65032805D90A686FF30902121D8A65DE
:100DE00003E00A686FF309028A6503E0086820F0EF
:100DF000FF008865886D70471000024010040240B3
:100E000078DA000810B502682B4C0368A34222D0A0
:100E1000294C14340368A3421DD0274C283403689E
:100E2000A34218D0244C3C340368A34213D0224C74
:100E300050340368A3420ED01F4C64340368A342AD
:100E400009D01D4C78340368A34204D01A4C8C346A
:100E50000368A34201D1012300E000238BB1037892
:100E6000083B1424B3FBF4F1144B03EB810303663A
:100E7000124B8033436601F01F040123A3408366B5
:100E800018E00378103B1824B3FBF4F10C4B9A42A2
:100E900004D80B4BA83B9A4200D30831094B03EB13
:100EA00081030366074B8033436601F01F0401236F
:100EB000A340836610BD0000085402580058025831
:100EC000B8040240000802400179A9B3082940D8BB
:100ED000204B02689A4222D01E4B143302689A4279
:100EE0001DD01C4B283302689A4218D0194B3C3352
:100EF00002689A4213D0174B503302689A420ED0C0
:100F0000144B643302689A4209D0124B783302685A
:100F10009A4204D00F4B8C3302689A4201D10122CD
:100F200000E000224AB14A1E0B4B03EB8202C2666C
:100F3000094A4032026708E00BE04A1E074B03EB08
:100F40008202C266054A403202674A1E012393406C
:100F5000436770470854025800590258000902407C
:100F6000014600208A69D2B98A6A32B1012A0DD0BD
:100F7000022A03D0032A10D10EE000BFCA6A02F091
:100F80008072B2F1807F00D1012007E0CA6AB2F11D
:100F9000C07F00D1012001E000E000BF36E08A6997
:100FA000B2F5005F1BD18A6A32B1012A07D0022A4A
:100FB00003D0032A11D10AE000BF01200EE0CA6A63
:100FC00002F08072B2F1807F00D1012006E0CA6A8F
:100FD000B2F1C07F00D1012000E000BF16E08A6AB4
:100FE00032B1012A05D0022A04D0032A0CD103E031
:100FF00000BF00BF012008E0CA6A02F08072B2F1AF
:10100000807F00D1012000E000BF00BF70470000DA
:10101000F0B5856D846D984F0668BE4270D0964FCE
:1010200018370668BE426BD0934F30370668BE4211
:1010300066D0914F48370668BE4261D08E4F603708
:101040000668BE425CD08C4F78370668BE4257D0E7
:10105000894F90370668BE4252D0874FA83706683E
:10106000BE424DD0854F0668BE4249D0834F1837E7
:101070000668BE4244D0814F30370668BE423FD03A
:101080007E4F48370668BE423AD07C4F60370668CC
:10109000BE4235D0794F78370668BE4230D0774FA0
:1010A00090370668BE422BD0744FA8370668BE4200
:1010B00026D0734F0668BE4222D0714F143706689F
:1010C000BE421DD06E4F28370668BE4218D06C4F06
:1010D0003C370668BE4213D0694F50370668BE429F
:1010E0000ED0674F64370668BE4209D0644F783728
:1010F0000668BE4204D0624F8C370668BE4201D1FA
:10110000012600E000263EB1D0E919767E60C66E69
:1011100016B1D0E91C767E60574F0668BE4249D0B2
:10112000554F18370668BE4244D0534F30370668D3
:10113000BE423FD0504F48370668BE423AD04E4F6D
:1011400060370668BE4235D04B4F78370668BE42DE
:1011500030D0494F90370668BE422BD0464FA83753
:101160000668BE4226D0454F0668BE4222D0434F95
:1011700018370668BE421DD0404F30370668BE4261
:1011800018D03E4F48370668BE4213D03B4F6037F9
:101190000668BE420ED0394F78370668BE4209D085
:1011A000364F90370668BE4204D0344FA8370668E1
:1011B000BE4201D1012600E00026DEB190F85C605D
:1011C00006F01F073F26BE40AE600668366826F46C
:1011D000802607683E60066873608668402E04D1EA
:1011E0000668B2600668F16044E00668B1600668AF
:1011F000F2603FE0224F0668BE4222D0204F1437F3
:101200000668BE421DD01E4F28370668BE4218D061
:101210001B4F3C370668BE4213D0194F5037066843
:10122000BE420ED0164F64370668BE4209D0144F36
:1012300078370668BE4204D0114F8C370668BE422C
:1012400001D1012600E00026A6B190F85C6006F00E
:101250001F070126BE406660066873608668402EE0
:1012600004D10668B2600668F16003E00668B16008
:101270000668F260F0BD0000100002401004024059
:101280000854025800BF4FF0FF320A490A4800686C
:101290000BF02CFF0028F6D006494968481C074986
:1012A0000BF0FCF8054807F03BFD0721044807F068
:1012B000D1FEE8E7FC00002444000024F05800249C
:1012C000C4560024704772B600BFFEE7084807F016
:1012D000B5FF4FF496700AF061FA00BF044807F0BA
:1012E000DDFE07F0B5FE02200AF058FAF6E700002E
:1012F000C45600242DE9F041044601F029FF804640
:1013000014B90120BDE8F08194F83500022808D016
:101310008020606500BF002084F8340000BF0120F9
:10132000F0E7FE492068884249D0FC49183120681E
:10133000884244D0F9493031206888423FD0F7498B
:101340004831206888423AD0F449603120688842A8
:1013500035D0F24978312068884230D0EF49903159
:10136000206888422BD0ED49A8312068884226D0D9
:10137000EB492068884222D0E94918312068884228
:101380001DD0E74930312068884218D0E4494831FF
:101390002068884213D0E2496031206888420ED02C
:1013A000DF4978312068884209D0DD4990312068D2
:1013B000884204D0DA49A8312068884201D101204E
:1013C00000E0002068B12068006820F01E0021685D
:1013D00008602068406920F0800021684861256825
:1013E00006E02068006820F00E002168086025688B
:1013F000CA492068884270D0C8491831206888429C
:101400006BD0C64930312068884266D0C349483124
:101410002068884261D0C1496031206888425CD030
:10142000BE4978312068884257D0BC499031206845
:10143000884252D0B949A831206888424DD0B84975
:101440002068884249D0B64918312068884244D083
:10145000B3493031206888423FD0B14948312068D3
:1014600088423AD0AE4960312068884235D0AC49D4
:1014700078312068884230D0A9499031206888426C
:101480002BD0A749A8312068884226D0A5492068DA
:10149000884222D0A3491431206888421DD0A14936
:1014A00028312068884218D09E493C312068884203
:1014B00013D09C495031206888420ED0994964313C
:1014C0002068884209D0974978312068884204D042
:1014D00094498C312068884201D1012000E000202D
:1014E00028B1206E006820F48070216E08608B495E
:1014F0002068884249D0894918312068884244D000
:1015000086493031206888423FD08449483120687C
:1015100088423AD0814960312068884235D07F497D
:1015200078312068884230D07C49903120688842E8
:101530002BD07A49A8312068884226D07849206883
:10154000884222D076491831206888421DD07449DB
:1015500030312068884218D071494831206888426B
:1015600013D06F496031206888420ED06C497831C1
:101570002068884209D06A4990312068884204D0A6
:101580006749A8312068884206D12068006820F0A9
:1015900001002168086005E02068006820F0010073
:1015A0002168086011E001F0D3FDA0EB08000528D8
:1015B0000BD920206065032084F8350000BF00208F
:1015C00084F8340000BF01209CE6286800F0010088
:1015D0000028E8D151492068884249D04F49183144
:1015E0002068884244D04D493031206888423FD03D
:1015F0004A494831206888423AD0484960312068D9
:10160000884235D0454978312068884230D04349F6
:101610009031206888422BD04049A8312068884208
:1016200026D03F492068884222D03D4918312068A1
:1016300088421DD03A4930312068884218D0384954
:1016400048312068884213D035496031206888428B
:101650000ED0334978312068884209D03049903122
:101660002068884204D02E49A8312068884201D1E0
:10167000012000E0002040B1A66D94F85C0000F06D
:101680001F013F208840B06007E0A76D94F85C0020
:1016900000F01F01012088407860204920688842BE
:1016A00076D01E4918312068884271D01B493031EC
:1016B000206888426CD0194948312068884267D038
:1016C000164960312068884262D014497831206818
:1016D00088425DD0114990312068884258D00F4926
:1016E000A8312068884253D00D49206888424FD0E5
:1016F0000B491831206888424AD0094930312068A6
:10170000884245D0064948312068884240D0044983
:101710006031206888423BD0014905E0100002405A
:1017200010040240085402587831206888422FD0B3
:101730002549206888422BD02349183120688842E7
:1017400026D022492068884222D0204914312068BE
:1017500088421DD01D4928312068884218D01B4975
:101760003C312068884213D01849503120688842A3
:101770000ED0164964312068884209D01349783167
:101780002068884204D011498C312068884201D1F8
:10179000012000E0002068B1D4E919104860E06E33
:1017A00040B1E06E006820F48070E16E0860D4E91A
:1017B0001C104860012084F8350000BF002084F828
:1017C000340000BF00BF9DE5A00402400854025849
:1017D00070B504460CB9012070BD94F8350002289C
:1017E00003D0802060650120F6E7DC49206888424C
:1017F00049D0DA4918312068884244D0D74930317D
:10180000206888423FD0D5494831206888423AD084
:10181000D24960312068884235D0D049783120687B
:10182000884230D0CD499031206888422BD0CB49B6
:10183000A8312068884226D0C9492068884222D031
:10184000C7491831206888421DD0C5493031206809
:10185000884218D0C24948312068884213D0C04914
:101860006031206888420ED0BD49783120688842B6
:1018700009D0BB4990312068884204D0B849A831CA
:101880002068884201D1012000E00020F0B304204C
:1018900084F83500B149206888424BD0AF491831EF
:1018A0002068884246D0AD4930312068884241D016
:1018B000AA494831206888423CD0A8496031206854
:1018C000884237D0A54978312068884232D0A34970
:1018D0009031206888422DD0A049A83120688842E4
:1018E00028D09F492068884224D09D49183120681B
:1018F00088421FD09A493031206888421AD09849CE
:1019000048312068884215D0954900E020E06031D8
:10191000206888420ED0924978312068884209D0E8
:101920008F4990312068884204D08D49A8312068C1
:10193000884206D12068006820F001002168086014
:1019400009E12068006820F001002168086002E1D8
:101950002068006820F00E00216808607F49206838
:10196000884249D07D4918312068884244D07B495B
:101970003031206888423FD0784948312068884219
:101980003AD0764960312068884235D07349783141
:101990002068884230D071499031206888422BD02D
:1019A0006E49A8312068884226D06D492068884257
:1019B00022D06B491831206888421DD068493031E7
:1019C0002068884218D0664948312068884213D080
:1019D00063496031206888420ED0614978312068BF
:1019E000884209D05E4990312068884204D05C4921
:1019F000A8312068884206D12068006820F00100E4
:101A00002168086005E02068006820F00100216876
:101A1000086052492068884270D0504918312068C7
:101A200088426BD04D4930312068884266D04B499E
:101A300048312068884261D0484960312068884236
:101A40005CD0464978312068884257D0434990316C
:101A50002068884252D04149A831206888424DD040
:101A60003F492068884249D03D4918312068884262
:101A700044D03B493031206888423FD03849483112
:101A8000206888423AD0364960312068884235D093
:101A9000334978312068884230D03149903120680C
:101AA00088422BD02E49A8312068884226D02D4963
:101AB0002068884222D02B491431206888421DD0EA
:101AC000284928312068884218D026493C312068AE
:101AD000884213D023495031206888420ED02149D2
:101AE00064312068884209D01E49783120688842D4
:101AF00004D01C498C312068884201D1012000E0CB
:101B00000020D8B1206E006820F48070216E08603B
:101B1000A56D94F85C0000F01F010120884068600A
:101B2000D4E919104860E06E40B1E06E006820F41E
:101B30008070E16E0860D4E91C104860012084F8D0
:101B4000350000BF002084F8340000BF206D10B1C4
:101B50002046216D884700203EE60000100002402C
:101B600010040240085402582DE9F84F04460020A2
:101B70000090FE4800684FF41651B0FBF1FAA66DD4
:101B8000D4F858803768D8F80090F949206888421E
:101B900049D0F74918312068884244D0F44930319F
:101BA000206888423FD0F2494831206888423AD0C4
:101BB000EF4960312068884235D0ED49783120689E
:101BC000884230D0EA499031206888422BD0E849D9
:101BD000A8312068884226D0E6492068884222D071
:101BE000E4491831206888421DD0E249303120682C
:101BF000884218D0DF4948312068884213D0DD4937
:101C00006031206888420ED0DA49783120688842F5
:101C100009D0D84990312068884204D0D549A831EC
:101C20002068884201D1012000E0002000287DD0FA
:101C300094F85C0000F01F0108208840384000281C
:101C400068D0CB492068884249D0C94918312068FA
:101C5000884244D0C6493031206888423FD0C449C8
:101C60004831206888423AD0C149603120688842B2
:101C700035D0BF4978312068884230D0BC49903196
:101C8000206888422BD0BA49A8312068884226D0E3
:101C9000B8492068884222D0B64918312068884265
:101CA0001DD0B44930312068884218D0B14948313C
:101CB0002068884213D0AF496031206888420ED036
:101CC000AC4978312068884209D0AA49903120680F
:101CD000884204D0A749A8312068884204D12068EE
:101CE000006800F0040003E02068006800F00800CD
:101CF00080B12068006820F004002168086094F832
:101D00005C0000F01F0108208840B060606D40F06A
:101D10000100606594F85C0000F01F01012088401C
:101D20003840E8B392492068884200E0B7E24BD0DF
:101D30008F4918312068884246D08D49303120685B
:101D4000884241D08A494831206888423CD088493D
:101D500060312068884237D08549783120688842D0
:101D600032D083499031206888422DD08049A831F3
:101D70002068884228D07F492068884224D07D4945
:101D80001831206888421FD07A4930312068884253
:101D90001AD0784948312068884215D0754900E04A
:101DA00026E06031206888420ED072497831206880
:101DB000884209D06F4990312068884204D06D492B
:101DC000A8312068884204D12068406900F0800072
:101DD00002E020680068002050B194F85C0000F038
:101DE0001F0101208840B060606D40F00200606516
:101DF00094F85C0000F01F01042088403840E8B3EC
:101E00005B49206888424BD0594918312068884284
:101E100046D0574930312068884241D05449483132
:101E2000206888423CD0524960312068884237D0CF
:101E30004F4978312068884232D04D49903120682E
:101E400088422DD04A49A8312068884228D0494983
:101E50002068884224D047491831206888421FD022
:101E600044493031206888421AD0424948312068BC
:101E7000884215D03F496031206800E024E0884264
:101E80000ED03C4978312068884209D039499031D8
:101E90002068884204D03749A8312068884204D19C
:101EA0002068006800F0020002E02068006800205E
:101EB00050B194F85C0000F01F0104208840B0602D
:101EC000606D40F00400606594F85C0000F01F0154
:101ED000102088403840E8B325492068884251D016
:101EE00023491831206888424CD02149303120687C
:101EF000884247D01E4948312068884242D01C4958
:101F00006031206888423DD0194978312068884284
:101F100038D0174990312068884233D01449A8310D
:101F2000206888422ED01349206888422AD011495F
:101F300018312068884225D00E4930312068884207
:101F400020D00C494831206888421BD009496031B3
:101F5000206800E04DE0884214D0064978312068BE
:101F600088420FD003499031206805E054000024D6
:101F70001000024010040240884203D0FE4920684D
:101F8000884204D12068006800F0080003E020685F
:101F9000006800F0040060B394F85C0000F01F01DA
:101FA00010208840B0602068006800F4802080B174
:101FB0002068006800F4002028B9206CC8B12046D1
:101FC000216C884715E0A06C98B12046A16C884729
:101FD0000FE02068006800F4807028B9206800686D
:101FE00020F0080021680860206C10B12046216CA8
:101FF000884794F85C0000F01F012020884038409A
:1020000000287DD0DD492068884249D0DB4918315D
:102010002068884244D0D9493031206888423FD076
:10202000D6494831206888423AD0D4496031206886
:10203000884235D0D14978312068884230D0CF49A4
:102040009031206888422BD0CC49A8312068884242
:1020500026D0C949A8392068884221D0C64990397C
:10206000206888421CD0C44978392068884217D03B
:10207000C14960392068884212D0BF494839206878
:1020800088420DD0BC4930392068884208D0BA490E
:1020900018392068884203D0B7492068884204D1A3
:1020A0002068006800F0100003E02068006800F07D
:1020B000020028B394F85C0000F01F012020884043
:1020C000B06094F8350004282DD12068006820F015
:1020D0001600216808602068406920F080002168AF
:1020E0004861206C08B9A06C28B12068006820F015
:1020F00008002168086094F85C0000F01F0100E00F
:102100003FE03F208840B060012084F8350000BFE8
:10211000002084F8340000BF206D10B12046216DEE
:102120008847BDE8F88F2068006800F4802080B1FF
:102130002068006800F4002028B9606C08B32046CD
:10214000616C88471DE0E06BD8B12046E16B8847A1
:1021500017E02068006800F4807068B920680068A3
:1021600020F0100021680860012084F8350000BFCD
:10217000002084F8340000BFE06B10B12046E16B12
:102180008847606D00287AD0606D00F00100E8B3E8
:10219000042084F835007949206888424BD077497B
:1021A00018312068884246D074493031206888420E
:1021B00041D072494831206888423CD06F49603133
:1021C0002068884237D06D4978312068884232D003
:1021D0006A499031206888422DD06849A83120682A
:1021E000884228D06449A8392068884223D06249AF
:1021F0009039206888421ED05F497839206888422B
:1022000019D05D4960392068884200E040E012D072
:1022100059494839206888420DD0574930392068DB
:10222000884208D0544918392068884203D052495E
:102230002068884206D12068006820F001002168EB
:10224000086005E02068006820F00100216808604F
:1022500000BF0098401C0090504500D905E0206860
:10226000006800F001000028F3D100BF206800687A
:1022700000F0010020B1032084F8350003E00DE0F8
:10228000012084F8350000BF002084F8340000BF2E
:10229000E06C002802D02046E16C8847D9E138493B
:1022A0002068884222D036491431206888421DD0E7
:1022B000334928312068884218D031493C312068A0
:1022C000884213D02E495031206888420ED02C49C4
:1022D00064312068884209D02949783120688842D1
:1022E00004D027498C312068884201D1012000E0C8
:1022F00000200028D2D02068056894F85C0000F027
:102300001F010420884000EA0900D8B305F004004A
:10231000C0B394F85C0000F01F0104208840C8F8A6
:10232000040005F4004080B105F4803030B9A06CA1
:102330000028B3D02046A16C88478AE1206C002891
:10234000ACD02046216C884783E105F02000E8BB33
:102350000A492068884253D00849183120688842C9
:102360004ED0064930312068884249D0034948316F
:102370002068884244D006E0B804024010000240C1
:10238000085402584FE0B44960312068884237D081
:10239000B14978312068884232D0AF499031206805
:1023A00088422DD0AC49A8312068884228D0AB495A
:1023B0002068884224D0A9491831206888421FD05B
:1023C000A6493031206888421AD000E025E0A349B0
:1023D00048312068884213D0A04960312068884283
:1023E0000ED09E4978312068884209D09B499031AF
:1023F0002068884204D09949A8312068884206D1D3
:102400002068006820F008002168086005E0206866
:10241000006820F0040021680860206C10B320469A
:10242000216C884715E194F85C0000F01F01022040
:10243000884000EA0900E8B305F00200D0B394F840
:102440005C0000F01F0102208840C8F8040005F479
:10245000004070B105F4803028B9606C10B120469E
:10246000616C8847F5E0E06BF0B32046E16B88478C
:10247000EFE005F02000C0BB7749206888424ED0CD
:10248000754918312068884249D073493031206835
:10249000884244D070494831206888423FD06E4914
:1024A0006031206888423AD06B4978312068884290
:1024B00035D000E04EE068499031206888422ED047
:1024C0006549A8312068884229D06449206888423B
:1024D00025D0624918312068884220D05F493031C8
:1024E000206888421BD001E06EE02DE05B49483156
:1024F0002068884213D059496031206888420ED044
:10250000564978312068884209D054499031206872
:10251000884204D05149A8312068884206D12068F9
:10252000006820F014002168086005E02068006859
:1025300020F00A0021680860012084F8350000BFFF
:10254000002084F8340000BFE06BE8B32046E16B64
:1025500088477EE094F85C0000F01F010820884066
:1025600000EA090080B305F0080068B33A49206822
:1025700088424BD0384918312068884246D03649C5
:1025800030312068884241D0334948312068884240
:102590003CD0314960312068884237D02E497831AB
:1025A0002068884232D02C499031206888422DD052
:1025B0002949A8312068884228D0284920688842C3
:1025C00024D02649183100E043E0206888421DD01D
:1025D000224930312068884218D02049483120688B
:1025E000884213D01D496031206888420ED01B49B3
:1025F00078312068884209D0184990312068884293
:1026000004D01649A8312068884206D120680068A5
:1026100020F01C002168086005E02068006820F0B8
:102620000E002168086094F85C0000F01F01012092
:102630008840C8F804000120606584F8350000BFB8
:10264000002084F8340000BFE06C10B12046E16C3B
:10265000884700BF65E500001000024010040240FA
:102660002DE9F041044600F073FD804614B90120C5
:10267000BDE8F081FE492068884249D0FC49183104
:102680002068884244D0FA493031206888423FD0DF
:10269000F7494831206888423AD0F54960312068CE
:1026A000884235D0F24978312068884230D0F049EC
:1026B0009031206888422BD0ED49A83120688842AB
:1026C00026D0EC492068884222D0EA491831206897
:1026D00088421DD0E74930312068884218D0E5494A
:1026E00048312068884213D0E2496031206888422E
:1026F0000ED0E04978312068884209D0DD49903118
:102700002068884204D0DB49A8312068884201D182
:10271000012000E00020002873D0606A00B100BFF3
:10272000022084F8350000BF002084F8340000BF88
:10273000CF492068884249D0CD4918312068884265
:1027400044D0CB493031206888423FD0C849483115
:10275000206888423AD0C64960312068884235D026
:10276000C34978312068884230D0C149903120680F
:1027700088422BD0BE49A8312068884226D0BD4966
:102780002068884222D0BB491831206888421DD079
:10279000B84930312068884218D0B649483120689D
:1027A000884213D0B3496031206888420ED0B149C5
:1027B00078312068884209D0AE499031206888423B
:1027C00004D0AC49A8312068884206D1206800684E
:1027D00020F001002168086005E02068006820F012
:1027E0000100216808600DE000F0B2FCA0EB0800D9
:1027F000052807D920206065032084F835000120D2
:1028000036E769E02068006800F001000028EBD19D
:102810002068056898480540D4E902010843216909
:10282000084361690843A1690843E1690843216AD3
:1028300008430543606A042803D1D4E90B01084327
:1028400005436068292802D360682E2817D960687C
:102850003F2802D36068422811D96068472802D314
:10286000606848280BD960684F2802D360685228F6
:1028700005D96068742804D36068772801D80120DE
:1028800000E0002008B145F480152068056020684C
:10289000456925F00705606A0543606A04280DD183
:1028A000A06A0543E06A48B12046FEF759FB28B10B
:1028B00040206065012084F83500D9E62068456134
:1028C0002046FEF729FA064694F85C0000F01F0146
:1028D0003F208840B0609EE068492068884222D04E
:1028E00066491431206888421DD064492831206827
:1028F000884218D061493C312068884213D05F4932
:102900005031206888420ED05C496431206888428A
:1029100009D05A4978312068884204D057498C310F
:102920002068884201D1012000E00020E0B3534933
:102930002068884222D051491431206888421DD035
:102940004E4928312068884218D04C493C312068D3
:10295000884213D049495031206888420ED04749F7
:1029600064312068884209D044497831206888421F
:1029700004D042498C312068884201D1012000E016
:10298000002000B100BF022084F8350000BF002005
:1029900084F8340000BF2068056839480540A06805
:1029A000402802D1102106E02EE0A068802801D145
:1029B000C10100E00021E06841EAD001206941EA5C
:1029C000D001606941EAD001A06941EAD001E06923
:1029D00041EAD001206A41EA1010054320680560F1
:1029E00026492068401A1421B0FBF1F08000E06510
:1029F0002046FEF791F9074694F85C0000F01F01AD
:102A000001208840786006E040206065032084F85B
:102A1000350001202CE61649206888427AD01449F6
:102A200018312068884275D01149303120688842B9
:102A300070D00F494831206888426BD00C49603112
:102A40002068884266D00A4978312068884261D07F
:102A500007499031206888425CD00549A831206838
:102A6000884257D003492068884253D0014909E081
:102A700010000240100402403F8010FE085402582B
:102A80000F00FEFF18312068884243D03749206884
:102A900088423FD035491831206888423AD03349BE
:102AA00030312068884235D030494831206888422A
:102AB00030D02E496031206888422BD02B497831A4
:102AC0002068884226D02A492068884222D0284996
:102AD0001431206888421DD0254928312068884259
:102AE00018D023493C312068884213D02049503106
:102AF000206888420ED01E4964312068884209D07F
:102B00001B4978312068884204D019498C312068EB
:102B1000884201D1012000E0002000B32046FEF7EA
:102B200071F9A068802801D1002060602079216EB1
:102B30000860D4E919104860606860B160680828CE
:102B400009D82046FEF7C0F90020E16E0860D4E9FC
:102B50001C10486003E00020E066206760670020EA
:102B60006065012084F83500002081E540040240C2
:102B7000085402582DE9F04104460D4616461F46FA
:102B80004FF0000814B90120BDE8F08100BF94F8AF
:102B90003400012801D10220F6E7012084F8340036
:102BA00000BF94F8350001287ED1022084F835005A
:102BB00000206065E4492068884249D0E249183124
:102BC0002068884244D0E0493031206888423FD0B4
:102BD000DD494831206888423AD0DB4960312068BD
:102BE000884235D0D84978312068884230D0D649DB
:102BF0009031206888422BD0D349A8312068884280
:102C000026D0D2492068884222D0D0491831206885
:102C100088421DD0CD4930312068884218D0CB4938
:102C200048312068884213D0C84960312068884202
:102C30000ED0C64978312068884209D0C349903106
:102C40002068884204D0C149A8312068884206D152
:102C50002068006820F001002168086005E0206815
:102C6000006820F00100216808603B463246294692
:102C70002046FEF7CDF9B449206888424BD0B249CE
:102C800018312068884246D0AF49303120688842E8
:102C900041D0AD494831206888423CD0AA496031D2
:102CA0002068884237D000E042E1A74978312068A7
:102CB000884230D0A4499031206888422BD0A24964
:102CC000A8312068884226D0A0492068884222D0B6
:102CD0009E491831206888421DD09C4930312068B7
:102CE000884218D0994948312068884213D09749C2
:102CF0006031206888420ED094497831206888423B
:102D000009D0924990312068884204D08F49A83177
:102D10002068884201D1012000E0002080B12068B5
:102D2000006820F01E0040F0160021680860206C4A
:102D3000B0B12068006840F00800216808600FE02A
:102D40002068006820F00E0040F00A00216808604A
:102D5000206C28B12068006840F0040021680860F9
:102D600079492068884270D07749183120688842B4
:102D70006BD0754930312068884266D0724948313D
:102D80002068884261D070496031206888425CD0F8
:102D90006D4978312068884257D06B49903120685E
:102DA000884252D06849A831206888424DD067498E
:102DB0002068884249D0654918312068884244D04B
:102DC00062493031206888423FD0604948312068EC
:102DD00088423AD05D4960312068884235D05B49ED
:102DE00078312068884230D0584990312068884234
:102DF0002BD05649A8312068884226D054492068F3
:102E0000884222D052491431206888421DD050494E
:102E100028312068884218D04D493C3120688842CA
:102E200013D04B495031206888420ED04849643154
:102E30002068884209D0464978312068884204D009
:102E400043498C312068884201D1012000E00020F4
:102E500090B1206E006800F4803028B1206E0068C8
:102E600040F48070216E0860E06E28B1E06E00686A
:102E700040F48070E16E086033492068884249D090
:102E8000314918312068884244D02F4930312068B8
:102E900088423FD02C494831206888423AD02A499C
:102EA00060312068884235D02749783120688842CF
:102EB00030D025499031206888422BD02249A83152
:102EC0002068884226D021492068884222D01F49A4
:102ED0001831206888421DD01C4930312068884252
:102EE00018D01A4948312068884213D017496031F8
:102EF000206888420ED0154978312068884209D070
:102F0000124990312068884204D01049A8312068C5
:102F1000884206D12068006840F0010021680860FE
:102F200010E02068006840F001002168086009E0B6
:102F30004FF40060606500BF002084F8340000BFDB
:102F40004FF0010840461FE6100002401004024006
:102F500008540258F8B502460B4600216D4DD2E0E8
:102F600001278F401E6806EA0704002C72D01E79E4
:102F700006F00306012E04D01E7906F00306022E89
:102F800013D190684F000326BE40B0434F00DE6867
:102F9000BE4030439060506801268E40B0431E7999
:102FA000C6F300168E40304350601E7906F00306CB
:102FB000032E09D0D0684F000326BE40B0434F0017
:102FC0009E68BE403043D0601E7906F00306022E94
:102FD00013D1CF0802F1200656F827004E07F70E4E
:102FE0000F26BE40B0434F07FF0E1E69BE40304360
:102FF000CF0802F1200646F8270010684F0003268C
:10300000BE40B0431E7906F003064F00BE40304379
:1030100010605E6806F44036002E73D000BF3E4E4E
:10302000366846F002063C4F3E603E46366806F083
:103030000206009600BF00BF384E8F0856F82700E2
:103040008E07370F0F26BE40B043354EB24202D135
:10305000002629E056E0334EB24201D1012623E09A
:10306000314EB24201D102261EE0304EB24201D1B1
:10307000032619E02E4EB24201D1042614E02D4E53
:10308000B24201D105260FE02B4EB24201D10626F5
:103090000AE02A4EB24201D1072605E0284EB2428C
:1030A00001D1092600E00A268F073F0FBE403043BA
:1030B0001A4E8F0846F827004FF0B0463068A043FC
:1030C0005E6806F4801606B120434FF0B0463060CB
:1030D0007068A0435E6806F4001606B120434FF006
:1030E000B04670606868A0435E6806F4003606B1BA
:1030F000204368602868A0435E6806F4803606B105
:1031000020432860491C1E68CE40002E7FF428AF63
:10311000F8BD000080000058F4440258080400582C
:10312000000002580004025800080258000C02581F
:10313000001002580014025800180258001C0258CF
:10314000002402580AB1816101E00B0483617047D9
:1031500001480068704700004800002403480068E8
:103160000349097808440149086070474800002471
:103170005000002410B5032000F0E0F801F0D8FB67
:1031800010490968C1F303210F4A515C01F01F0186
:1031900020FA01F40B48006800F00F001146085CAB
:1031A00000F01F0024FA00F0084908600848046095
:1031B0000F2000F00FF808B1012010BD00F054F806
:1031C0000020FAE718440258A8DA00085800002442
:1031D0005400002470B58AB00446102C0AD2002294
:1031E0002146192000F06CF8192000F055F8194814
:1031F000046002E001200AB070BD00BF16480068FC
:1032000040F00100144908600846006800F0010021
:10321000009000BF00BF01A902A801F009FB01F066
:1032200075FB45000D48B5FBF0F0461E0C480D49F6
:10323000086040F2E7310B48C1604660002101613F
:10324000816002F0AFF818B9064802F0F9F8D2E749
:103250000120D0E74C000024F044025840420F0007
:10326000000001400806002408B500BF09480068B6
:1032700040F00200074908600846006800F00200BC
:10328000009000BF00BF00220F21901E00F018F830
:1032900008BD0000F44402580146084600280DDB32
:1032A00000BF00BF00F01F0301229A4043099B00AA
:1032B00003F1E023C3F8002100BF00BF00BF704747
:1032C0002DE9F05F80460D46164608F0ADF9074639
:1032D00039462A46334601F00700C0F1070ABAF121
:1032E000040F02D94FF0040A01E0C0F1070AD146E9
:1032F00000F1040ABAF1070F02D24FF0000A01E010
:10330000A0F1030AD4464FF0010A0AFA09FAAAF119
:10331000010A0AEA020A0AFA0CFA4FF0010B0BFA48
:103320000CFBABF1010B0BEA030B4AEA0B04214641
:10333000404608F081F9BDE8F09F000000BF00F0B2
:103340000702064B19684FF6FF031940044B0B4365
:1033500043EA0221014B196000BF70470CED00E009
:103360000000FA0570B5044615480068C0F38000F7
:1033700048B91348006800F00700A04201D00120BE
:1033800070BD0020FCE70E48006820F007002043D5
:103390000B490860FFF7DCFE054607E0FFF7D8FEA3
:1033A000401BB0F57A7F01D90120E9E704480838CD
:1033B0000068C0F340300028F0D00020E0E70000B3
:1033C0000C48025810B501F069FA05490968C1F3C3
:1033D0000211044A515C01F01F01C84010BD0000F9
:1033E00020440258A8DA000870B50146844D2D68C3
:1033F00005F00303824D2D68C5F30530804D2D1D6A
:103400002D68C5F300147E4D14352D68C5F3CC0529
:1034100015FB04F501EE105AB8EE411AF0EE410A20
:1034200000286FD023B1012B4ED0022B6BD16BE063
:10343000734D283D2D68C5F340153DB3704D283DB3
:103440002D68C5F3C1066F4D25FA06F201EE102A6C
:10345000F8EE411A01EE100AB8EE411A81EE812A07
:103460009FED691AC0EE811A654D10352D68C5F3C0
:10347000080501EE105AB8EE411A31EE811AF7EE46
:10348000001A31EE211A22EE010A1CE001EE100AA8
:10349000B8EE411ADFED5D1A81EE812A9FED5A1ACE
:1034A000C0EE811A564D10352D68C5F3080501EEA2
:1034B000105AB8EE411A31EE811AF7EE001A31EEC9
:1034C000211A22EE010A5BE001EE100AB8EE411A61
:1034D000DFED4F1A81EE812A9FED4B1AC0EE811A63
:1034E000474D10352D68C5F3080501EE105AB8EEAA
:1034F000411A31EE811AF7EE001A31EE211A22EE4E
:10350000010A3DE077E01DE001EE100AB8EE411A35
:103510009FED402AC2EE011A9FED3B1A80EE812AF0
:10352000374D10352D68C5F3080501EE105AB8EE79
:10353000411A32EE011AB7EE002A31EE021A21EEDC
:10354000810A1DE001EE100AB8EE411ADFED301AD3
:1035500081EE812A9FED2C1AC0EE811A284D10357C
:103560002D68C5F3080501EE105AB8EE411A31EE88
:10357000811AF7EE001A31EE211A22EE010A00BF7D
:1035800000BF1F4D10352D68C5F3462501EE105ABA
:10359000B8EE411AF7EE001A31EE211AC0EE011A08
:1035A000BCEEE11A81ED001A154D10352D68C5F3FA
:1035B000064501EE105AB8EE411AF7EE001A31EE48
:1035C000211AC0EE011ABCEEE11A81ED011A0C4D70
:1035D00010352D68C5F3066501EE105AB8EE411A94
:1035E000F7EE001A31EE211AC0EE011ABCEEE11A14
:1035F00081ED021A03E000250D604D608D6070BD05
:10360000284402580090D003000000460024744C67
:103610000024744A20BCBE4B70B50146844D2D6811
:1036200005F00303824D2D68C5F30550804D2D1D17
:103630002D68C5F300247E4D1C352D68C5F3CC05DF
:1036400015FB04F501EE105AB8EE411AF0EE410AEE
:1036500000286FD023B1012B4ED0022B6BD16BE031
:10366000734D283D2D68C5F340153DB3704D283D81
:103670002D68C5F3C1066F4D25FA06F201EE102A3A
:10368000F8EE411A01EE100AB8EE411A81EE812AD5
:103690009FED691AC0EE811A654D18352D68C5F386
:1036A000080501EE105AB8EE411A31EE811AF7EE14
:1036B000001A31EE211A22EE010A1CE001EE100A76
:1036C000B8EE411ADFED5D1A81EE812A9FED5A1A9C
:1036D000C0EE811A564D18352D68C5F3080501EE68
:1036E000105AB8EE411A31EE811AF7EE001A31EE97
:1036F000211A22EE010A5BE001EE100AB8EE411A2F
:10370000DFED4F1A81EE812A9FED4B1AC0EE811A30
:10371000474D18352D68C5F3080501EE105AB8EE6F
:10372000411A31EE811AF7EE001A31EE211A22EE1B
:10373000010A3DE077E01DE001EE100AB8EE411A03
:103740009FED402AC2EE011A9FED3B1A80EE812ABE
:10375000374D18352D68C5F3080501EE105AB8EE3F
:10376000411A32EE011AB7EE002A31EE021A21EEAA
:10377000810A1DE001EE100AB8EE411ADFED301AA1
:1037800081EE812A9FED2C1AC0EE811A284D183542
:103790002D68C5F3080501EE105AB8EE411A31EE56
:1037A000811AF7EE001A31EE211A22EE010A00BF4B
:1037B00000BF1F4D18352D68C5F3462501EE105A80
:1037C000B8EE411AF7EE001A31EE211AC0EE011AD6
:1037D000BCEEE11A81ED001A154D18352D68C5F3C0
:1037E000064501EE105AB8EE411AF7EE001A31EE16
:1037F000211AC0EE011ABCEEE11A81ED011A0C4D3E
:1038000018352D68C5F3066501EE105AB8EE411A59
:10381000F7EE001A31EE211AC0EE011ABCEEE11AE1
:1038200081ED021A03E000250D604D608D6070BDD2
:10383000284402580090D003000000460024744C35
:103840000024744A20BCBE4B2DE9F04104460025FB
:10385000A8464FF00062D4E9001011400020134642
:1038600059404040014331D1606E48B1B0F5801FEE
:103870000DD0B0F5001F11D0B0F5401F16D114E0E7
:10388000FE48006840F40030FC49086010E0022166
:1038900004F1080003F07AFB054609E0022104F177
:1038A000280003F025FC054602E001E0012500BFE9
:1038B00000BF55B9F1482430006820F44010616E13
:1038C0000843EE492431086000E0A8464FF48072B6
:1038D000D4E90010114000201346594040400143F4
:1038E0002ED1A06D05281BD2DFE800F0030A1118C5
:1038F0001900E248006840F40030E049086011E037
:10390000002104F1080003F041FB05460AE0002114
:1039100004F1280003F0ECFB054603E002E001E0BF
:10392000012500BF00BF55B9D4482430006820F0FD
:103930000700A16D0843D1492431086000E0A84682
:103940004FF48062D4E90010114000201346594022
:10395000404001433DD1D4F8A400B0F5C00F24D0BD
:1039600007DC68B1B0F5001F11D0B0F5800F1FD192
:1039700014E0B0F5000F19D0B0F5200F18D116E003
:10398000BE48006840F40030BC49086012E00021E5
:1039900004F1080003F0FAFA05460BE0002104F1F7
:1039A000280003F0A5FB054604E003E002E001E087
:1039B000012500BF00BF5DB9B0482C30006820F47D
:1039C0006000D4F8A4100843AC492C31086000E032
:1039D000A8464FF40062D4E90001104000211346CC
:1039E0005840494008433DD1D4F8A800B0F1407F89
:1039F00024D007DC68B1B0F1807F11D0B0F1007F36
:103A00001FD114E0B0F1806F19D0B0F1A06F18D1C0
:103A100016E09A48006840F400309849086012E0C7
:103A2000002104F1080003F0B1FA05460BE0002183
:103A300004F1280003F05CFB054604E003E002E02B
:103A400001E0012500BF00BF5DB98C482C30006843
:103A500020F0E060D4F8A810084388492C310860B1
:103A600000E0A8464FF00073D4E900101940002090
:103A700059404040014328D1E06CA8B1102804D03F
:103A8000202809D0302810D10DE07C48006840F48F
:103A900000307A4908600AE0022104F1080003F0CE
:103AA00075FA054603E002E001E0012500BF00BF12
:103AB00055B972482030006820F03000E16C0843AE
:103AC0006E492031086000E0A8464FF48053D4E9E5
:103AD00000101940002059404040014337D1E06DAB
:103AE000B0F5005F1AD004DC50B1B0F5805F1ED194
:103AF0000DE0B0F5405F18D0B0F5804F17D115E05C
:103B00005E48006840F400305C49086011E0002124
:103B100004F1080003F03AFA05460AE0002104F136
:103B2000280003F0E5FA054603E002E001E0012584
:103B300000BF00BF55B951482430006820F4E04070
:103B4000E16D08434D492431086000E0A8464FF478
:103B50000053D4E90010194000205940404001436F
:103B600035D1206EB0F5403F1ED007DC68B1B0F50E
:103B7000803F0BD0B0F5003F19D10EE0B0F5802F9B
:103B800013D0B0F5A02F12D110E012E0012104F102
:103B9000080003F0FBF905460BE0012104F12800C1
:103BA00003F0A6FA054604E003E002E001E0012587
:103BB00000BF00BF55B931482430006820F4E02030
:103BC000216E08432D492431086000E0A8464FF4D7
:103BD0008042D4E90001104000211346584049407A
:103BE000084337D1D4F8AC00B0F1405F1ED007DCF9
:103BF00068B1B0F1805F0BD0B0F1005F19D10EE079
:103C0000B0F1804F13D0B0F1A04F12D110E012E00C
:103C1000012104F1080003F0B9F905460BE0012188
:103C200004F1280003F064FA054604E003E002E032
:103C300001E0012500BF00BF5DB910482C300068CD
:103C400020F0E040D4F8AC1008430C492C31086057
:103C500000E0A8464FF40043D4E9000118400021D9
:103C60005840494008432AD1E06EB8B1B0F1805FB6
:103C700006D0B0F1005F12D109E000002C440258D8
:103C8000F948006840F40030F749086009E0012174
:103C900004F1080003F07AF9054602E001E001258D
:103CA00000BF00BF55B9F0482430006820F04050F4
:103CB000E16E0843EC492431086000E0A8464FF06B
:103CC0008073D4E90010194000205940404001435E
:103CD00028D1A06CA8B1012804D0022809D003285B
:103CE00010D10DE0E048006840F40030DE49086083
:103CF0000AE0022104F1080003F048F9054603E058
:103D000002E001E0012500BF00BF55B9D6482030D0
:103D1000006820F00300A16C0843D34920310860FB
:103D200000E0A8464FF48003D4E9001019400020B9
:103D30005940404001437DD1CC48006840F4807038
:103D4000CA490860FFF704FA064606E0FFF700FAE2
:103D5000801B642801D9032505E0C448006800F4ED
:103D600080700028F2D000BF85BBBF484430006897
:103D700000F44070B4F8B01001F44071884213D0E0
:103D8000B9484430006820F44077B74844300068B0
:103D900040F48030B449443108600846006820F49B
:103DA0008030086008460760D4F8B000B0F5807F26
:103DB00015D1FFF7CDF9064609E0FFF7C9F9801BD9
:103DC00041F28831884202D9032507E038E0A6484D
:103DD00044300068C0F340000028EED000BF55BB5F
:103DE00000BFB4F8B00000F44070B0F5407F0ED1D1
:103DF0009D481C38006820F47C519D4AD4F8B000DE
:103E0000104041EA101098491C39086007E09648B4
:103E10001C38006820F47C5093491C390860924893
:103E200044300068B4F8B010C1F30B0108438E4968
:103E3000443101E005E001E0086002E0A84600E04E
:103E4000A8460122D4E90001104000211346584041
:103E50004940084330D1A06F18281AD005DC48B17A
:103E6000082808D0102817D10CE0202812D02828C4
:103E700012D110E012E0012104F1080003F086F8ED
:103E800005460BE0012104F1280003F031F9054655
:103E900004E003E002E001E0012500BF00BF55B9E6
:103EA00071482830006820F03800A16F08436E493F
:103EB0002831086000E0A8460223D4E90010194028
:103EC000002059404040014329D1606F062816D296
:103ED000DFE800F003040B12131412E0012104F1D7
:103EE000080003F053F805460BE0012104F1280017
:103EF00003F0FEF8054604E003E002E001E00125DE
:103F000000BF00BF55B958482830006820F00700AE
:103F1000616F084354492831086000E0A846042234
:103F2000D4E900101140002013465940404001439D
:103F30002BD1D4F89000062816D2DFE800F0030455
:103F40000B12131412E0012104F1080003F01EF813
:103F500005460BE0012104F1280003F0C9F80546ED
:103F600004E003E002E001E0012500BF00BF5DB90D
:103F70003D482C30006820F00700D4F8901008432A
:103F800039492C31086000E0A8462023D4E900011B
:103F90001840002158404940084337D1D4F88C00DC
:103FA000B0F1405F1ED007DC68B1B0F1805F0BD08C
:103FB000B0F1005F19D10EE0B0F1804F13D0B0F135
:103FC000A04F12D110E012E0002104F1080002F02D
:103FD000DDFF05460BE0022104F1280003F088F81C
:103FE000054604E003E002E001E0012500BF00BF58
:103FF0005DB91D482830006820F0E040D4F88C10EE
:10400000084319492831086000E0A8464023D4E954
:104010000010194000205940404001433CD1D4F8E1
:104020009800B0F5406F25D007DC68B1B0F5806F1F
:104030000BD0B0F5006F20D10EE0B0F5805F1AD044
:10404000B0F5A05F19D117E019E0002104F10800D4
:1040500002F09CFF054612E0022104F1280003F063
:1040600047F805460BE000002C440258004802586F
:10407000FFFCFF0F03E002E001E0012500BF00BFED
:104080004DB9FE48006820F4E050D4F89810084379
:10409000FA49086000E0A8468023D4E900101940DE
:1040A000002059404040014335D1D4F89C00B0F580
:1040B000C04F1ED007DC68B1B0F5005F0BD0B0F583
:1040C000804F19D10EE0B0F5004F13D0B0F5204F5E
:1040D00012D110E012E0002104F1080002F056FFB6
:1040E00005460BE0022104F1280003F001F8054623
:1040F00004E003E002E001E0012500BF00BF4DB98C
:10410000DE48006820F46040D4F89C100843DB4986
:10411000086000E0A8460823D4E900011840002107
:1041200058404940084317D1D4F88000B0F5805F6B
:1041300007D1022104F1280002F0DAFF08B14FF0A4
:104140000108CE48001F006820F44050D4F88010C9
:104150000843CA49091F08601023D4E90001184028
:10416000002158404940084315D1D4F89400B0F5D7
:10417000807F07D1022104F1280002F0B9FF08B1C5
:104180004FF00108BD48006820F44070D4F8941046
:104190000843BA4908604FF40023D4E900011840ED
:1041A000002158404940084327D1D4F8A00030B13D
:1041B000B0F5803F0AD0B0F5003F0FD10DE00021EF
:1041C00004F1080002F0E2FE054609E0022104F1D4
:1041D000280002F08DFF054602E001E0012500BF46
:1041E00000BF4DB9A548006820F44030D4F8A010B5
:1041F0000843A249086000E0A8464FF48023D4E9B0
:104200000001184000215840494008432DD1D4F8FE
:104210008400B0F5801F06D0B0F5001F0CD0B0F5BB
:10422000401F11D10FE095482C38006840F4003051
:1042300092492C39086009E0012104F1280002F0BC
:1042400057FF054602E001E0012500BF00BF5DB950
:104250008A48001F006820F44010D4F884100843F6
:104260008649091F086000E0A8464FF48032D4E96F
:10427000000110400021134658404940084325D111
:10428000206D18B1B0F5803F10D108E07B482C3884
:10429000006840F4003079492C39086008E00221B8
:1042A00004F1080002F072FE054601E0012500BF9E
:1042B00000BF55B971480C38006820F48030216D7A
:1042C00008436E490C39086000E0A8464FF00053DF
:1042D000D4E900101940002059404040014307D163
:1042E000022104F1280002F003FF08B14FF0010899
:1042F0004FF40032D4E90001104000211346584029
:104300004940084327D1E06FA0B1B0F5807F06D0C7
:10431000B0F5007F0CD0B0F5407F0CD109E05748D4
:104320002C38006840F4003054492C39086004E00F
:1043300003E002E001E0012500BF00BF55B94F488E
:10434000001F006820F44070E16F08434B49091FCB
:10435000086000E0A8464FF48012D4E90010114034
:104360000020134659404040014309D143480838D2
:10437000006820F00040216F084340490839086078
:104380004FF40013D4E9000118400021584049407F
:10439000084309D139480838006820F08070A16EC0
:1043A00008433649083908604FF08043D4E90010CB
:1043B0001940002059404040014311D100BF2F480F
:1043C0004838006820F400402C4948390860084605
:1043D0000068D4F8B410084328494839086000BF81
:1043E0004FF00042D4E9000110400021134658402C
:1043F0004940084309D121480C38006820F040505A
:10440000616D08431D490C3908604FF40002D4E97E
:1044100000101140002013465940404001430AD18A
:104420001648001F006820F44000D4F888100843A4
:104430001249091F086001220021606810404940AC
:104440005040014306D104F1080002F09FFD0546EB
:1044500005B1A84602220021606810404940504042
:10446000014307D1012104F1080002F08FFD054648
:1044700005B1A84604230020616801E058440258B1
:104480001940042240405140084307D1022104F161
:10449000080002F07BFD054605B1A8460823002070
:1044A00061681940082240405140084307D100216B
:1044B00004F1280002F01CFE054605B1A8461023B1
:1044C000002061681940102240405140084307D144
:1044D000012104F1280002F00BFE054605B1A846B3
:1044E000202200216068104049405040014307D11C
:1044F000022104F1280002F0FBFD054605B1A846A3
:10450000B8F1000F02D10020BDE8F0810120FBE7E7
:104510002DE9F04104460D4614B90120BDE8F081B3
:10452000BD48006800F00F00A8420ED2BA480068EB
:1045300020F00F002843B84908600846006800F0E2
:104540000F00A84201D00120E8E7207800F0040025
:1045500004280ED1B1492069096801F07001884230
:1045600007D9AE48006820F0700021690843AB49C4
:104570000860207800F00800082811D1A749091D1B
:104580006069096801F07001884209D9A348001DDB
:10459000006820F0700061690843A049091D0860A7
:1045A000207800F01000102811D19C49091DA06945
:1045B000096801F4E061884209D99848001D006843
:1045C00020F4E060A16908439449091D086020783F
:1045D00000F02000202811D190490831E0690968D5
:1045E00001F07001884209D98C480830006820F039
:1045F0007000E1690843894908310860207800F0BB
:10460000020002280ED18549E068096801F00F0117
:10461000884207D98148006820F00F00E16808430C
:104620007E490860207800F00100002850D07B48C7
:10463000006820F47060A1680843784908606068E9
:10464000022807D1754818380068C0F34040F8B90F
:10465000012063E76068032807D1704818380068B4
:10466000C0F34060A0B9012058E76068012807D175
:104670006A4818380068C0F3002048B901204DE7A7
:10468000664818380068C0F3800008B9012045E783
:1046900062480838006820F00700616808435F49F5
:1046A00008390860FEF754FD064608E0FEF750FDA5
:1046B000801B41F28831884201D903202EE75748F8
:1046C0000838006800F038006168B0EBC10FEDD128
:1046D000207800F0020002280ED15049E0680968F5
:1046E00001F00F01884207D24C48006820F00F000B
:1046F000E1680843494908604748006800F00F0036
:10470000A8420ED94448006820F00F0028434249CF
:1047100008600846006800F00F00A84201D00120A0
:10472000FCE6207800F0040004280ED13B49206903
:10473000096801F07001884207D23848006820F00B
:1047400070002169084335490860207800F00800AE
:10475000082811D13149091D6069096801F070010B
:10476000884209D22D48001D006820F07000616960
:1047700008432A49091D0860207800F0100010281D
:1047800011D12649091DA069096801F4E061884238
:1047900009D22248001D006820F4E060A1690843A6
:1047A0001E49091D0860207800F02000202811D142
:1047B0001A490831E069096801F07001884209D29C
:1047C00016480830006820F07000E169084313497A
:1047D0000831086000F0ACF810490968C1F3032102
:1047E0000F4A515C01F01F0120FA01F70B480068E5
:1047F00000F00F001146085C00F01F0027FA00F0DF
:10480000084908600848076008480068FEF7E2FCAD
:104810008046404682E600000020005218440258BC
:10482000A8DA000858000024540000244C0000249A
:104830003F220260174A126802F007024260154ADE
:104840000832126802F470628260124A08321268FA
:1048500002F00F02C2600F4A0832126802F07002C2
:1048600002610C4A0C32126802F070024261094A7D
:104870000C32126802F4E0628261064A1032126859
:1048800002F07002C261044A126802F00F020A606C
:1048900070470000104402580020005210B500F08C
:1048A00047F80D490968C1F303210C4A515C01F036
:1048B0001F0120FA01F40848006800F00F001146BB
:1048C000085C00F01F0024FA00F005490860054864
:1048D00004600846006810BD18440258A8DA0008B1
:1048E000580000245400002400B5FFF7D7FF054905
:1048F0000968C1F30211044A515C01F01F01C8406C
:1049000000BD00001C440258A8DA000800B5FFF7FB
:10491000C5FF05490968C1F30221044A515C01F051
:104920001F01C84000BD00001C440258A8DA00085E
:10493000F0B5824E366806F0380636B1082E15D02E
:10494000102E15D0182E7DD114E07C4E103E366806
:10495000C6F3401646B1794E103E3668C6F3C1071D
:10496000774E26FA07F000E07548E5E07548E3E089
:104970007548E1E0714E1836366806F003046F4E54
:1049800018363668C6F305116C4E1C36366806F0CC
:1049900001056A4E24363668C6F3CC0616FB05F6CA
:1049A00001EE106AB8EE410A002971D024B1012C41
:1049B00050D0022C6DD16DE0604E103E3668C6F3CB
:1049C00040163EB35D4E103E3668C6F3C1075C4EDE
:1049D00026FA07F301EE103AF8EE411A01EE101A2A
:1049E000B8EE411A81EE812A9FED581AC0EE011AE5
:1049F000524E20363668C6F3080601EE106AB8EE4D
:104A0000411A31EE811AF7EE001A31EE211A62EEE8
:104A1000010A1EE001EE101AB8EE411ADFED4C1A41
:104A200081EE812A9FED491AC0EE011A434E2036CD
:104A30003668C6F3080601EE106AB8EE411A31EE88
:104A4000811A00E076E0F7EE001A31EE211A62EEEC
:104A5000010A5BE001EE101AB8EE411A9FED3D2A03
:104A6000C2EE011A9FED391A80EE012A334E20362C
:104A70003668C6F3080601EE106AB8EE411A32EE47
:104A8000011AB7EE002A31EE021A61EE810A3DE00A
:104A90004EE01DE001EE101AB8EE411ADFED2E1ABD
:104AA00081EE812A9FED291AC0EE011A234E20368D
:104AB0003668C6F3080601EE106AB8EE411A31EE08
:104AC000811AF7EE001A31EE211A62EE010A1DE09A
:104AD00001EE101AB8EE411A9FED1E2AC2EE011A1D
:104AE0009FED1A1A80EE012A144E20363668C6F35E
:104AF000080601EE106AB8EE411A32EE011AB7EE5E
:104B0000002A31EE021A61EE810A00BF00BF0B4E8F
:104B100020363668C6F34626721C01EE102AB8EE1F
:104B2000411AC0EE811ABCEEE11A11EE100A00E043
:104B3000002001E0034800BF00BFF0BD1044025850
:104B40000090D00300093D0040787D010000004640
:104B50000024744C0024744A20BCBE4B2DE9F0475D
:104B6000044614B90120BDE8F087207800F0010068
:104B7000002870D0F948006800F03808F74818306D
:104B8000D0F80090B8F1100F06D0B8F1180F0FD17F
:104B900009F0030002280BD1F04810380068C0F378
:104BA000404000286AD06068002867D10120DAE719
:104BB00000BF6068B0F5803F08D1E8481038006851
:104BC00040F48030E549103908602EE0606868B92B
:104BD000E2481038006820F48030E049103908605D
:104BE0000846006820F4802008601EE06068B0F588
:104BF000A02F0DD1D9481038006840F48020D74943
:104C0000103908600846006840F4803008600CE005
:104C1000D2481038006820F48030D049103908603C
:104C20000846006820F48020086000BF606898B1E2
:104C3000FEF78EFA054606E0FEF78AFA401B642866
:104C400001D903208FE7C54810380068C0F3404001
:104C50000028F1D012E012E0FEF77AFA054606E0ED
:104C6000FEF776FA401B642801D903207BE7BB4896
:104C700010380068C0F340400028F1D100BF207810
:104C800000F00200022879D1B448006800F038082A
:104C9000B2481830D0F80090B8F1000F05D0B8F144
:104CA000180F35D109F0030088BBAC4810380068F4
:104CB000C0F3800018B1E06808B9012053E7A748A5
:104CC0001038006820F01900E1680843A349103942
:104CD0000860FEF73DFA054606E0FEF739FA401B8C
:104CE000022801D903203EE79C4810380068C0F331
:104CF00080000028F1D099480C38006820F0FE4070
:104D0000217C40EA016095490C39086045E0FFE7E5
:104D1000E06838B391481038006820F01900E16865
:104D200008438E4910390860FEF712FA054606E07E
:104D3000FEF70EFA401B022801D9032013E787482B
:104D400010380068C0F380000028F1D083480C3888
:104D5000006820F0FE40217C40EA01607F490C3968
:104D600008601AE07D481038006820F001007B4997
:104D700010390860FEF7ECF9054607E00EE0FEF793
:104D8000E7F9401B022801D90320ECE673481038EC
:104D90000068C0F380000028F1D100BF207800F047
:104DA000100010286FD16D48006800F038086B487B
:104DB0001830D0F80090B8F1080F06D0B8F1180FED
:104DC0001CD109F00300012818D16448103800688C
:104DD000C0F3002020B1E069802801D00120C2E6A4
:104DE00000BF5E48001F006820F07C5094F820103F
:104DF00040EA01605949091F086043E0E06938B39F
:104E000056481038006840F0800054491039086056
:104E1000FEF79EF9054606E0FEF79AF9401B0228C8
:104E200001D903209FE64D4810380068C0F30020E8
:104E30000028F1D000BF4948001F006820F07C50D6
:104E400094F8201040EA01604449091F086019E005
:104E500042481038006820F080004049103908604E
:104E6000FEF776F9054606E0FEF772F9401B0228C8
:104E700001D9032077E6394810380068C0F30020D4
:104E80000028F1D100BF207800F00800082836D1B2
:104E90006069D0B131486430006840F001002F49AA
:104EA00064310860FEF754F9054606E0FEF750F954
:104EB000401B022801D9032055E6284864300068C9
:104EC000C0F340000028F1D019E0244864300068A5
:104ED00020F00100214964310860FEF739F90546E8
:104EE00006E0FEF735F9401B022801D903203AE617
:104EF0001A4864300068C0F340000028F1D12078DF
:104F000000F02000202838D1A069D0B11348103813
:104F1000006840F48050114910390860FEF718F914
:104F2000054606E0FEF714F9401B022801D90320CC
:104F300019E60A4810380068C0F340300028F1D064
:104F40001BE006481038006820F4805003491039EF
:104F50000860FEF7FDF8054609E00000104402581D
:104F6000FEF7F6F8401B022801D90320FBE5D048E4
:104F70000068C0F340300028F2D1207800F004002F
:104F800004287DD1CB48006840F48070C94908608E
:104F9000FEF7DEF8054606E0FEF7DAF8401B642867
:104FA00001D90320DFE5C348006800F480700028C1
:104FB000F2D000BFA068012808D1BD487030006859
:104FC00040F00100BA49703108602DE0A06868B96E
:104FD000B7487030006820F00100B54970310860B2
:104FE0000846006820F0040008601DE0A06805285D
:104FF0000DD1AF487030006840F00400AC4970310A
:1050000008600846006840F0010008600CE0A8480D
:105010007030006820F00100A54970310860084632
:10502000006820F00400086000BFA068A0B1FEF78F
:105030008FF8054608E0FEF78BF8401B41F28831F7
:10504000884201D903208EE5994870300068C0F38A
:1050500040000028EFD013E0FEF77AF8054608E09C
:10506000FEF776F8401B41F28831884201D90320CF
:1050700079E58F4870300068C0F340000028EFD118
:10508000606A00287DD08A481030006800F038003F
:10509000182877D0606A022875D18548006820F00A
:1050A000807083490860FEF753F8054606E0FEF776
:1050B0004FF8401B022801D9032054E57C480068C2
:1050C000C0F340600028F2D100BFD4E90A1041EAE1
:1050D000001077492831096840F2F33291430843C0
:1050E000734928310860208E401EC0F30800616BB0
:1050F000491E4FF47E4202EA41210843218F491E96
:10510000D20102EA014108433C21095D491E120215
:1051100002EA0161084366493031086000BF081F98
:10512000006820F00100091F086061483430006801
:105130004FF6F8718843A16C40EAC1005C493431F4
:1051400008605B482C30006820F00C00216C08439C
:1051500057492C3108600846006820F00200616C55
:10516000084353492C3108600846006840F48030F9
:1051700008600846006840F400300860084600688F
:1051800002E092E038E01FE040F48020086008462A
:10519000006840F0010008604548006840F08070F9
:1051A00043490860FDF7D4FF054606E0FDF7D0FF50
:1051B000401B022801D90320D5E43D480068C0F314
:1051C00040600028F2D070E03948006820F080701C
:1051D00037490860FDF7BCFF054606E0FDF7B8FF5C
:1051E000401B022801D90320BDE431480068C0F308
:1051F00040600028F2D158E02D48283007682C483C
:1052000030300668606A012821D007F00301A06AE7
:1052100081421CD1C7F30511E06A884217D1C6F359
:105220000801206B401E814211D1606B401EC6F305
:10523000462188420BD1A06B401EC6F3064188422E
:1052400005D1E06B401EC6F30661884201D0012003
:1052500089E4174834300068C0F3CC07A06CB8422A
:1052600023D013482C30006820F0010010492C3165
:105270000860FDF76DFF054600BFFDF769FF401BA5
:10528000FBD00B48343000684FF6F8718843A16CAE
:1052900040EAC10006493431086005482C300068F6
:1052A00040F0010002492C31086000205BE400005E
:1052B0000044025800480258704770477047000089
:1052C00030B502460B4600BF92F83C00012801D1E0
:1052D000022030BD012082F83C0000BF022082F88D
:1052E0003D001068416810688468254D1068A84228
:1052F00003D0244D1068A84203D121F470015868EE
:10530000014321F0700118680143106841601C4D91
:105310001068A84223D01068B0F1804F1FD01A4DFA
:105320001068A8421BD0194D1068A84217D0184D1C
:105330001068A84213D0134D1068A8420FD0154D25
:105340001068A8420BD0144D1068A84207D0134D26
:105350001068A84203D0124D1068A84205D124F06D
:1053600080049868044310688460012082F83D003E
:1053700000BF002082F83C0000BF00BFA9E700008A
:10538000000001400004014000040040000800400B
:10539000000C0040001800400040014000E00040C8
:1053A00000E4004010B504460CB9012010BD94F88B
:1053B0003D0028B9002084F83C00204600F02AF87F
:1053C000022084F83D00211D206802F089F80120A8
:1053D00084F8480000BF84F83E0001213F200155B9
:1053E00040200155412001554220015543200155DF
:1053F00000BF00BF012084F844004520015546202D
:1054000001554720015500BF012084F83D000020D0
:10541000CCE7000008B50168B1F1804F0DD100BFA5
:105420000649096841F00101044A11601146096802
:1054300001F00101009100BF00BF08BDE84402581F
:10544000014691F83D00012801D00120704702205B
:1054500081F83D000868C06840F001000B68D86022
:10546000204B0868984223D00868B0F1804F1FD0C5
:105470001D4B086898421BD01C4B0868984217D0F7
:105480001B4B0868984213D01A4B086898420FD0FB
:10549000194B086898420BD0184B0868984207D0FF
:1054A000174B0868984203D0164B0868984210D1F1
:1054B00008688068144B00EA0302062A0FD0B2F590
:1054C000803F0CD00868006840F001000B6818604D
:1054D00005E00868006840F001000B6818600020D3
:1054E000B4E7000000000140000400400008004054
:1054F000000C004000040140001800400040014042
:1055000000E0004000E40040070001002DE9F04108
:1055100004460D46002700BF94F83C00012802D144
:105520000220BDE8F081012084F83C0000BF022089
:1055300084F83D00206886684048064026F47F468F
:10554000206886602868702826D00CDC00F00F01E7
:10555000002966D10011072863D2DFE800F0555614
:1055600057584B374100B0F1101F52D009DCB0F54D
:10557000805F10D0B0F5005F1BD0B0F5801F50D118
:1055800046E0A0F580102038002843D0102842D0F3
:10559000202846D140E046E0D5E902136A68206839
:1055A00002F01FF82068866846F07706206886605B
:1055B00039E0D5E902136A68206802F012F8206821
:1055C000806840F48040216888602CE0EA6869685F
:1055D000206802F0D1F95021206802F00DF822E095
:1055E000EA686968206802F0DAF96021206802F050
:1055F00003F818E0EA686968206802F0BDF9402104
:10560000206801F0F9FF0EE000BF00BF00BF00BF3F
:1056100000BF00BF00BF00BF2968206801F0ECFF99
:1056200001E0012700BF00BF012084F83D0000BF5A
:10563000002084F83C0000BF384672E788FFCEFFA8
:10564000704710B5044620680069C0F34000D8B127
:105650002068C068C0F34000B0B16FF0020021685C
:105660000861012020772068806900F0030018B1EC
:105670002046FFF7E5FF05E0204600F0EBF8204666
:1056800000F0D9F90020207720680069C0F380007D
:10569000D8B12068C068C0F38000B0B16FF00400DA
:1056A00021680861022020772068806900F440703A
:1056B00018B12046FFF7C4FF05E0204600F0CAF805
:1056C000204600F0B8F90020207720680069C0F378
:1056D000C000D8B12068C068C0F3C000B0B16FF09E
:1056E000080021680861042020772068C06900F064
:1056F000030018B12046FFF7A3FF05E0204600F0A5
:10570000A9F8204600F097F900202077206800696A
:10571000C0F30010D8B12068C068C0F30010B0B169
:105720006FF0100021680861082020772068C069A8
:1057300000F4407018B12046FFF782FF05E02046D4
:1057400000F088F8204600F076F9002020772068E5
:10575000006900F0010058B12068C06800F0010045
:1057600030B16FF0010021680861204600F022FA94
:1057700020680069C0F3C01058B12068C068C0F349
:10578000C01030B16FF08000216808612046FFF73B
:1057900094FD20680069C0F3002058B12068C068FB
:1057A000C0F3C01030B16FF48070216808612046EA
:1057B000FFF782FD20680069C0F3801058B12068AF
:1057C000C068C0F3801030B16FF0400021680861FC
:1057D000204600F0FBF920680069C0F3401058B182
:1057E0002068C068C0F3401030B16FF0200021681D
:1057F00008612046FFF762FD10BD000010B586B0BD
:105800000446142101A8FBF70DF82068B0F1804F81
:105810001AD100BF0D48006840F001000B49086034
:105820000846006800F00100009000BF00BF202083
:105830000190022002900020039004900120059026
:1058400001A90348FDF786FB06B010BDE0440258ED
:105850000000025870472DE9F04104460D461646F7
:10586000002700BF94F83C00012802D10220BDE8C7
:10587000F081012084F83C0000BF0C2E51D005DCE3
:105880004EB1042E1ED0082E7AD133E0102E60D0F7
:10589000142EF9D175E02946206801F0B9FE206880
:1058A000806940F00800216888612068806920F0E4
:1058B000040021688861206880692969084321689B
:1058C000886178E02946206801F0F8FE2068806948
:1058D00040F40060216888612068806920F480605D
:1058E0002168886120688069296940EA012021686F
:1058F000886160E02946206801F03AFF2068C069AD
:1059000040F008002168C8612068C06920F00400E8
:105910002168C8612068C069296908432168C86195
:1059200049E02946206801F07DFF2068C06940F405
:1059300000602168C8612068C06920F48060216827
:10594000C8612068C069296940EA01202168C861EE
:1059500031E02946206801F09FFF2068406D40F04B
:105960000800216848652068406D20F00400216827
:1059700048652068406D29690843216848651AE038
:1059800017E02946206801F0BFFF2068406D40F411
:105990000060216848652068406D20F480602168BF
:1059A00048652068406D296940EA01202168486502
:1059B00001E0012700BF00BF00BF002084F83C00C9
:1059C00000BF384653E710B504460CB9012010BD9E
:1059D00094F83D0028B9002084F83C00204600F0EF
:1059E00029F8022084F83D00211D206801F078FD8F
:1059F000012084F8480000BF84F83E0001213F20C8
:105A000001554020015541200155422001554320B8
:105A1000015500BF00BF012084F844004520015516
:105A2000462001554720015500BF012084F83D0064
:105A30000020CCE77047704770B504460D4615B995
:105A400094F83E0015E0042D02D13F20005D10E0E7
:105A5000082D02D14020005D0BE00C2D02D1412029
:105A6000005D06E0102D02D14220005D01E04320E0
:105A7000005D012801D0012070BD1DB9022084F80D
:105A80003E001AE0042D03D102213F20015514E00D
:105A9000082D03D10221402001550EE00C2D03D129
:105AA00002214120015508E0102D03D1022142209E
:105AB000015502E0022143200155012229462068B8
:105AC00001F07EFD2F49206888420FD02E492068C2
:105AD00088420BD02D492068884207D02C49206885
