:020000040800F2
:10000000705600243D040008914900088945000805
:100010003D490008510B00083D6100080000000048
:100020000000000000000000000000007D03000848
:10003000C30B000800000000D9030008274D00088A
:100040005704000857040008570400085704000824
:100050005704000857040008570400085704000814
:100060005704000857040008570400085704000804
:1000700057040008570400085704000857040008F4
:1000800057040008570400085704000857040008E4
:1000900057040008570400085704000857040008D4
:1000A00057040008D94E00085704000857040008F8
:1000B00057040008570400085704000857040008B4
:1000C00057040008570400085704000857040008A4
:1000D000570400081D6100082D610008570400083E
:1000E00057040008570400080000000057040008E7
:1000F0005704000857040008570400085704000874
:100100005704000857040008570400085704000863
:10011000C94F0008D94F00085704000857040008C9
:100120005704000857040008570400085704000843
:100130005704000857040008570400085704000833
:1001400000000000000000000000000000000000AF
:100150005704000857040008570400085704000813
:100160005704000857040008570400085704000803
:100170005704000857040008570400080000000056
:1001800057040008570400085704000857040008E3
:1001900057040008570400085704000857040008D3
:1001A0005704000857040008570400080000000026
:1001B00057040008570400085704000857040008B3
:1001C0005704000857040008000000000000000069
:1001D00000000000000000005704000800000000BC
:1001E000000000000000000000000000000000000F
:1001F0000000000000000000570400085704000839
:1002000057040008570400080000000057040008C5
:100210005704000857040008570400085704000852
:100220005704000800000000570400080000000008
:100230005704000857040008000000005704000895
:100240005704000857040008570400085704000822
:100250005704000857040008570400085704000812
:100260005704000857040008570400085704000802
:100270005704000857040008570400080000000055
:1002800057040008570400085704000857040008E2
:100290000000000057040008570400080000000098
:1002A0000000000057040008570400085704000825
:1002B00057040008570400085704000857040008B2
:1002C00057040008570400085704000800F002F81B
:1002D00000F045F80AA090E8000C82448344AAF19B
:1002E0000107DA4501D100F03AF8AFF2090EBAE899
:1002F0000F0013F0010F18BFFB1A43F0010318475A
:10030000DC8A0000FC8A0000103A24BF78C878C15B
:10031000FAD8520724BF30C830C144BF04680C600B
:10032000704700000023002400250026103A28BF53
:1003300078C1FBD8520728BF30C148BF0B60704757
:100340001FB508F0EFFB9DE8030000F01FFA00F076
:10035000EBF91FBD10B5002000F075FA10BD00F0DC
:10036000F1FA1146FFF7ECFF06F0AAFB00F00FFBD5
:1003700003B4FFF7EFFF03BC00F04EFB2C4B1968F2
:100380000868B0E8F04F80F30988BFF36F8F4FF033
:10039000000080F3118870470000000008480068E2
:1003A000006880F308884FF0000080F3148862B67C
:1003B00061B6BFF34F8FBFF36F8F00DF00BF00BF89
:1003C00008ED00E0DFF80C00016841F47001016005
:1003D000704700BF88ED00E0EFF30980BFF36F8F37
:1003E000134B1A681EF0100F08BF20ED108A20E989
:1003F000F04F106009B44FF0500080F31188BFF344
:100400004F8FBFF36F8F07F05BFC4FF0000080F35E
:10041000118809BC19680868B0E8F04F1EF0100F89
:1004200008BFB0EC108A80F30988BFF36F8F704764
:100430005C000024EFF30580704700000948804706
:1004400009480047FEE7FEE7FEE7FEE7FEE7FEE7B6
:10045000FEE7FEE7FEE7FEE704480549054A064BCE
:1004600070470000F94D0008CD02000870500024CC
:1004700070560024705200247052002470B5064655
:1004800000F064F9056806F10B0020F00704B4429F
:100490009CBF002070BD2B466A68BAB11068A042AC
:1004A00010D304F1080188423CBF5068586007D35C
:1004B0005168101941601168091B0160586014608F
:1004C000101D70BD13465268002AE7D12146284608
:1004D00000F048F90028DED170BD53EA020C00F0AC
:1004E00069802DE9F04B4FF00006002B1FBFB3FAD7
:1004F00083F503FA05F424FA05F65E4012BF1643AD
:10050000B2FA82F502FA05F4C5F120051EBF22FAFF
:1005100005FC44EA0C04203556EA044C4FEA144426
:1005200018BF641C4FF000084FF00009904271EBB7
:10053000030C39D3002919BFB1FA81F701FA07F684
:10054000B0FA80F700FA07F6C7F120071EBF20FABD
:1005500007FC46EA0C062037B6FBF4FCA7EB0507C0
:10056000103F07F01F0BCBF120060CFA0BFB2CFA07
:1005700006F644BFB3460026202FA4BF5E464FF0C8
:10058000000B5BEA060C08BF4FF0010B19EB0B09DF
:10059000ABFB027C48EB0608C01B06FB02CC0BFB46
:1005A00003CC71EB0C01C1E70B46024641464846BD
:1005B000BDE8F08B13B54FF000004FF00001AFF332
:1005C0000080BDE81C4070472DE9F0410746154604
:1005D0000E461020FFF752FF04000AD06760C4E9FE
:1005E000026500F0B7F80168216004600020BDE8F2
:1005F000F0810120FBE7032A40F2308010F0030C69
:1006000000F0158011F8013BBCF1020F624498BF65
:1006100011F801CB00F8013B38BF11F8013BA2F102
:10062000040298BF00F801CB38BF00F8013B11F07D
:10063000030300F02981083AC0F0088051F8043B18
:10064000083A51F804CBA0E80810F5E7121D5CBF8A
:1006500051F8043B40F8043BAFF30080D20724BFBD
:1006600011F8013B11F801CB48BF11F8012B24BF51
:1006700000F8013B00F801CB48BF00F8012B7047A0
:1006800002F0FF0343EA032242EA024200F002B80A
:100690004FF000020429C0F0128010F0030C00F0AB
:1006A0001B80CCF1040CBCF1020F18BF00F8012B29
:1006B000A8BF20F8022BA1EB0C0100F00DB85FEAF7
:1006C000C17C24BF00F8012B00F8012B48BF00F8C3
:1006D000012B70474FF0000200B513469446964632
:1006E000203922BFA0E80C50A0E80C50B1F1200145
:1006F000BFF4F7AF090728BFA0E80C5048BF0CC0F3
:100700005DF804EB890028BF40F8042B08BF704750
:1007100048BF20F8022B11F0804F18BF00F8012BC2
:10072000704770477047704770B5064C7C44064D63
:100730007D4403E0206820448047241DAC42F9D169
:1007400070BD0000CC860000D886000000487047CD
:1007500018500024004870474850002470477047E4
:100760007047704738B504460A4600206946AFF323
:100770000080002808BF38BD02460099204600F0DE
:10078000BDF8012038BD012000F0D2B8F8B5AFF3B4
:100790000080054600200C46102000BF0646A81920
:1007A000A0420DD9324669460020AFF30080070011
:1007B00008BF00F0BDF80098A04218BF0546C41954
:1007C000FFF7C4FF05600746F01D20F0070046193B
:1007D000284600F00AF8B44208BFF8BDA21B314613
:1007E0003868BDE8F84000F089B800210160C0E930
:1007F000011070471020704770B50446051FFFF7C1
:10080000A5FF0068002C14BF446870BD002C18BF01
:10081000AC423CBF20466468F8D301680A18AA427B
:1008200018BF456003D12A68054611440160286855
:100830004119A1421CBF6C6070BD6168696021688C
:100840000844286070BD2DE9F0410646FFF782FF9D
:100850008046454613E016B1E068B0420ED12068EC
:100860002860D4E90101D8F8007088472046FFF7D6
:10087000C3FFD8F80000B842EBD100E025462C6851
:10088000002CE8D1BDE8F08110B5203AC0F00B8013
:10089000B1E81850203AA0E81850B1E81850A0E884
:1008A0001850BFF4F5AF5FEA027C24BFB1E81850DE
:1008B000A0E8185044BF18C918C0BDE810405FEA4E
:1008C000827C24BF51F8043B40F8043B08BF7047CA
:1008D000D20728BF31F8023B48BF11F8012B28BFCF
:1008E00020F8023B48BF00F8012B704700487047D2
:1008F00010500024004870474450002403464068CC
:100900008C46002818BF88423CBF03464068F8D395
:1009100018681844884207D00CF1030020F0070043
:10092000001D411A521A0146081D0A60FFF764BFF4
:1009300010B500F03BF8BDE8104000F031B800F011
:100940005DB870477546FFF7D1FFAE4605006946B2
:10095000534620F00700854618B020B5FFF77CFD10
:10096000BDE820404FF000064FF000074FF00008B0
:100970004FF0000B21F00701AC46ACE8C009ACE831
:10098000C009ACE8C009ACE8C0098D46704710B595
:100990000446AFF300802046BDE81040FFF7E8BCF6
:1009A000002801D000F038B87047000010B50128C9
:1009B00005D0002103A000F040F8012010BD09A1DE
:1009C000F8E7000053494752544D454D3A204F75C2
:1009D00074206F662068656170206D656D6F727937
:1009E000000000003A2048656170206D656D6F72EF
:1009F0007920636F727275707465640010B500F0D1
:100A000038F8016919B100220261884701E0806865
:100A1000804700F007F8000001491820ABBEFEE750
:100A20002600020010B5002000F054F8FFF792FCF9
:100A3000BDE810400120FFF7EFBF70B505460C463A
:100A40000A2000E06D1C00F039F835B12878002844
:100A5000F8D102E0641C00F031F814B120780028CD
:100A6000F8D1BDE870400A2000F028B810B5FFF7B3
:100A7000D9FF70B500F02AF804680546A4B9202013
:100A8000FFF7FCFC040011D0094900202C60C4E9E8
:100A900000010849A1602073206160610649A061DE
:100AA00009B100F01EF8E061204670BDFFF7BAFF03
:100AB000000000006D0A00080000000008B569464B
:100AC0008DF800000320ABBE08BD00000048704751
:100AD0004C50002410B500F023F8BDE81040FFF79B
:100AE0005FBF10B58820FFF7C9FC002801D00021A6
:100AF000017010BD802902D808B1017809B1002029
:100B00007047012100F8081B704718B100F1080276
:100B1000914201D000207047002101707047000011
:100B200010B5002102A0FFF788FF012010BD0000D2
:100B3000534947414252543A2041626E6F726D618F
:100B40006C207465726D696E6174696F6E0000006F
:100B500000BFFEE700BF012005F0CAFFFBE700BFB2
:100B6000012005F0C5FFFBE700BF00231A4604493A
:100B70000448006807F0A4FA012005F0B9FFF4E783
:100B80005C4F00243000002400BF084805F010FE30
:100B9000064805F0FBFD00231A4605490548006894
:100BA00007F08EFA022005F0A3FFEEE7744C002454
:100BB0006C4F00243000002400BF012005F098FF96
:100BC000FBE7704772B600BFFEE70000084805F07B
:100BD00019FC4FF4967005F08BFF00BF044805F038
:100BE00041FB05F013FB022005F082FFF6E7000051
:100BF000D04C00242DE9F041044600F02DFD804644
:100C000014B90120BDE8F08194F83500022808D01D
:100C10008020606500BF002084F8340000BF012000
:100C2000F0E7FE492068884249D0FC491831206825
:100C3000884244D0F9493031206888423FD0F74992
:100C40004831206888423AD0F449603120688842AF
:100C500035D0F24978312068884230D0EF49903160
:100C6000206888422BD0ED49A8312068884226D0E0
:100C7000EB492068884222D0E9491831206888422F
:100C80001DD0E74930312068884218D0E449483106
:100C90002068884213D0E2496031206888420ED033
:100CA000DF4978312068884209D0DD4990312068D9
:100CB000884204D0DA49A8312068884201D1012055
:100CC00000E0002068B12068006820F01E00216864
:100CD00008602068406920F080002168486125682C
:100CE00006E02068006820F00E0021680860256892
:100CF000CA492068884270D0C849183120688842A3
:100D00006BD0C64930312068884266D0C34948312B
:100D10002068884261D0C1496031206888425CD037
:100D2000BE4978312068884257D0BC49903120684C
:100D3000884252D0B949A831206888424DD0B8497C
:100D40002068884249D0B64918312068884244D08A
:100D5000B3493031206888423FD0B14948312068DA
:100D600088423AD0AE4960312068884235D0AC49DB
:100D700078312068884230D0A94990312068884273
:100D80002BD0A749A8312068884226D0A5492068E1
:100D9000884222D0A3491431206888421DD0A1493D
:100DA00028312068884218D09E493C31206888420A
:100DB00013D09C495031206888420ED09949643143
:100DC0002068884209D0974978312068884204D049
:100DD00094498C312068884201D1012000E0002034
:100DE00028B1206E006820F48070216E08608B4965
:100DF0002068884249D0894918312068884244D007
:100E000086493031206888423FD084494831206883
:100E100088423AD0814960312068884235D07F4984
:100E200078312068884230D07C49903120688842EF
:100E30002BD07A49A8312068884226D0784920688A
:100E4000884222D076491831206888421DD07449E2
:100E500030312068884218D0714948312068884272
:100E600013D06F496031206888420ED06C497831C8
:100E70002068884209D06A4990312068884204D0AD
:100E80006749A8312068884206D12068006820F0B0
:100E900001002168086005E02068006820F001007A
:100EA0002168086011E000F0D7FBA0EB08000528DE
:100EB0000BD920206065032084F8350000BF002096
:100EC00084F8340000BF01209CE6286800F001008F
:100ED0000028E8D151492068884249D04F4918314B
:100EE0002068884244D04D493031206888423FD044
:100EF0004A494831206888423AD0484960312068E0
:100F0000884235D0454978312068884230D04349FD
:100F10009031206888422BD04049A831206888420F
:100F200026D03F492068884222D03D4918312068A8
:100F300088421DD03A4930312068884218D038495B
:100F400048312068884213D0354960312068884292
:100F50000ED0334978312068884209D03049903129
:100F60002068884204D02E49A8312068884201D1E7
:100F7000012000E0002040B1A66D94F85C0000F074
:100F80001F013F208840B06007E0A76D94F85C0027
:100F900000F01F01012088407860204920688842C5
:100FA00076D01E4918312068884271D01B493031F3
:100FB000206888426CD0194948312068884267D03F
:100FC000164960312068884262D01449783120681F
:100FD00088425DD0114990312068884258D00F492D
:100FE000A8312068884253D00D49206888424FD0EC
:100FF0000B491831206888424AD0094930312068AD
:10100000884245D0064948312068884240D004498A
:101010006031206888423BD0014905E01000024061
:1010200010040240085402587831206888422FD0BA
:101030002549206888422BD02349183120688842EE
:1010400026D022492068884222D0204914312068C5
:1010500088421DD01D4928312068884218D01B497C
:101060003C312068884213D01849503120688842AA
:101070000ED0164964312068884209D0134978316E
:101080002068884204D011498C312068884201D1FF
:10109000012000E0002068B1D4E919104860E06E3A
:1010A00040B1E06E006820F48070E16E0860D4E921
:1010B0001C104860012084F8350000BF002084F82F
:1010C000340000BF00BF9DE5A00402400854025850
:1010D00070B504460CB9012070BD94F835000228A3
:1010E00003D0802060650120F6E7DC492068884253
:1010F00049D0DA4918312068884244D0D749303184
:10110000206888423FD0D5494831206888423AD08B
:10111000D24960312068884235D0D0497831206882
:10112000884230D0CD499031206888422BD0CB49BD
:10113000A8312068884226D0C9492068884222D038
:10114000C7491831206888421DD0C5493031206810
:10115000884218D0C24948312068884213D0C0491B
:101160006031206888420ED0BD49783120688842BD
:1011700009D0BB4990312068884204D0B849A831D1
:101180002068884201D1012000E00020F0B3042053
:1011900084F83500B149206888424BD0AF491831F6
:1011A0002068884246D0AD4930312068884241D01D
:1011B000AA494831206888423CD0A849603120685B
:1011C000884237D0A54978312068884232D0A34977
:1011D0009031206888422DD0A049A83120688842EB
:1011E00028D09F492068884224D09D491831206822
:1011F00088421FD09A493031206888421AD09849D5
:1012000048312068884215D0954900E020E06031DF
:10121000206888420ED0924978312068884209D0EF
:101220008F4990312068884204D08D49A8312068C8
:10123000884206D12068006820F00100216808601B
:1012400009E12068006820F001002168086002E1DF
:101250002068006820F00E00216808607F4920683F
:10126000884249D07D4918312068884244D07B4962
:101270003031206888423FD0784948312068884220
:101280003AD0764960312068884235D07349783148
:101290002068884230D071499031206888422BD034
:1012A0006E49A8312068884226D06D49206888425E
:1012B00022D06B491831206888421DD068493031EE
:1012C0002068884218D0664948312068884213D087
:1012D00063496031206888420ED0614978312068C6
:1012E000884209D05E4990312068884204D05C4928
:1012F000A8312068884206D12068006820F00100EB
:101300002168086005E02068006820F0010021687D
:10131000086052492068884270D0504918312068CE
:1013200088426BD04D4930312068884266D04B49A5
:1013300048312068884261D048496031206888423D
:101340005CD0464978312068884257D04349903173
:101350002068884252D04149A831206888424DD047
:101360003F492068884249D03D4918312068884269
:1013700044D03B493031206888423FD03849483119
:10138000206888423AD0364960312068884235D09A
:10139000334978312068884230D031499031206813
:1013A00088422BD02E49A8312068884226D02D496A
:1013B0002068884222D02B491431206888421DD0F1
:1013C000284928312068884218D026493C312068B5
:1013D000884213D023495031206888420ED02149D9
:1013E00064312068884209D01E49783120688842DB
:1013F00004D01C498C312068884201D1012000E0D2
:101400000020D8B1206E006820F48070216E086042
:10141000A56D94F85C0000F01F0101208840686011
:10142000D4E919104860E06E40B1E06E006820F425
:101430008070E16E0860D4E91C104860012084F8D7
:10144000350000BF002084F8340000BF206D10B1CB
:101450002046216D884700203EE600001000024033
:101460001004024008540258F8B502460B46002109
:101470006D4DD2E001278F401E6806EA0704002C5C
:1014800072D01E7906F00306012E04D01E7906F0F4
:101490000306022E13D190684F000326BE40B043CE
:1014A0004F00DE68BE4030439060506801268E4099
:1014B000B0431E79C6F300168E40304350601E794B
:1014C00006F00306032E09D0D0684F000326BE4065
:1014D000B0434F009E68BE403043D0601E7906F096
:1014E0000306022E13D1CF0802F1200656F827007A
:1014F0004E07F70E0F26BE40B0434F07FF0E1E6982
:10150000BE403043CF0802F1200646F8270010689D
:101510004F000326BE40B0431E7906F003064F007D
:10152000BE40304310605E6806F44036002E73D033
:1015300000BF3E4E366846F002063C4F3E603E46D7
:10154000366806F00206009600BF00BF384E8F08CE
:1015500056F827008E07370F0F26BE40B043354E92
:10156000B24202D1002629E056E0334EB24201D108
:10157000012623E0314EB24201D102261EE0304E58
:10158000B24201D1032619E02E4EB24201D1042607
:1015900014E02D4EB24201D105260FE02B4EB2428F
:1015A00001D106260AE02A4EB24201D1072605E003
:1015B000284EB24201D1092600E00A268F073F0FCC
:1015C000BE4030431A4E8F0846F827004FF0B04611
:1015D0003068A0435E6806F4801606B120434FF0E1
:1015E000B04630607068A0435E6806F4001606B12D
:1015F00020434FF0B04670606868A0435E6806F410
:10160000003606B1204368602868A0435E6806F48F
:10161000803606B120432860491C1E68CE40002E4B
:101620007FF428AFF8BD000080000058F444025851
:10163000080400580000025800040258000802582C
:10164000000C0258001002580014025800180258EA
:10165000001C02580024025801480068704700002E
:101660004800002401464AF6AA200A6810600020BB
:10167000704700000348006803490978084401499D
:1016800008607047480000245000002410B5032073
:1016900000F0E0F801F0D8FB10490968C1F303211C
:1016A0000F4A515C01F01F0120FA01F40B48006859
:1016B00000F00F001146085C00F01F0024FA00F053
:1016C00008490860084804600F2000F00FF808B1CE
:1016D000012010BD00F054F80020FAE71844025829
:1016E000188D0008580000245400002470B58AB0FA
:1016F0000446102C0AD200222146192000F06CF872
:10170000192000F055F81948046002E001200AB0E1
:1017100070BD00BF1648006840F001001449086021
:101720000846006800F00100009000BF00BF01A95A
:1017300002A801F009FB01F075FB45000D48B5FB5F
:10174000F0F0461E0C480D49086040F2E7310B48A6
:10175000C160466000210161816002F03CF818B967
:10176000064802F071F8D2E70120D0E74C000024CF
:10177000F044025840420F0000000140540300248E
:1017800008B500BF0948006840F00200074908603A
:101790000846006800F00200009000BF00BF002271
:1017A0000F21901E00F018F808BD0000F444025804
:1017B0000146084600280DDB00BF00BF00F01F03F4
:1017C00001229A4043099B0003F1E023C3F8002162
:1017D00000BF00BF00BF70472DE9F05F80460D4697
:1017E000164605F0D5F8074639462A46334601F035
:1017F0000700C0F1070ABAF1040F02D94FF0040A3A
:1018000001E0C0F1070AD14600F1040ABAF1070F5E
:1018100002D24FF0000A01E0A0F1030AD4464FF0D3
:10182000010A0AFA09FAAAF1010A0AEA020A0AFAFC
:101830000CFA4FF0010B0BFA0CFBABF1010B0BEAAE
:10184000030B4AEA0B042146404605F0A9F8BDE81F
:10185000F09F000000BF00F00702064B19684FF62A
:10186000FF031940044B0B4343EA0221014B19606B
:1018700000BF70470CED00E00000FA0570B50446AB
:1018800015480068C0F3800048B91348006800F0AC
:101890000700A04201D0012070BD0020FCE70E48E7
:1018A000006820F0070020430B490860FFF7D4FED2
:1018B000054607E0FFF7D0FE401BB0F57A7F01D95F
:1018C0000120E9E7044808380068C0F340300028E8
:1018D000F0D00020E0E700000C48025810B501F0FD
:1018E00069FA05490968C1F30211044A515C01F023
:1018F0001F01C84010BD000020440258188D000888
:1019000070B50146844D2D6805F00303824D2D68A6
:10191000C5F30530804D2D1D2D68C5F300147E4D97
:1019200014352D68C5F3CC0515FB04F501EE105AEE
:10193000B8EE411AF0EE410A00286FD023B1012B16
:101940004ED0022B6BD16BE0734D283D2D68C5F353
:1019500040153DB3704D283D2D68C5F3C1066F4D50
:1019600025FA06F201EE102AF8EE411A01EE100AED
:10197000B8EE411A81EE812A9FED691AC0EE811AF4
:10198000654D10352D68C5F3080501EE105AB8EE07
:10199000411A31EE811AF7EE001A31EE211A22EEC9
:1019A000010A1CE001EE100AB8EE411ADFED5D1AE3
:1019B00081EE812A9FED5A1AC0EE811A564D1035DC
:1019C0002D68C5F3080501EE105AB8EE411A31EE44
:1019D000811AF7EE001A31EE211A22EE010A5BE0BD
:1019E00001EE100AB8EE411ADFED4F1A81EE812A9E
:1019F0009FED4B1AC0EE811A474D10352D68C5F387
:101A0000080501EE105AB8EE411A31EE811AF7EED0
:101A1000001A31EE211A22EE010A3DE077E01DE0C6
:101A200001EE100AB8EE411A9FED402AC2EE011AEB
:101A30009FED3B1A80EE812A374D10352D68C5F396
:101A4000080501EE105AB8EE411A32EE011AB7EE4F
:101A5000002A31EE021A21EE810A1DE001EE100A81
:101A6000B8EE411ADFED301A81EE812A9FED2C1A73
:101A7000C0EE811A284D10352D68C5F3080501EE1A
:101A8000105AB8EE411A31EE811AF7EE001A31EE13
:101A9000211A22EE010A00BF00BF1F4D10352D682C
:101AA000C5F3462501EE105AB8EE411AF7EE001ABA
:101AB00031EE211AC0EE011ABCEEE11A81ED001AD6
:101AC000154D10352D68C5F3064501EE105AB8EED8
:101AD000411AF7EE001A31EE211AC0EE011ABCEEDF
:101AE000E11A81ED011A0C4D10352D68C5F306651C
:101AF00001EE105AB8EE411AF7EE001A31EE211A33
:101B0000C0EE011ABCEEE11A81ED021A03E00025D5
:101B10000D604D608D6070BD284402580090D00368
:101B2000000000460024744C0024744A20BCBE4BC4
:101B300070B50146844D2D6805F00303824D2D6874
:101B4000C5F30550804D2D1D2D68C5F300247E4D35
:101B50001C352D68C5F3CC0515FB04F501EE105AB4
:101B6000B8EE411AF0EE410A00286FD023B1012BE4
:101B70004ED0022B6BD16BE0734D283D2D68C5F321
:101B800040153DB3704D283D2D68C5F3C1066F4D1E
:101B900025FA06F201EE102AF8EE411A01EE100ABB
:101BA000B8EE411A81EE812A9FED691AC0EE811AC2
:101BB000654D18352D68C5F3080501EE105AB8EECD
:101BC000411A31EE811AF7EE001A31EE211A22EE97
:101BD000010A1CE001EE100AB8EE411ADFED5D1AB1
:101BE00081EE812A9FED5A1AC0EE811A564D1835A2
:101BF0002D68C5F3080501EE105AB8EE411A31EE12
:101C0000811AF7EE001A31EE211A22EE010A5BE08A
:101C100001EE100AB8EE411ADFED4F1A81EE812A6B
:101C20009FED4B1AC0EE811A474D18352D68C5F34C
:101C3000080501EE105AB8EE411A31EE811AF7EE9E
:101C4000001A31EE211A22EE010A3DE077E01DE094
:101C500001EE100AB8EE411A9FED402AC2EE011AB9
:101C60009FED3B1A80EE812A374D18352D68C5F35C
:101C7000080501EE105AB8EE411A32EE011AB7EE1D
:101C8000002A31EE021A21EE810A1DE001EE100A4F
:101C9000B8EE411ADFED301A81EE812A9FED2C1A41
:101CA000C0EE811A284D18352D68C5F3080501EEE0
:101CB000105AB8EE411A31EE811AF7EE001A31EEE1
:101CC000211A22EE010A00BF00BF1F4D18352D68F2
:101CD000C5F3462501EE105AB8EE411AF7EE001A88
:101CE00031EE211AC0EE011ABCEEE11A81ED001AA4
:101CF000154D18352D68C5F3064501EE105AB8EE9E
:101D0000411AF7EE001A31EE211AC0EE011ABCEEAC
:101D1000E11A81ED011A0C4D18352D68C5F30665E1
:101D200001EE105AB8EE411AF7EE001A31EE211A00
:101D3000C0EE011ABCEEE11A81ED021A03E00025A3
:101D40000D604D608D6070BD284402580090D00336
:101D5000000000460024744C0024744A20BCBE4B92
:101D60002DE9F04104460025A8464FF00062D4E971
:101D7000001011400020134659404040014331D12A
:101D8000606E48B1B0F5801F0DD0B0F5001F11D0C6
:101D9000B0F5401F16D114E0FE48006840F4003052
:101DA000FC49086010E0022104F1080002F0F2FD95
:101DB000054609E0022104F1280002F09DFE0546D7
:101DC00002E001E0012500BF00BF55B9F148243011
:101DD000006820F44010616E0843EE492431086029
:101DE00000E0A8464FF48072D4E9001011400020B2
:101DF00013465940404001432ED1A06D05281BD207
:101E0000DFE800F0030A11181900E248006840F406
:101E10000030E049086011E0002104F1080002F000
:101E2000B9FD05460AE0002104F1280002F064FE35
:101E3000054603E002E001E0012500BF00BF55B9FF
:101E4000D4482430006820F00700A16D0843D14930
:101E50002431086000E0A8464FF48062D4E9001005
:101E60001140002013465940404001433DD1D4F871
:101E7000A400B0F5C00F24D007DC68B1B0F5001F96
:101E800011D0B0F5800F1FD114E0B0F5000F19D0BC
:101E9000B0F5200F18D116E0BE48006840F40030BD
:101EA000BC49086012E0002104F1080002F072FD54
:101EB00005460BE0002104F1280002F01DFE054656
:101EC00004E003E002E001E0012500BF00BF5DB9CE
:101ED000B0482C30006820F46000D4F8A410084307
:101EE000AC492C31086000E0A8464FF40062D4E908
:101EF00000011040002113465840494008433DD19D
:101F0000D4F8A800B0F1407F24D007DC68B1B0F16C
:101F1000807F11D0B0F1007F1FD114E0B0F1806F4D
:101F200019D0B0F1A06F18D116E09A48006840F4BB
:101F300000309849086012E0002104F1080002F026
:101F400029FD05460BE0002104F1280002F0D4FD34
:101F5000054604E003E002E001E0012500BF00BF08
:101F60005DB98C482C30006820F0E060D4F8A810EF
:101F7000084388492C31086000E0A8464FF0007300
:101F8000D4E900101940002059404040014328D1B5
:101F9000E06CA8B1102804D0202809D0302810D136
:101FA0000DE07C48006840F400307A4908600AE09F
:101FB000022104F1080002F0EDFC054603E002E016
:101FC00001E0012500BF00BF55B97248203000680C
:101FD00020F03000E16C08436E492031086000E0D9
:101FE000A8464FF48053D4E900101940002059400E
:101FF0004040014337D1E06DB0F5005F1AD004DCFA
:1020000050B1B0F5805F1ED10DE0B0F5405F18D043
:10201000B0F5804F17D115E05E48006840F40030FD
:102020005C49086011E0002104F1080002F0B2FCF4
:1020300005460AE0002104F1280002F05DFD054696
:1020400003E002E001E0012500BF00BF55B951489F
:102050002430006820F4E040E16D08434D4924310C
:10206000086000E0A8464FF40053D4E9001019407E
:10207000002059404040014335D1206EB0F5403F2B
:102080001ED007DC68B1B0F5803F0BD0B0F5003F43
:1020900019D10EE0B0F5802F13D0B0F5A02F12D1DA
:1020A00010E012E0012104F1080002F073FC054683
:1020B0000BE0012104F1280002F01EFD054604E0BA
:1020C00003E002E001E0012500BF00BF55B931483F
:1020D0002430006820F4E020216E08432D4924318B
:1020E000086000E0A8464FF48042D4E900011040A7
:1020F0000021134658404940084337D1D4F8AC007A
:10210000B0F1405F1ED007DC68B1B0F1805F0BD04A
:10211000B0F1005F19D10EE0B0F1804F13D0B0F1F3
:10212000A04F12D110E012E0012104F1080002F0EA
:1021300031FC05460BE0012104F1280002F0DCFC33
:10214000054604E003E002E001E0012500BF00BF16
:102150005DB910482C30006820F0E040D4F8AC1095
:1021600008430C492C31086000E0A8464FF40043B6
:10217000D4E90001184000215840494008432AD1C1
:10218000E06EB8B1B0F1805F06D0B0F1005F12D15F
:1021900009E000002C440258F948006840F400307F
:1021A000F749086009E0012104F1080002F0F2FBA0
:1021B000054602E001E0012500BF00BF55B9F04827
:1021C0002430006820F04050E16E0843EC4924318F
:1021D000086000E0A8464FF08073D4E90010194071
:1021E000002059404040014328D1A06CA8B10128EB
:1021F00004D0022809D0032810D10DE0E04800687F
:1022000040F40030DE4908600AE0022104F10800D1
:1022100002F0C0FB054603E002E001E0012500BF3B
:1022200000BF55B9D6482030006820F00300A16CEB
:102230000843D3492031086000E0A8464FF48003EA
:10224000D4E90010194000205940404001437DD19D
:10225000CC48006840F48070CA490860FFF7FCF978
:10226000064606E0FFF7F8F9801B642801D903252C
:1022700005E0C448006800F480700028F2D000BF78
:1022800085BBBF484430006800F44070B4F8B0101B
:1022900001F44071884213D0B9484430006820F4FA
:1022A0004077B7484430006840F48030B449443146
:1022B00008600846006820F480300860084607601F
:1022C000D4F8B000B0F5807F15D1FFF7C5F9064608
:1022D00009E0FFF7C1F9801B41F28831884202D939
:1022E000032507E038E0A64844300068C0F340000A
:1022F0000028EED000BF55BB00BFB4F8B00000F41A
:102300004070B0F5407F0ED19D481C38006820F425
:102310007C519D4AD4F8B000104041EA1010984911
:102320001C39086007E096481C38006820F47C508F
:1023300093491C390860924844300068B4F8B010E2
:10234000C1F30B0108438E49443101E005E001E08F
:10235000086002E0A84600E0A8460122D4E9000196
:1023600010400021134658404940084330D1A06F27
:1023700018281AD005DC48B1082808D0102817D131
:102380000CE0202812D0282812D110E012E0012100
:1023900004F1080002F0FEFA05460BE0012104F109
:1023A000280002F0A9FB054604E003E002E001E09A
:1023B000012500BF00BF55B971482830006820F0E2
:1023C0003800A16F08436E492831086000E0A84634
:1023D0000223D4E900101940002059404040014335
:1023E00029D1606F062816D2DFE800F003040B1233
:1023F000131412E0012104F1080002F0CBFA0546A3
:102400000BE0012104F1280002F076FB054604E010
:1024100003E002E001E0012500BF00BF55B95848C4
:102420002830006820F00700616F084354492831C4
:10243000086000E0A8460422D4E900101140002002
:1024400013465940404001432BD1D4F89000062850
:1024500016D2DFE800F003040B12131412E001217E
:1024600004F1080002F096FA05460BE0012104F1A0
:10247000280002F041FB054604E003E002E001E031
:10248000012500BF00BF5DB93D482C30006820F039
:102490000700D4F89010084339492C31086000E057
:1024A000A8462023D4E900011840002158404940A3
:1024B000084337D1D4F88C00B0F1405F1ED007DC60
:1024C00068B1B0F1805F0BD0B0F1005F19D10EE0C0
:1024D000B0F1804F13D0B0F1A04F12D110E012E054
:1024E000002104F1080002F055FA05460BE0022134
:1024F00004F1280002F000FB054604E003E002E0DE
:1025000001E0012500BF00BF5DB91D48283000680B
:1025100020F0E040D4F88C100843194928310860B5
:1025200000E0A8464023D4E900101940002059409B
:10253000404001433CD1D4F89800B0F5406F25D01D
:1025400007DC68B1B0F5806F0BD0B0F5006F20D11B
:102550000EE0B0F5805F1AD0B0F5A05F19D117E09A
:1025600019E0002104F1080002F014FA054612E017
:10257000022104F1280002F0BFFA05460BE000003A
:102580002C44025800480258FFFCFF0F03E002E011
:1025900001E0012500BF00BF4DB9FE48006820F4EE
:1025A000E050D4F898100843FA49086000E0A846C3
:1025B0008023D4E9001019400020594040400143D5
:1025C00035D1D4F89C00B0F5C04F1ED007DC68B1FF
:1025D000B0F5005F0BD0B0F5804F19D10EE0B0F52B
:1025E000004F13D0B0F5204F12D110E012E00021BF
:1025F00004F1080002F0CEF905460BE0022104F1D7
:10260000280002F079FA054604E003E002E001E068
:10261000012500BF00BF4DB9DE48006820F46040CE
:10262000D4F89C100843DB49086000E0A846082362
:10263000D4E900011840002158404940084317D10F
:10264000D4F88000B0F5805F07D1022104F12800A2
:1026500002F052FA08B14FF00108CE48001F00689E
:1026600020F44050D4F880100843CA49091F08607C
:102670001023D4E900011840002158404940084384
:1026800015D1D4F89400B0F5807F07D1022104F170
:10269000280002F031FA08B14FF00108BD48006887
:1026A00020F44070D4F894100843BA4908604FF4FD
:1026B0000023D4E900011840002158404940084354
:1026C00027D1D4F8A00030B1B0F5803F0AD0B0F5E2
:1026D000003F0FD10DE0002104F1080002F05AF98B
:1026E000054609E0022104F1280002F005FA05463A
:1026F00002E001E0012500BF00BF4DB9A548006818
:1027000020F44030D4F8A0100843A249086000E04B
:10271000A8464FF48023D4E9000118400021584016
:10272000494008432DD1D4F88400B0F5801F06D06D
:10273000B0F5001F0CD0B0F5401F11D10FE0954847
:102740002C38006840F4003092492C39086009E0C8
:10275000012104F1280002F0CFF9054602E001E072
:10276000012500BF00BF5DB98A48001F006820F442
:102770004010D4F8841008438649091F086000E01F
:10278000A8464FF48032D4E90001104000211346DE
:1027900058404940084325D1206D18B1B0F5803F1D
:1027A00010D108E07B482C38006840F400307949AB
:1027B0002C39086008E0022104F1080002F0EAF870
:1027C000054601E0012500BF00BF55B971480C382E
:1027D000006820F48030216D08436E490C39086090
:1027E00000E0A8464FF00053D4E900101940002043
:1027F00059404040014307D1022104F1280002F072
:102800007BF908B14FF001084FF40032D4E9000120
:1028100010400021134658404940084327D1E06F3B
:10282000A0B1B0F5807F06D0B0F5007F0CD0B0F538
:10283000407F0CD109E057482C38006840F4003044
:1028400054492C39086004E003E002E001E001256E
:1028500000BF00BF55B94F48001F006820F440700A
:10286000E16F08434B49091F086000E0A8464FF498
:102870008012D4E900101140002013465940404016
:10288000014309D143480838006820F00040216F17
:1028900008434049083908604FF40013D4E90001A7
:1028A0001840002158404940084309D139480838A8
:1028B000006820F08070A16E08433649083908602E
:1028C0004FF08043D4E900101940002059404040A7
:1028D000014311D100BF2F484838006820F4004060
:1028E0002C494839086008460068D4F8B4100843F9
:1028F00028494839086000BF4FF00042D4E9000180
:1029000010400021134658404940084309D121484E
:102910000C38006820F04050616D08431D490C39A7
:1029200008604FF40002D4E9001011400020134663
:102930005940404001430AD11648001F006820F466
:102940004000D4F8881008431249091F086001228A
:1029500000216068104049405040014306D104F115
:10296000080002F017F8054605B1A846022200212A
:102970006068104049405040014307D1012104F1F3
:10298000080002F007F8054605B1A8460423002018
:10299000616801E058440258194004224040514007
:1029A000084307D1022104F1080001F0F3FF0546B6
:1029B00005B1A8460823002061681940082240405C
:1029C0005140084307D1002104F1280002F094F897
:1029D000054605B1A8461023002061681940102261
:1029E00040405140084307D1012104F1280002F082
:1029F00083F8054605B1A8462022002160681040F2
:102A000049405040014307D1022104F1280002F05F
:102A100073F8054605B1A846B8F1000F02D10020B1
:102A2000BDE8F0810120FBE72DE9F04104460D46A9
:102A300014B90120BDE8F081BD48006800F00F0026
:102A4000A8420ED2BA48006820F00F002843B849C7
:102A500008600846006800F00F00A84201D001207D
:102A6000E8E7207800F0040004280ED1B14920697D
:102A7000096801F07001884207D9AE48006820F06B
:102A8000700021690843AB490860207800F0080015
:102A9000082811D1A749091D6069096801F0700172
:102AA000884209D9A348001D006820F070006169C0
:102AB0000843A049091D0860207800F01000102884
:102AC00011D19C49091DA069096801F4E06188429F
:102AD00009D99848001D006820F4E060A169084306
:102AE0009449091D0860207800F02000202811D1A9
:102AF00090490831E069096801F07001884209D9FC
:102B00008C480830006820F07000E169084389496A
:102B100008310860207800F0020002280ED18549B3
:102B2000E068096801F00F01884207D98148006810
:102B300020F00F00E16808437E490860207800F02B
:102B40000100002850D07B48006820F47060A16824
:102B50000843784908606068022807D1754818382A
:102B60000068C0F34040F8B9012063E760680328BB
:102B700007D1704818380068C0F34060A0B9012040
:102B800058E76068012807D16A4818380068C0F320
:102B9000002048B901204DE7664818380068C0F3A6
:102BA000800008B9012045E762480838006820F035
:102BB0000700616808435F4908390860FEF74CFD6B
:102BC000064608E0FEF748FD801B41F28831884246
:102BD00001D903202EE757480838006800F0380074
:102BE0006168B0EBC10FEDD1207800F0020002283F
:102BF0000ED15049E068096801F00F01884207D200
:102C00004C48006820F00F00E1680843494908601B
:102C10004748006800F00F00A8420ED944480068F9
:102C200020F00F002843424908600846006800F081
:102C30000F00A84201D00120FCE6207800F004003B
:102C400004280ED13B492069096801F070018842CF
:102C500007D23848006820F07000216908433549E0
:102C60000860207800F00800082811D13149091DBA
:102C70006069096801F07001884209D22D48001D81
:102C8000006820F07000616908432A49091D086046
:102C9000207800F01000102811D12649091DA069E4
:102CA000096801F4E061884209D22248001D0068E9
:102CB00020F4E060A16908431E49091D08602078DE
:102CC00000F02000202811D11A490831E069096874
:102CD00001F07001884209D216480830006820F0DF
:102CE0007000E169084313490831086000F0ACF84E
:102CF00010490968C1F303210F4A515C01F01F011B
:102D000020FA01F70B48006800F00F001146085C3C
:102D100000F01F0027FA00F0084908600848076023
:102D200008480068FEF7E2FC8046404682E6000064
:102D30000020005218440258188D00085800002442
:102D4000540000244C0000243F220260174A1268FD
:102D500002F007024260154A0832126802F47062FB
:102D60008260124A0832126802F00F02C2600F4AF3
:102D70000832126802F0700202610C4A0C321268CA
:102D800002F070024261094A0C32126802F4E062F9
:102D90008261064A1032126802F07002C261044A6F
:102DA000126802F00F020A607047000010440258D7
:102DB0000020005210B500F047F80D490968C1F332
:102DC00003210C4A515C01F01F0120FA01F408486C
:102DD000006800F00F001146085C00F01F0024FAA4
:102DE00000F005490860054804600846006810BD09
:102DF00018440258188D000858000024540000247C
:102E000000B5FFF7D7FF05490968C1F30211044A6D
:102E1000515C01F01F01C84000BD00001C44025875
:102E2000188D000800B5FFF7C5FF05490968C1F313
:102E30000221044A515C01F01F01C84000BD00009E
:102E40001C440258188D0008F0B5824E366806F012
:102E5000380636B1082E15D0102E15D0182E7DD17B
:102E600014E07C4E103E3668C6F3401646B1794EEB
:102E7000103E3668C6F3C107774E26FA07F000E029
:102E80007548E5E07548E3E07548E1E0714E1836B5
:102E9000366806F003046F4E18363668C6F305111F
:102EA0006C4E1C36366806F001056A4E24363668CC
:102EB000C6F3CC0616FB05F601EE106AB8EE410A21
:102EC000002971D024B1012C50D0022C6DD16DE0BD
:102ED000604E103E3668C6F340163EB35D4E103E5F
:102EE0003668C6F3C1075C4E26FA07F301EE103AC6
:102EF000F8EE411A01EE101AB8EE411A81EE812A5D
:102F00009FED581AC0EE011A524E20363668C6F3AD
:102F1000080601EE106AB8EE411A31EE811AF7EE9A
:102F2000001A31EE211A62EE010A1EE001EE101ABB
:102F3000B8EE411ADFED4C1A81EE812A9FED491A55
:102F4000C0EE011A434E20363668C6F3080601EE7D
:102F5000106AB8EE411A31EE811A00E076E0F7EE21
:102F6000001A31EE211A62EE010A5BE001EE101A3E
:102F7000B8EE411A9FED3D2AC2EE011A9FED391AB3
:102F800080EE012A334E20363668C6F3080601EE7D
:102F9000106AB8EE411A32EE011AB7EE002A31EE8D
:102FA000021A61EE810A3DE04EE01DE001EE101ACA
:102FB000B8EE411ADFED2E1A81EE812A9FED291A13
:102FC000C0EE011A234E20363668C6F3080601EE1D
:102FD000106AB8EE411A31EE811AF7EE001A31EE9E
:102FE000211A62EE010A1DE001EE101AB8EE411A34
:102FF0009FED1E2AC2EE011A9FED1A1A80EE012AD9
:10300000144E20363668C6F3080601EE106AB8EE94
:10301000411A32EE011AB7EE002A31EE021A61EEC1
:10302000810A00BF00BF0B4E20363668C6F3462625
:10303000721C01EE102AB8EE411AC0EE811ABCEEE5
:10304000E11A11EE100A00E0002001E0034800BF81
:1030500000BFF0BD104402580090D00300093D00AD
:1030600040787D01000000460024744C0024744A1E
:1030700020BCBE4B2DE9F047044614B90120BDE841
:10308000F087207800F00100002870D0F94800682F
:1030900000F03808F7481830D0F80090B8F1100F59
:1030A00006D0B8F1180F0FD109F0030002280BD198
:1030B000F04810380068C0F3404000286AD06068CB
:1030C000002867D10120DAE700BF6068B0F5803FD3
:1030D00008D1E8481038006840F48030E5491039DC
:1030E00008602EE0606868B9E2481038006820F493
:1030F0008030E049103908600846006820F48020DC
:1031000008601EE06068B0F5A02F0DD1D9481038D6
:10311000006840F48020D7491039086008460068EC
:1031200040F4803008600CE0D2481038006820F489
:103130008030D049103908600846006820F48020AB
:10314000086000BF606898B1FEF786FA054606E0A1
:10315000FEF782FA401B642801D903208FE7C54897
:1031600010380068C0F340400028F1D012E012E0AF
:10317000FEF772FA054606E0FEF76EFA401B642879
:1031800001D903207BE7BB4810380068C0F34040FA
:103190000028F1D100BF207800F00200022879D188
:1031A000B448006800F03808B2481830D0F80090F1
:1031B000B8F1000F05D0B8F1180F35D109F00300B0
:1031C00088BBAC4810380068C0F3800018B1E068D4
:1031D00008B9012053E7A7481038006820F019000B
:1031E000E1680843A34910390860FEF735FA05463F
:1031F00006E0FEF731FA401B022801D903203EE722
:103200009C4810380068C0F380000028F1D099482D
:103210000C38006820F0FE40217C40EA01609549AE
:103220000C39086045E0FFE7E06838B39148103892
:10323000006820F01900E16808438E4910390860E1
:10324000FEF70AFA054606E0FEF706FA401B0228DA
:1032500001D9032013E7874810380068C0F38000C5
:103260000028F1D083480C38006820F0FE40217C13
:1032700040EA01607F490C3908601AE07D48103847
:10328000006820F001007B4910390860FEF7E4F97E
:10329000054607E00EE0FEF7DFF9401B022801D9E2
:1032A0000320ECE6734810380068C0F38000002863
:1032B000F1D100BF207800F0100010286FD16D48C8
:1032C000006800F038086B481830D0F80090B8F16A
:1032D000080F06D0B8F1180F1CD109F0030001281F
:1032E00018D1644810380068C0F3002020B1E069AC
:1032F000802801D00120C2E600BF5E48001F0068A0
:1033000020F07C5094F8201040EA01605949091FD0
:10331000086043E0E06938B356481038006840F070
:103320008000544910390860FEF796F9054606E01A
:10333000FEF792F9401B022801D903209FE64D4871
:1033400010380068C0F300200028F1D000BF4948C1
:10335000001F006820F07C5094F8201040EA0160C3
:103360004449091F086019E042481038006820F0FD
:103370008000404910390860FEF76EF9054606E006
:10338000FEF76AF9401B022801D9032077E6394885
:1033900010380068C0F300200028F1D100BF207869
:1033A00000F00800082836D16069D0B13148643097
:1033B000006840F001002F4964310860FEF74CF9C5
:1033C000054606E0FEF748F9401B022801D9032014
:1033D00055E6284864300068C0F340000028F1D06A
:1033E00019E024486430006820F00100214964316C
:1033F0000860FEF731F9054606E0FEF72DF9401B9F
:10340000022801D903203AE61A4864300068C0F364
:1034100040000028F1D1207800F02000202838D189
:10342000A069D0B113481038006840F480501149A9
:1034300010390860FEF710F9054606E0FEF70CF9B2
:10344000401B022801D9032019E60A4810380068F9
:10345000C0F340300028F1D01BE006481038006867
:1034600020F48050034910390860FEF7F5F805464E
:1034700009E0000010440258FEF7EEF8401B022855
:1034800001D90320FBE5D0480068C0F34030002894
:10349000F2D1207800F0040004287DD1CB480068E8
:1034A00040F48070C9490860FEF7D6F8054606E08A
:1034B000FEF7D2F8401B642801D90320DFE5C3489A
:1034C000006800F480700028F2D000BFA0680128D6
:1034D00008D1BD487030006840F00100BA49703131
:1034E00008602DE0A06868B9B7487030006820F027
:1034F0000100B549703108600846006820F00400FA
:1035000008601DE0A06805280DD1AF487030006844
:1035100040F00400AC49703108600846006840F093
:10352000010008600CE0A8487030006820F001003D
:10353000A549703108600846006820F00400086062
:1035400000BFA068A0B1FEF787F8054608E0FEF7C7
:1035500083F8401B41F28831884201D903208EE56F
:10356000994870300068C0F340000028EFD013E0A5
:10357000FEF772F8054608E0FEF76EF8401B41F2D0
:103580008831884201D9032079E58F48703000687E
:10359000C0F340000028EFD1606A00287DD08A483F
:1035A0001030006800F03800182877D0606A0228D0
:1035B00075D18548006820F0807083490860FEF767
:1035C0004BF8054606E0FEF747F8401B022801D9F4
:1035D000032054E57C480068C0F340600028F2D125
:1035E00000BFD4E90A1041EA001077492831096880
:1035F00040F2F33291430843734928310860208E2A
:10360000401EC0F30800616B491E4FF47E4202EA7F
:1036100041210843218F491ED20102EA014108439A
:103620003C21095D491E120202EA01610843664914
:103630003031086000BF081F006820F00100091F3A
:1036400008606148343000684FF6F8718843A16C17
:1036500040EAC1005C49343108605B482C300068A6
:1036600020F00C00216C084357492C3108600846B3
:10367000006820F00200616C084353492C31086057
:103680000846006840F4803008600846006840F44E
:10369000003008600846006802E092E038E01FE071
:1036A00040F4802008600846006840F0010008608F
:1036B0004548006840F0807043490860FDF7CCFF42
:1036C000054606E0FDF7C8FF401B022801D903208C
:1036D000D5E43D480068C0F340600028F2D070E0B7
:1036E0003948006820F0807037490860FDF7B4FF62
:1036F000054606E0FDF7B0FF401B022801D9032074
:10370000BDE431480068C0F340600028F2D158E0C1
:103710002D48283007682C4830300668606A012838
:1037200021D007F00301A06A81421CD1C7F3051123
:10373000E06A884217D1C6F30801206B401E81421F
:1037400011D1606B401EC6F3462188420BD1A06B9D
:10375000401EC6F30641884205D1E06B401EC6F309
:103760000661884201D0012089E41748343000689E
:10377000C0F3CC07A06CB84223D013482C300068AB
:1037800020F0010010492C310860FDF765FF054667
:1037900000BFFDF761FF401BFBD00B4834300068D1
:1037A0004FF6F8718843A16C40EAC10006493431F4
:1037B000086005482C30006840F0010002492C31B7
:1037C000086000205BE400000044025800480258F2
:1037D00070477047704710B504460CB9012010BD02
:1037E00094F83D0028B9002084F83C00204600F001
:1037F00029F8022084F83D00211D206801F074FBA7
:10380000012084F8480000BF84F83E0001213F20D9
:1038100001554020015541200155422001554320CA
:10382000015500BF00BF012084F844004520015528
:10383000462001554720015500BF012084F83D0076
:103840000020CCE770470000014691F83D000128B8
:1038500001D001207047022081F83D000868C0684F
:1038600040F001000B68D860204B0868984223D0D4
:103870000868B0F1804F1FD01D4B086898421BD0DC
:103880001C4B0868984217D01B4B0868984213D00D
:103890001A4B086898420FD0194B086898420BD011
:1038A000184B0868984207D0174B0868984203D015
:1038B000164B0868984210D108688068144B00EADB
:1038C0000302062A0FD0B2F5803F0CD008680068CA
:1038D00040F001000B68186005E00868006840F0DF
:1038E00001000B6818600020B4E7000000000140F0
:1038F0000004004000080040000C004000040140AB
:10390000001800400040014000E0004000E400409A
:1039100007000100704710B5044620680069C0F335
:103920004000D8B12068C068C0F34000B0B16FF06B
:10393000020021680861012020772068806900F07A
:10394000030018B12046FFF7E5FF05E0204600F030
:10395000BEF8204600F0BCF80020207720680069FF
:10396000C0F38000D8B12068C068C0F38000B0B157
:103970006FF00400216808610220207720688069C8
:1039800000F4407018B12046FFF7C4FF05E0204660
:1039900000F09DF8204600F09BF80020207720687A
:1039A0000069C0F3C000D8B12068C068C0F3C0008F
:1039B000B0B16FF00800216808610420207720680A
:1039C000C06900F0030018B12046FFF7A3FF05E02F
:1039D000204600F07CF8204600F07AF8002020779E
:1039E00020680069C0F30010D8B12068C068C0F337
:1039F0000010B0B16FF01000216808610820207736
:103A00002068C06900F4407018B12046FFF782FFBB
:103A100005E0204600F05BF8204600F059F8002051
:103A200020772068006900F0010058B12068C06864
:103A300000F0010030B16FF00100216808612046FC
:103A400000F048F820680069C0F3C01058B1206841
:103A5000C068C0F3C01030B16FF080002168086109
:103A60002046FFF7B6FE20680069C0F3002058B179
:103A70002068C068C0F3C01030B16FF48070216856
:103A800008612046FFF7A4FE20680069C0F380109B
:103A900058B12068C068C0F3801030B16FF04000AA
:103AA00021680861204600F021F820680069C0F311
:103AB000401058B12068C068C0F3401030B16FF0BA
:103AC0002000216808612046FFF784FE10BD704782
:103AD0007047000010B5044603492068884201D1B0
:103AE000FDF7C8FD10BD0000000001407047014611
:103AF00000BF91F88400012801D102207047012005
:103B000081F8840000BF2420C1F88800086802689A
:103B10000868006820F001000B68186022F000526D
:103B200000204866086802602020C1F8880000BFB5
:103B3000002081F8840000BF00BFDFE770477047B6
:103B400070B504460D4600BF94F88400012801D1E9
:103B5000022070BD012084F8840000BF2420C4F836
:103B60008800206806682068006820F0010021684D
:103B700008602068806820F06060284321688860C1
:103B8000204601F031FA206806602020C4F8880041
:103B900000BF002084F8840000BF00BFD9E770B5E3
:103BA00004460D4600BF94F88400012801D102208C
:103BB00070BD012084F8840000BF2420C4F8880070
:103BC000206806682068006820F00100216808600D
:103BD0002068806820F06040284321688860204683
:103BE00001F002FA206806602020C4F8880000BFB7
:103BF000002084F8840000BF00BFD9E770477047F9
:103C000010B50446204600F035F800F0010018B168
:103C10000120216808621CE0204600F02BF800F02B
:103C2000020018B104202168086212E0204600F06A
:103C300021F800F0040018B102202168086208E0B1
:103C4000204600F017F800F0080010B108202168A5
:103C5000086205492068884204D1012203490448CA
:103C600000F0ECFB10BD000000100140B04F00243C
:103C70002C0200240146D1F8900070472DE9F0474E
:103C800004462068C569206806682068876840F691
:103C90000F0005EA0009B9F1000F0FD105F020006F
:103CA00060B106F0200010B907F0805030B1606FAD
:103CB00010B12046616F8847BDE8F087B9F1000F69
:103CC0007ED0FE48384018B9FD4830400028F7D073
:103CD00005F0010058B106F4807040B10120216860
:103CE0000862D4F8900040F00100C4F8900005F09C
:103CF000020058B107F0010040B1022021680862BB
:103D0000D4F8900040F00400C4F8900005F00400DE
:103D100058B107F0010040B1042021680862D4F8CE
:103D2000900040F00200C4F8900005F0080070B167
:103D300006F0200010B9E148384040B10820216861
:103D40000862D4F8900040F00800C4F8900005F430
:103D5000006060B106F0806048B14FF400602168F7
:103D60000862D4F8900040F02000C4F89000D4F825
:103D70009000002852D005F0200050B106F020003D
:103D800010B907F0805020B1606F10B12046616F0C
:103D90008847D4F890A02068806800F04000402850
:103DA00002D00AF0280070B3204601F047FA2068DC
:103DB000806800F04000402826D100BF00BF00E02E
:103DC0002DE02168083151E8001F21F040002168F2
:103DD000083141E80002002AF1D100BFD4F8800088
:103DE00068B1B848D4F880100865D4F88000FDF7B1
:103DF0006FF998B1D4F88000016D88470EE0204635
:103E0000FFF7FEFE0AE003E02046FFF7F9FE05E0BB
:103E10002046FFF7F5FE0020C4F890004CE7E06E66
:103E200001287DD105F01000002879D006F010009F
:103E30000028FAD01020216808622068806800F00D
:103E4000400040286DD1D4F8800000689E49884227
:103E50006BD0D4F8800000689B491831884264D048
:103E6000D4F8800000689849303188425DD0D4F899
:103E70008000006894494831884256D0D4F88000C8
:103E800000689149603188424FD0D4F880000068C2
:103E90008D497831884248D0D4F8800000688A493A
:103EA0009031884241D0D4F8800000688649A8311A
:103EB00088423AD0D4F8800000688449884234D0DF
:103EC000D4F8800000688149183188422DD0D4F898
:103ED000800000687D493031884226D0D4F88000C7
:103EE00000687A49483188421FD0D4F880000068C1
:103EF00076496031884218D0D4F880000068734950
:103F00007831884211D0D4F8800000686F49903130
:103F100088420AD0D4F8800000686C49A83102E0D9
:103F2000AEE069E001E0884204D1D4F88000006886
:103F3000406803E0D4F88000006840681FFA80F809
:103F4000B8F1000F57D0B4F85C00404553DDA4F839
:103F50005E80D4F88000C069B0F5807F40D000BF9B
:103F600000BF216851E8001F21F48070226842E8F8
:103F700000010029F5D100BF00BF00BF2168083152
:103F800051E8001F21F001002168083141E80002DA
:103F9000002AF3D100BF00BF00BF2168083151E8FB
:103FA000001F21F040002168083141E80002002A8A
:103FB000F3D100BF2020C4F88C000020E06600BFD1
:103FC00000BF216851E8001F21F01000226842E87C
:103FD00000010029F5D100BFD4F88000FCF70AFEEB
:103FE00002202067B4F85C00B4F85E20801A81B229
:103FF0002046FFF7A3FD5FE634F85C0F6188401AA6
:104000001FFA80F860885C3CC8B3B8F1000F36D066
:1040100000BF00BF216851E8001F21F490702268A2
:1040200042E800010029F5D100BF00BF00BF2168B0
:10403000083151E8001F214AD24301EA02002168F9
:10404000083141E80002002AF1D100BF2020C4F865
:104050008C000020E066606700BF00BF216851E867
:10406000001F21F01000226842E800010029F5D16C
:1040700000BF0220206741462046FFF75FFD1BE698
:1040800005F4801050B107F4800038B14FF480106F
:10409000216808622046FFF7B2FD0DE605F010002A
:1040A00000B306F01000E8B12068006820F01000AE
:1040B00021680860204600F045F809E00100001082
:1040C00020010004235200081000024010040240A6
:1040D0001020216808622068006840F01000216804
:1040E0000860E9E505F0800058B106F0800010B9DD
:1040F00007F4000028B1A06F10B12046A16F8847D7
:10410000DAE505F0400030B106F0400018B1204675
:1041100001F0CAF8D0E505F4000030B106F08040A7
:1041200018B12046FFF76AFDC6E505F0807030B192
:1041300006F0004018B12046FFF701FDBCE500BFC6
:10414000BAE5000010B5044606492068884207D148
:1041500005480068406A05494870084602F053F96E
:1041600010BD0000001001402C020024B04F0024BC
:1041700010B504460CB9012010BDA06900B100E0E3
:1041800000BFD4F8880028B9002084F884002046B5
:1041900000F02AF82420C4F888002068006820F085
:1041A000010021680860204601F094FB012800D13D
:1041B000E2E7A06A10B1204600F042FF20684068A4
:1041C00020F49040216848602068806820F02A0030
:1041D000216888602068006840F00100216808605C
:1041E000204600F0A9FFC7E710B5B6B00446142179
:1041F00030A8FCF76FFAB82102A8FCF76BFA8849DF
:10420000206888423ED102210020CDE902101F9093
:1042100002A8FDF7A5FD08B1FCF7D4FC00BF81485A
:10422000006840F400207F4908600846006800F4F8
:104230000020019000BF00BF00BF7A480838006826
:1042400040F001007749083908600846006800F02E
:104250000100019000BF00BF032030900220319088
:104260000020329033900820349030A96E48FDF73A
:10427000FBF8002205213420FDF7AEFA3420FDF7CB
:1042800097FACBE06949206888423FD1022100209B
:10429000CDE902101F9002A8FDF762FD08B1FCF7FE
:1042A00091FC00BF5F48006840F480105D490860E1
:1042B0000846006800F48010019000BF00BF00BFF6
:1042C00058480838006840F002005649083908602C
:1042D0000846006800F00200019000BF00BF4FF4E4
:1042E00040503090022031900020329033900E20C8
:1042F000349030A94E48FDF7B7F80022052135204B
:10430000FDF76AFA3520FDF753FA87E0494920683E
:10431000884241D101210020CDE90210209002A85D
:10432000FDF71EFD08B1FCF74DFC00BF3D4808300D
:10433000006840F010003B490831086008460068FA
:1043400000F01000019000BF00BF00BF35480838E2
:10435000006840F0010033490839086008460068E9
:1043600000F00100019000BF00BF4FF4C06030902A
:10437000022031900020329033900720349030A9F1
:104380002948FDF771F8002205212520FDF724FAC0
:104390002520FDF70DFA41E02749206888423DD1EC
:1043A00002210020CDE902101F9002A8FDF7D8FCE1
:1043B00008B1FCF707FC00BF1A48006840F4003061
:1043C000184908600846006800F40030019000BFFA
:1043D00000BF00BF13480838006840F001001149D1
:1043E000083908600846006800F00100019000BF2D
:1043F00000BF0C203090022031900020329033908A
:104400000720349030A90848FDF72EF80022052136
:104410002620FDF7E1F92620FDF7CAF936B010BDD8
:10442000004C0040E8440258000002580050004090
:1044300000040258001001400044004070B50446DA
:104440000D461646D4F88C00202821D105B10EB9AE
:10445000012070BD0020E0660E492068884211D01E
:104460002068406800F4000060B100BF00BF216810
:1044700051E8001F41F08060226842E800010029F5
:10448000F5D100BF32462946204601F037FDE0E76E
:104490000220DEE7000C005810B5044606492068EB
:1044A000884208D10548017801F0B5FF012203498F
:1044B0000348FFF7C3FF10BD00100140B04F0024B8
:1044C0002C0200242DE9F84F04460E461746994663
:1044D000D4F88800202854D106B117B90120BDE8CE
:1044E000F88F00205434E06321206063FDF7B4F8B6
:1044F000824627806780543CA068B0F5805F04D175
:10450000206910B90025B04602E035464FF000089A
:1045100020E05346002280212046CDF8009001F093
:104520009BFD20B12020C4F888000320D7E745B9BF
:10453000B8F80000C0F308002168886208F102089A
:1045400003E02878216888626D1CB4F85600401E8C
:10455000A4F85600B4F856000028DAD153460022D9
:1045600040212046CDF8009001F076FD20B12020BA
:10457000C4F888000320B2E72020C4F88800002097
:10458000ADE70220ABE7704700BFFEE710B50022A1
:104590000821084603F0AAFC3C49086000220821D3
:1045A000084603F0A3FC3A490860002208210846A7
:1045B00003F09CFC3749086000220821042003F026
:1045C00095FC3549086000220821022003F08EFC8A
:1045D0003249086000220821022003F087FC30499C
:1045E0000860304A0021304802F0D8FA2F490860AC
:1045F0002F4A00212F4802F0D1FA2F4908602F4A94
:1046000000212F4802F0CAFA2E4908602E4A0021E4
:104610002E4802F0C3FA2E4908602E4A00212E4887
:1046200002F0BCFA2D4908602D4A00212D4802F005
:10463000B5FA2D4908602D4A00212D4802F0AEFA46
:104640002C4908602C4A00212C4802F0A7FA2C497A
:1046500008602C4A00212C4802F0A0FA2B4908607F
:104660002B4A00212B4802F099FA2B4908602B4A6B
:1046700000212B4802F092FA2A4908602A4A0021B8
:104680002A4802F08BFA2A49086010BD3000002445
:1046900034000024380000243C00002440000024A2
:1046A00044000024408B00081D4D00080000002439
:1046B000648B00085D4C000804000024888B00080F
:1046C000690B000808000024AC8B0008FD6000089E
:1046D0000C000024D08B0008CD0B00081000002433
:1046E000F48B0008890B000814000024188C0008C3
:1046F00041490008180000243C8C0008550B0008B4
:104700001C000024608C00085F0B000820000024BF
:10471000848C0008714C000824000024A88C000838
:10472000674C000828000024CC8C0008B90B000856
:104730002C00002408B500BF1348006840F080003A
:10474000114908600846006800F08000009000BF32
:1047500000BF00BF0846006840F00100086008463E
:10476000006800F00100009000BF00BF00BF0846D5
:10477000006840F0020008600846006800F002008F
:10478000009000BF00BF08BDE044025810B51848B3
:10479000184908604FF4E1304860002115488160F5
:1047A000C16001610C21416100218161C16101622F
:1047B000416200200F4988620846FFF7D9FC08B122
:1047C000FCF700FA00210B48FFF7E9F908B1FCF704
:1047D000F9F900210748FFF7B3F908B1FCF7F2F93E
:1047E0000448FFF784F908B1FCF7ECF910BD0000AC
:1047F000004C00400401002410B518481849086016
:104800004FF4E1304860002115488160C1600161CA
:104810000C21416100218161C1610162416200207E
:104820000F4988620846FFF7A3FC08B1FCF7CAF9F4
:1048300000210B48FFF7B3F908B1FCF7C3F90021D9
:104840000748FFF77DF908B1FCF7BCF90448FFF70A
:104850004EF908B1FCF7B6F910BD00000050004059
:104860009801002410B51848184908604FF4E13049
:104870004860002115488160C16001610C214161DF
:1048800000218161C1610162416200200F4988629B
:104890000846FFF76DFC08B1FCF794F900210B48BE
:1048A000FFF77DF908B1FCF78DF900210748FFF704
:1048B00047F908B1FCF786F90448FFF718F908B181
:1048C000FCF780F910BD0000001001402C0200240C
:1048D00010B51848184908604FF4E13048600021CD
:1048E00015488160C16001610C2141610021816135
:1048F000C1610162416200200F4988620846FFF7EA
:1049000037FC08B1FCF75EF900210B48FFF747F9C7
:1049100008B1FCF757F900210748FFF711F908B172
:10492000FCF750F90448FFF7E2F808B1FCF74AF940
:1049300010BD000000440040C002002400BFFEE79C
:104940000F4801F009FF00BF4FF0FF320D490E483C
:10495000006803F007FD0028F6D00A48483890F8B0
:1049600048100A4801F05AFC0921084801F056FC99
:1049700003F092FE04462146014801F0C1FFE3E73F
:10498000C84E0024544F002430000024D04C002492
:1049900000BFFEE72DE9F04104460E4600275548CA
:1049A000006800F00300032802D10120BDE8F08177
:1049B00050482838006820F080604E492839086047
:1049C000FCF74AFE054606E0FCF746FE401B0228BF
:1049D00001D90320EAE7474828380068C0F3C060DF
:1049E0000028F1D100BF4348006820F47C302168E2
:1049F00040EA01303F490860A088401EC0F308002B
:104A0000A168491E4FF47E4202EA41210843A18970
:104A1000491ED20102EA01410843217C491E1202CB
:104A200002EA0161084333491031086000BF314890
:104A3000001D006820F0C000616908432D49091D70
:104A400008600846006820F02000A1690843294951
:104A5000091D08600846006820F01000086025481D
:104A6000143000684FF6F8718843E16940EAC100EC
:104A70002049143108601F48001D006840F01000F4
:104A80001C49091D08602EB90846006840F4002042
:104A9000086012E0012E08D11648001D006840F49D
:104AA00080101449091D086007E01248001D0068C5
:104AB00040F400100F49091D08600E4828380068AE
:104AC00040F080600B4928390860FCF7C5FD0546B9
:104AD00006E0FCF7C1FD401B022801D9032065E771
:104AE000044828380068C0F3C0600028F1D0384678
:104AF0005CE70000284402582DE9F04104460E46C8
:104B000000275548006800F00300032802D1012067
:104B1000BDE8F08150482838006820F080504E49A8
:104B200028390860FCF798FD054606E0FCF794FD7F
:104B3000401B022801D90320EAE7474828380068CB
:104B4000C0F340700028F1D100BF4348006820F056
:104B50007C70218840EA01503F490860A088401ECF
:104B6000C0F30800A168491E4FF47E4202EA4121C9
:104B70000843A189491ED20102EA01410843217C70
:104B8000491E120202EA01610843334918310860E4
:104B900000BF3148001D006820F44060616908438F
:104BA0002D49091D08600846006820F40070A169BD
:104BB00008432949091D08600846006820F48070F0
:104BC000086025481C3000684FF6F8718843E16999
:104BD00040EAC10020491C3108601F48001D0068E0
:104BE00040F480701C49091D08602EB90846006811
:104BF00040F48000086012E0012E08D11648001D24
:104C0000006840F400001449091D086007E01248DC
:104C1000001D006840F080700F49091D08600E48B3
:104C20002838006840F080500B4928390860FCF7AC
:104C300013FD054606E0FCF70FFD401B022801D9D5
:104C4000032065E7044828380068C0F34070002856
:104C5000F1D038465CE700002844025800BF01202C
:104C600001F046FFFBE700BF012001F041FFFBE739
:104C700000BF4FF0FF3218491848006803F072FB7C
:104C80000028F6D014480078032806D004280BD05A
:104C9000052810D006281CD114E00F48104A41689E
:104CA000104801F02FFD15E00B480F4A41680D48F0
:104CB00001F028FD0EE008480C4A4168094801F05F
:104CC00021FD07E004480A4A4168064801F01AFD40
:104CD00000E000BFCDE70000EC0000243C00002411
:104CE000B04F0024C84E0024C84F0024E04F0024D9
:104CF000F84F002408480068006840F0200006498A
:104D00000968086004480068006840F01000024923
:104D100009680860704700002C02002400BF0120D1
:104D200001F0E6FEFBE710B54FF0E020006903F06C
:104D3000A3FC012801D003F0BFF810BD00B59DB061
:104D40004C210AA8FBF7C6FC202102A8FBF7C2FCF5
:104D50000220FCF793FD00BF002001902548006869
:104D600020F44040234908600846006800F44040B1
:104D7000019000BF00BF00BF1E48006800F4005053
:104D8000B0F5005FF8D109200A904FF480300B9005
:104D900001200F90022013900221149115912C21D3
:104DA0001691012117910221189119910C211A9144
:104DB00000211B911C910AA8FEF75CF908B1FBF7D2
:104DC00001FF3F2002900320039000200490082060
:104DD000059040200690079000010890402009901F
:104DE000032102A8FDF720FE08B1FBF7EBFE1DB082
:104DF00000BD0000184802582F48006840F47000B9
:104E00002D4908602D48006800F00F00072806D2E1
:104E10002A48006820F00F00C01D28490860284873
:104E2000006840F001002649086000202449103144
:104E300008602348006823490840214908601F484A
:104E4000006800F00F00072806D91C48006820F011
:104E50000F00C01D19490860002019491831086069
:104E6000091D0860091D08601748154928310860A8
:104E70001648091D08601648091D08600020091D14
:104E800008601348091D08600020091D08601048CB
:104E9000091D08600020091D08600948006820F409
:104EA000802007490860002005496031086043F20E
:104EB000D20008490860704788ED00E000200052E9
:104EC000004402587FEDF6EA000202020000FF01F2
:104ED000800201010040005210B50248FEF71BFDA0
:104EE00010BD00005403002410B502682C4B9842FA
:104EF0000ED0B0F1804F0BD02A4B984208D02A4BED
:104F0000984205D0294B984202D0294B984203D1B0
:104F100022F070024B681A43214B98421DD0B0F129
:104F2000804F1AD01F4B984217D01F4B984214D075
:104F30001E4B984211D01E4B98420ED01D4B9842EA
:104F40000BD01D4B984208D01C4B984205D01C4BEF
:104F5000984202D01B4B984203D122F44072CB6896
:104F60001A4322F080034C6943EA040202608B6812
:104F7000C3620B6883620A4B98420BD00C4B984279
:104F800008D00C4B984205D00B4B984202D00B4BEB
:104F9000984201D10B6903630123436110BD0000F6
:104FA000000001400004004000080040000C0040E8
:104FB000000401400040014000440140004801401D
:104FC00000E0004000E4004010B50248FEF756FE45
:104FD00010BD00000401002410B50248FEF74EFE8B
:104FE00010BD00009801002470B5456E2DB9012553
:104FF000A0F86A50A0F868501CE01023102405683F
:10500000AD68C5F342610568AD686A0F0A4DAD5CD5
:1050100015FB04F5094EB65C95FBF6F5A0F86A5051
:10502000054D6D5C15FB03F5044E765C95FBF6F5BE
:10503000A0F8685070BD0000088D0008108D0008B1
:1050400090F8281001F0010139B10168496821F494
:105050000031C26A11430268516090F8281001F0D3
:105060000201022907D10168496821F48031026BED
:1050700011430268516090F8281001F004010429DE
:1050800007D10168496821F48021426B114302680D
:10509000516090F8281001F00801082907D1016833
:1050A000496821F40041826B11430268516090F815
:1050B000281001F01001102907D10168896821F436
:1050C0008051C26B11430268916090F8281001F082
:1050D0002001202907D10168896821F40051026C60
:1050E00011430268916090F8281001F040014029B6
:1050F00013D10168496821F48011426C11430268A0
:105100005160416CB1F5801F07D10168496821F4F5
:10511000C001826C11430268516090F8281001F0C0
:105120008001802907D10168496821F40021C26CFF
:10513000114302685160704738B504460020C4F836
:105140009000FCF789FA05462068006800F0080026
:10515000082821D16FF07E402B4600224FF4001129
:105160000090204600F078FFB0B100BF00BF21687A
:1051700051E8001F21F08000226842E80001002968
:10518000F5D100BF2020C4F8880000BF002084F8BB
:10519000840000BF032038BD2068006800F00400D0
:1051A000042830D16FF07E402B4600224FF480015E
:1051B0000090204600F050FF28B300BF00BF2168D8
:1051C00051E8001F21F49070226842E80001002994
:1051D000F5D100BF00BF00BF2168083151E8001FB2
:1051E00021F001002168083141E80002002AF3D1D2
:1051F00000BF2020C4F88C0000BF002084F8840089
:1052000000BF0320C7E72020C4F88800C4F88C0042
:105210000020E066206700BF84F8840000BF00BF64
:10522000B9E770B50546AC6B0020A4F85E00A4F8A1
:1052300056002046FEF7E4FC70BD000000BF00BF32
:10524000026852E8002F22F49071036843E80012CC
:10525000002AF5D100BF00BF00BF0268083252E843
:10526000002F104B02EA03010268083242E80013E3
:10527000002BF2D100BFC16E01290CD100BF00BFCD
:10528000026852E8002F22F01001036843E8001280
:10529000002AF5D100BF2021C0F88C100021C16682
:1052A00041677047FEFFFFEF10B5044600BF00BF27
:1052B000216851E8001F21F04000226842E8000107
:1052C0000029F5D100BF2020C4F888000020A06785
:1052D0002046FFF758F910BD2DE9F0410446B4F817
:1052E0006070D4F88C0022286ED12068406A86B2A3
:1052F000A56D06EA07002880A06D801CA065B4F8A3
:105300005E00401EA4F85E00B4F85E00002861D183
:1053100000BF00BF216851E8001F21F4907022688F
:1053200042E800010029F5D100BF00BF00BF21689D
:10533000083151E8001F21F001002168083141E8DF
:105340000002002AF3D100BF2020C4F88C00002006
:105350006067206720492068884211D02068406833
:1053600000F4000060B100BF00BF216851E8001FD9
:1053700021F08060226842E800010029F5D100BFD9
:10538000E06E01281CD10020E06600BF00BF21684C
:1053900051E8001F21F01000226842E800010029B6
:1053A000F5D100BF2068C069C0F3001010B1102013
:1053B00021680862B4F85C102046FEF7BFFB09E0E4
:1053C0002046FFF769F805E02068806940F0080092
:1053D00021688861BDE8F081000C00582DE9F84F84
:1053E0000446B4F860B02068C56920680068009081
:1053F0002068D0F808A0D4F88C0022287ED1B4F818
:105400006890ADE02068406A1FFA80F8A76D08EA4E
:105410000B003880A06D801CA065B4F85E00401EB3
:10542000A4F85E002068C56905F00700B0B305F078
:10543000010060B1009800F4807040B10120216843
:105440000862D4F8900040F00100C4F8900005F024
:10545000020058B10AF0010040B102202168086240
:10546000D4F8900040F00400C4F8900005F0040067
:1054700058B10AF0010040B1042021680862D4F854
:10548000900040F00200C4F89000D4F8900028B1D9
:105490002046FEF7B5FB0020C4F89000B4F85E008B
:1054A00000285DD100BF00BF216851E8001F21F432
:1054B0008070226842E800010029F5D100BF00BFDA
:1054C00000BF2168083151E8001F404A01EA02008C
:1054D0002168083141E80002002AF2D100BF2020F3
:1054E000C4F88C0000206067206739492068884232
:1054F00013D02068406800F4000000E05DE060B177
:1055000000BF00BF216851E8001F21F080602268C1
:1055100042E800010029F5D100BFE06E01281CD14E
:105520000020E06600BF00BF216851E8001F21F0A5
:105530001000226842E800010029F5D100BF206870
:10554000C069C0F3001010B1102021680862B4F8DF
:105550005C102046FEF7F2FA02E02046FEF79CFFC0
:10556000B9F1000F04D005F0200000287FF44AAF05
:10557000B4F85E6006B3B4F86800B04223DD00BF43
:1055800000BF2168083151E8001F21F080502168D8
:10559000083141E80002002AF3D100BF0D486067DE
:1055A00000BF00BF216851E8001F41F020002268C1
:1055B00042E800010029F5D105E02068806940F04B
:1055C000080021688861BDE8F88F0000FEFFFFEF4A
:1055D000000C0058D952000870B50446B4F8606059
:1055E000D4F88C0022286FD12068406A85B2F0B2CE
:1055F0002840A16D0870A06D401CA065B4F85E0045
:10560000401EA4F85E00B4F85E00002862D100BF1E
:1056100000BF216851E8001F21F49070226842E821
:1056200000010029F5D100BF00BF00BF216808318B
:1056300051E8001F21F001002168083141E8000213
:10564000002AF3D100BF2020C4F88C00002060673E
:10565000206721492068884211D02068406800F402
:10566000000060B100BF00BF216851E8001F21F0B9
:105670008060226842E800010029F5D100BFE06E99
:1056800001281CD10020E06600BF00BF216851E85E
:10569000001F21F01000226842E800010029F5D126
:1056A00000BF2068C069C0F3001010B1102021684D
:1056B0000862B4F85C102046FEF740FA0AE0204683
:1056C000FEF7EAFE06E0FFE72068806940F0080088
:1056D0002168886170BD0000000C00582DE9F05F62
:1056E0000446B4F860A02068C5692068D0F800B00E
:1056F0002068D0F80890D4F88C0022287ED1B4F825
:105700006880ACE02068406A87B20AF0FF00384049
:10571000A16D0870A06D401CA065B4F85E00401E2D
:10572000A4F85E002068C56905F00700A8B305F07D
:10573000010058B10BF4807040B10120216808626B
:10574000D4F8900040F00100C4F8900005F0020089
:1057500058B109F0010040B1022021680862D4F874
:10576000900040F00400C4F8900005F0040058B127
:1057700009F0010040B1042021680862D4F89000CB
:1057800040F00200C4F89000D4F8900028B1204600
:10579000FEF736FA0020C4F89000B4F85E00002846
:1057A0005DD100BF00BF216851E8001F21F4807067
:1057B000226842E800010029F5D100BF00BF00BF08
:1057C0002168083151E8001F3F4A01EA02002168C0
:1057D000083141E80002002AF2D100BF2020C4F8BD
:1057E0008C0000206067206738492068884213D009
:1057F0002068406800F4000070B100E05CE000BF89
:1058000000BF216851E8001F21F08060226842E853
:1058100000010029F5D100BFE06E01281CD1002055
:10582000E06600BF00BF216851E8001F21F01000B2
:10583000226842E800010029F5D100BF2068C06954
:10584000C0F3001010B1102021680862B4F85C1099
:105850002046FEF773F902E02046FEF71DFEB8F180
:10586000000F04D005F0200000287FF44BAFB4F8FF
:105870005E6006B3B4F86800B04223DD00BF00BF2D
:105880002168083151E8001F21F08050216808315B
:1058900041E80002002AF3D100BF0D48606700BF55
:1058A00000BF216851E8001F41F02000226842E853
:1058B00000010029F5D105E02068806940F008006A
:1058C00021688861BDE8F09FFEFFFFEF000C0058E3
:1058D000D95500082DE9F04F89B005460020089001
:1058E000F8492868884200D100E000BF2969A8680B
:1058F000084369690843E96940EA010828680068C3
:10590000F149084040EA08002968086028684068B2
:1059100020F44050E968084329684860D5F81880A9
:10592000E8492868884202D0286A40EA08082868BE
:105930008068E649084040EA0800296888602868CD
:10594000C06A20F00F00696A08432968C86200BF76
:10595000DF492868884220D1DE48006800F038001E
:10596000182811D005DC48B1082809D0102811D119
:1059700008E020280AD028280CD109E001240BE0F7
:10598000042409E0082407E0102405E0202403E0B3
:10599000402401E0802400BF42E1CF4928688842CA
:1059A00019D1CC48006800F00700062810D2DFE8C3
:1059B00000F0030507090B0D00240BE0042409E0A7
:1059C000082407E0102405E0202403E0402401E03F
:1059D000802400BF24E1C1492868884219D1BD480C
:1059E000006800F00700062810D2DFE800F0030589
:1059F00007090B0D00240BE0042409E0082407E04C
:105A0000102405E0202403E0402401E0802400BFAE
:105A100006E1B3492868884219D1AE48006800F011
:105A20000700062810D2DFE800F0030507090B0D78
:105A300000240BE0042409E0082407E0102405E01A
:105A4000202403E0402401E0802400BFE8E0A549D1
:105A50002868884219D19F48006800F0070006288E
:105A600010D2DFE800F0030507090B0D00240BE05E
:105A7000042409E0082407E0102405E0202403E0C2
:105A8000402401E0802400BFCAE09749286888428A
:105A900020D19048006800F03800182811D005DCAB
:105AA00048B1082809D0102811D108E020280AD0D0
:105AB00028280CD109E001240BE0042409E0082483
:105AC00007E0102405E0202403E0402401E08024C6
:105AD00000BFA5E085492868884219D17D48006843
